:020000040800F2
:1000000048C5002039030008698D0008E161000837
:10001000B98B0008890F00087DDC00080000000093
:10002000000000000000000000000000790200084D
:100030008523000800000000D502000829B400084C
:100040005303000853030008530300085303000838
:100050005303000853030008EF230008530300086C
:1000600053030008F5230008FB230008530300088E
:100070002920000853030008530300085303000815
:1000800053030008530300085303000853030008F8
:10009000AD0F0008530300085303000801240008B3
:1000A00053030008530300085303000853030008D8
:1000B000F9B4000805B5000853030008530300080D
:1000C00053030008530300085303000853030008B8
:1000D00053030008530300085303000851BF0008EE
:1000E0005303000853030008530300085303000898
:1000F0005303000853030008530300085303000888
:100100005303000853030008530300085303000877
:100110005303000853030008530300085303000867
:100120005303000835200008412000084D20000836
:100130005303000853030008530300085303000847
:1001400053030008B90F000853030008A58F0008E7
:100150005920000865200008712000085DBF0008D4
:100160005303000853030008530300085303000817
:100170005303000853030008530300080000000065
:10018000530300085303000800F002F800F064F87D
:100190000AA090E8000C82448344AAF10107DA45E2
:1001A00001D100F059F8AFF2090EBAE80F0013F0D0
:1001B000010F18BFFB1A43F001031847C82A0100BA
:1001C000E82A010010F8013B0A4413F0030408BFB9
:1001D00010F8014B1D1108BF10F8015B641E05D01B
:1001E00010F8016B641E01F8016BF9D1002D15D0D8
:1001F00010F8014B03F00C030C2BA1EB04040ABF15
:1002000010F8013BA4EB8314A4EB032405F10103D4
:1002100014F8016B5B1E01F8016BF9D5914238BFF0
:1002200010F8013BD1D3704700230024002500269D
:10023000103A28BF78C1FBD8520728BF30C148BF49
:100240000B6070471FB511F072FE9DE8030000F0CF
:1002500047FA1FBD10B510BD00F0AEFA1146FFF70A
:10026000F1FF0FF03BFC00F0CCFA03B4FFF7F2FF14
:1002700003BC00F0FDFA00002C4B19680868B0E8D8
:10028000F04F80F30988BFF36F8F4FF0000080F3C9
:10029000118870470000000008480068006880F37B
:1002A00008884FF0000080F3148862B661B6BFF38F
:1002B0004F8FBFF36F8F00DF00BF00BF08ED00E07E
:1002C000DFF80C00016841F470010160704700BF65
:1002D00088ED00E0EFF30980BFF36F8F134B1A68CE
:1002E0001EF0100F08BF20ED108A20E9F04F1060BB
:1002F00009B44FF0500080F31188BFF34F8FBFF364
:100300006F8F10F003FB4FF0000080F3118809BCE1
:1003100019680868B0E8F04F1EF0100F08BFB0EC85
:10032000108A80F30988BFF36F8F70479800002010
:10033000EFF30580704700000948804709480047EF
:10034000FEE7FEE7FEE7FEE7FEE7FEE7FEE7FEE785
:10035000FEE7FEE704480549054A064B70470000E2
:10036000E9B400088901000848B1002048C5002010
:1003700048C1002048C1002070B5064600F094F93D
:10038000056806F10B0020F00704B4429CBF002072
:1003900070BD2B466A68BAB11068A04210D304F150
:1003A000080188423CBF5068586007D35168101953
:1003B00041601168091B016058601460101D70BD18
:1003C00013465268002AE7D12146284600F074F906
:1003D0000028DED170BD70B50446051F00F064F939
:1003E0000068002C14BF446870BD002C18BFAC42DC
:1003F0003CBF20466468F8D301680A18AA4218BFB7
:10040000456003D12A6805461144016028684119F6
:10041000A1421CBF6C6070BD6168696021680844BE
:10042000286070BD53EA020C00F069802DE9F04BA2
:100430004FF00006002B1FBFB3FA83F503FA05F453
:1004400024FA05F65E4012BF1643B2FA82F502FAAC
:1004500005F4C5F120051EBF22FA05FC44EA0C0490
:10046000203556EA044C4FEA144418BF641C4FF080
:1004700000084FF00009904271EB030C39D30029BA
:1004800019BFB1FA81F701FA07F6B0FA80F700FA5E
:1004900007F6C7F120071EBF20FA07FC46EA0C0644
:1004A0002037B6FBF4FCA7EB0507103F07F01F0B46
:1004B000CBF120060CFA0BFB2CFA06F644BFB34630
:1004C0000026202FA4BF5E464FF0000B5BEA060C0F
:1004D00008BF4FF0010B19EB0B09ABFB027C48EB9B
:1004E0000608C01B06FB02CC0BFB03CC71EB0C0116
:1004F000C1E70B46024641464846BDE8F08B13B5BE
:100500004FF000004FF00001AFF30080BDE81C4049
:100510007047032A40F2308010F0030C00F0158081
:1005200011F8013BBCF1020F624498BF11F801CBF6
:1005300000F8013B38BF11F8013BA2F1040298BF5B
:1005400000F801CB38BF00F8013B11F0030300F0C5
:100550002580083AC0F0088051F8043B083A51F869
:1005600004CBA0E80810F5E7121D5CBF51F8043B6E
:1005700040F8043BAFF30080D20724BF11F8013BE1
:1005800011F801CB48BF11F8012B24BF00F8013B43
:1005900000F801CB48BF00F8012B704710B5203A96
:1005A000C0F00B80B1E81850203AA0E81850B1E82C
:1005B0001850A0E81850BFF4F5AF5FEA027C24BFE2
:1005C000B1E81850A0E8185044BF18C918C0BDE8D9
:1005D00010405FEA827C24BF51F8043B40F8043BA2
:1005E00008BF7047D20728BF31F8023B48BF11F857
:1005F000012B28BF20F8023B48BF00F8012B7047B1
:1006000002F0FF0343EA032242EA024200F002B88A
:100610004FF000020429C0F0128010F0030C00F02B
:100620001B80CCF1040CBCF1020F18BF00F8012BA9
:10063000A8BF20F8022BA1EB0C0100F00DB85FEA77
:10064000C17C24BF00F8012B00F8012B48BF00F843
:10065000012B70474FF0000200B5134694469646B2
:10066000203922BFA0E80C50A0E80C50B1F12001C5
:10067000BFF4F7AF090728BFA0E80C5048BF0CC073
:100680005DF804EB890028BF40F8042B08BF7047D1
:1006900048BF20F8022B11F0804F18BF00F8012B43
:1006A000704770477047704700487047ECB00020B3
:1006B000704770477047704738B504460A460020B7
:1006C0006946AFF30080002808BF38BD0246009994
:1006D000204600F04FF8012038BD012000F064B83A
:1006E000F8B5AFF30080054600200C46102000BF8F
:1006F0000646A819A0420DD9324669460020AFF33C
:100700000080070008BF00F04FF80098A04218BF13
:100710000546C419FFF7C8FF05600746F01D20F025
:1007200007004619284600F00AF8B44208BFF8BD91
:10073000A21B31463868BDE8F84000F01BB8002124
:100740000160C0E9011070471020704710B500F03B
:100750000DF8006810BD10B5044600F007F80460FD
:1007600010BD000000487047E4B00020004870470A
:10077000E4B00020034640688C46002818BF884239
:100780003CBF03464068F8D318681844884207D035
:100790000CF1030020F00700001D411A521A014617
:1007A000081D0A60FFF717BE10B500F039F8BDE864
:1007B000104000F02FB870477546FFF7D3FFAE46E4
:1007C00005006946534620F00700854618B020B55D
:1007D000FFF7C0FDBDE820404FF000064FF00007D6
:1007E0004FF000084FF0000B21F00701AC46ACE8D9
:1007F000C009ACE8C009ACE8C009ACE8C0098D4646
:10080000704710B50446AFF300802046BDE81040A5
:10081000FFF72BBD002801D000F02AB87047000078
:1008200010B5012805D0002103A000F027F8012011
:1008300010BD09A1F8E7000053494752544D454DFA
:100840003A204F7574206F662068656170206D6571
:100850006D6F7279000000003A2048656170206D6C
:10086000656D6F727920636F727275707465640064
:1008700001491820ABBEFEE72600020070B5054610
:100880000C460A2000E06D1C00F011F835B1287804
:100890000028F8D102E0641C00F009F814B12078B7
:1008A0000028F8D1BDE870400A20AFF3008008B5F9
:1008B00069468DF800000320ABBE08BDF0B5146892
:1008C00091F800E0DFF8C8C0324FA4680125324E2D
:1008D000BEF1000F43D0BC4211D2DFF8C0E0744536
:1008E0000DDA52689268BA4209D2724507DA90ED81
:1008F0001D0AB0EEC00A10EE100A604500DB0D7153
:100900001868284F284A90ED020A2548B0EEC00A20
:1009100010EE104A844208DB97ED000AB0EEC00AE0
:1009200010EE104A944200DB35705B6893ED020ACA
:10093000B0EEC00A10EE103A834208DB97ED120ABF
:10094000B0EEC00A10EE100A904200DB75703078ED
:10095000002803D07078002800D04D72F0BDBC4252
:1009600010D2124B9C420DDA52689268BA4209D2F8
:100970009A4207DA90ED1D0AB0EEC00A10EE100A96
:10098000604500DB0D710020307070704872F0BD62
:100990000000B442CDCC8CBFDB0800209A991940EE
:1009A0006666A640E8A100209A99993ECDCC8C3F7E
:1009B00001221021014803F08DB90000000002401F
:1009C00000221021014803F085B900000000024018
:1009D00001221146014803F07DB9000000040240E5
:1009E00000220121014803F075B900000004024013
:1009F00070B50446FFF7E4FF922000F031F90622BB
:100A00006549122000F00EF9FFF7D2FF624DA5F103
:100A10001C0668782978000200B2084300EE100A2C
:100A2000D6ED030AB8EEC00A60EE200A94ED080A7B
:100A300060EE800AC4ED000AE878A978000200B2EE
:100A4000084300EE900AB8EEE01AD6ED030A21EE54
:100A5000201A21EE001A84ED011A68792979000222
:100A600000B2084301EE100A3081B8EEC11A61EEFF
:100A7000200A20EE800A84ED020AFFF7B1FF082267
:100A80002946002000F0CEF8FFF7A2FF28780F28B3
:100A90005AD1F078A9780028E8784FEA002000B20F
:100AA00040EA01002BD000EE100AD4ED090AB8EE9E
:100AB000C01A96ED040A51EE000AC4ED030A6879E3
:100AC0002979000200B2084300EE900A94ED0A1A58
:100AD000F8EEE00A10EE801A84ED041AE879A9799C
:100AE000000200B2084300EE900A308194ED0B1A28
:100AF000F8EEE00A10EE801A84ED051A24E000EE0C
:100B0000100AF8EEC00A96ED040A60EE800AC4ED01
:100B1000030A68792979000200B2084300EE900ABE
:100B2000F8EEE00A60EE800AC4ED040AE879A979DB
:100B3000000200B2084300EE900A3081F8EEE00AAD
:100B400020EE800A84ED050AFFF73AFFA22000F0AC
:100B500087F802221049222000F064F8FFF728FFEE
:100B600028786978C00040EA51103081B0F5806F74
:100B700002DBA0F500603081B6F90800B4EE001A7F
:100B800000EE100AF8EEC00AB3EE070A00EE810A82
:100B900084ED070A70BD0000C001002070B50D464D
:100BA0001749184C08600020A0700EF0D7FCA178FF
:100BB0000843A0700EF066FDA1780843A0701DB137
:100BC000114800F09DFA18E00F489FED100A80EDE3
:100BD000090A9FED0F0A80ED0A0A9FED0E0A80EDCB
:100BE0000B0A9FED0D0A80ED0C0A9FED0C0A80EDBB
:100BF000080A9FED0B0A80ED060AA07870BD000080
:100C0000EC010020A40100200896002058A3653ABA
:100C10005BE555BBC3BD3F3BE9FF1A416F9E813F7A
:100C20000000204270B514460D4640F0800000F0F0
:100C300017F806E0552000F013F8641E05F8010BC4
:100C4000E4B2002CF6D170BD10B50C4640F0800027
:100C500000F006F8552000F003F8207010BD0000E9
:100C600001B582B04FF47A7000900548012301AAC3
:100C700002A9006804F0C0FA9DF804000EBD00004F
:100C8000EC01002010B50C46FFF7EAFF2046BDE856
:100C90001040FFF7E5BF000010B506490120064CE3
:100CA000487002E001200EF05BFF20780028F9D0A8
:100CB00010BD000028090020D208002010B509F05E
:100CC000F7FCBDE8104009F04FBDB6EE002A92EDEA
:100CD000020AB0EE421AD2ED030A00EE401AD0ED3D
:100CE000001AD0ED013A00EEE01A21EE213A92ED21
:100CF000011AD2ED001A61EE002A41EEE02A61EEFF
:100D0000200A41EE800A02EEA33A90ED020AF0EECC
:100D1000002A00EE803A23EE220A81ED000AD2ED8D
:100D2000010AD2ED021A92ED001A92ED030A20EEAA
:100D3000A13AD0ED003A90ED014A01EE003A23EEDF
:100D4000233AF0EE423A40EEE03A40EE403A21EEED
:100D5000800A01EE600A03EE843AD0ED020A00EE4A
:100D6000203A23EE220A81ED010AD2ED010AD2EDEA
:100D7000031A92ED020A92ED001A20EEA13A60EEFB
:100D8000211AD0ED003A00EEE02A01EE403A41EEA1
:100D9000201A90ED011A00EE402A23EE233A90ED3E
:100DA000020A01EE813A02EE003A23EE220A81EDB8
:100DB000020A70472DE9F05F0F462DED068B804645
:100DC0001C461546017865484FF0000A002971D08D
:100DD00098F8091000296ED0DFED618A8146C7EDD1
:100DE000038A0068DFF87CB1DFED5F9A5F4EB1EEF9
:100DF000089ABAEE0E8A9FED5EAA20B1012823D090
:100E000002284DD141E0286890ED020AB0EEC01AE8
:100E100011EE100A584508DBF0EE690A534808F055
:100E2000CFF92168706B486002E0206880ED019A7C
:100E30002868504990ED000AB0EEC00A10EE100A82
:100E400088422DDB01201DE028684B4A90ED000A06
:100E5000B0EEC00A10EE101A91420ADB90ED020AC1
:100E6000DFED460A414808F0ABF92168706B486035
:100E700002E0206880ED018A2868414900688842C4
:100E80000EDC0220C9F800000AE02868F0EE4A0AE9
:100E900090ED020A354808F093F92168706B4860BC
:100EA0003248D9F80410AE3031B1012925D00229D9
:100EB0003AD12EE04CE047E0696891ED020AB0EECD
:100EC000C01A11EE101A594508DBF0EE690A08F055
:100ED00077F96168D6F8E200486002E0606880ED6A
:100EE000019A686890ED000A2248B0EEC00A10EE40
:100EF000101A814218DB012008E0606880ED018A49
:100F0000686801681E4881420EDC0220C9F80400AE
:100F10000AE06968F0EE4A0A91ED020A08F050F919
:100F20006168D6F8E2004860D9F80010022907D1BC
:100F3000D9F80400022803D188F800A0C7ED038A7D
:100F4000BDEC068BBDE8F09F9FED0E0A87ED030A0E
:100F5000C0F800A0C0F804A0F2E7000004090020D7
:100F6000AE47613EC3F5A83FF6289C3F8EA4002003
:100F7000EC51383E9A99993F0000A03F295C8F3F81
:100F8000CDCC0C3F7B14AE3EFEE7000002490020B2
:100F90000968C8637047000054140020024A1368AF
:100FA00098621068C163704754140020014802F031
:100FB0009AB8000050120020014802F094B80000D6
:100FC0007812002010B58AB000200124CDE9060473
:100FD0000894009001900290039005900490694657
:100FE0000D4801F069FF0C4802F047FB02210A4856
:100FF00001F0E8FE0E200990CDE90440694607485B
:1010000001F05AFF054802F038FB1021034801F0B7
:10101000D9FE0AB010BD0000501200207812002046
:10102000002070470020704710B500220449054891
:101030000BF0CCF9044903480BF0BBF9002010BDBC
:101040007C2B00209C1700207C23002010B501463B
:1010500003480BF0AEF902480BF084F9002010BDF4
:101060009C1700200020704710B50246FF20044C5A
:1010700003E012F8013B4340E05C491EF9D210BD89
:10108000DC20010830B50C4605000BD0022C09D934
:10109000611EFFF7E9FF291911F8011C884201D1EF
:1010A000012030BD002030BD10B502004FF6FF70AA
:1010B0000BD0064C491E08D312F8013B4340DBB26B
:1010C00034F8133083EA1020F4E710BDDC21010866
:1010D00030B50C46050011D0022C0FD9A11EFFF728
:1010E000E3FF2919C2B211F8023C9A4206D111F865
:1010F000011CB1EB102F01D1012030BD002030BD0B
:101100002DE9F04F04462DED048B89B000200090AE
:10111000019001F0A5F8EC4E02AF0DF1140886ED38
:10112000050A4FF07C5BDFF8A493DFF8A4A301F07D
:1011300097F8D6ED050AE74930EE600A10EE100A7E
:10114000884214DD9FEDE40A84ED090A9FEDE30A6D
:1011500084ED0A0A9FEDE20A84ED0B0A9FEDE10A95
:1011600084ED0C0A9FEDE00A84ED060A87E19FED0D
:10117000DF0A01F039F89FEDDE0A002584ED0C0A44
:1011800084ED090A84ED0A0A84ED0B0AF8E0FFF702
:1011900017FC9220FFF764FD062269461220FFF734
:1011A00041FDFFF705FC9DF801009DF800100002CD
:1011B00000B2084300EE100AD6ED030AB8EEC00AEA
:1011C00020EE200A84ED000A9DF803009DF802102D
:1011D000000200B2084300EE900A20EE000AB8EECA
:1011E000E01AD6ED030A21EE201A84ED011A9DF8CB
:1011F00005009DF80410000200B2084301EE900AB9
:1012000001EE010AF8EEE11A61EEA00AC4ED020A4D
:1012100000EEA00A0DF024FEB0EE408A94ED0C0A18
:1012200030EE080A84ED0C0AFFF7DAFB0822694663
:101230000020FFF7F7FCFFF7CBFB9DF800000F281D
:1012400040D19DF803009DF80210000200B208434F
:1012500000EE100AF8EEC00A96ED040A60EE800A6D
:10126000C4ED030A94ED091A71EE200AC4ED090ACF
:101270009DF805009DF80410000200B2084300EE3E
:10128000900AF8EEE00A60EE800AC4ED040A94EDDC
:101290000A1A71EE200AC4ED0A0A9DF807009DF8AB
:1012A0000610000200B2084300EE900AF8EEE00AD1
:1012B00020EE800A84ED050AD4ED0B0A30EE800A98
:1012C00084ED0B0A002D7CD0B4EEC98AF1EE10FA41
:1012D00001DDB0EE489AB4EEE88AF1EE10FA01D2E0
:1012E000F0EE488A0020424604EB800191ED030AAB
:1012F00007EB8001D1ED000AB4EEE00AF1EE10FA3E
:1013000001DD81ED000A02EB8001D1ED000AB4EEAF
:10131000E00AF1EE10FA01D281ED000A401CC0B2E1
:101320000328E1D339EE680A0020424686ED060A1A
:10133000494607EB8003D3ED000A02EB800393EDEF
:10134000001A01EB8003401C70EEC10AC0B20328F2
:10135000C3ED000AEDD310EE100A584514DC0868FE
:101360005246904210DC486890420DDCD9F80800E3
:10137000504509DC9FED5F0A00F036FF6D1CADB2F1
:10138000F0888542FFF403AFF288D4ED0C0A00EE3A
:10139000102A0020B8EE400A80EE801A84ED0C1A64
:1013A00000EE102A04EB8001401CB8EE400AD1ED9B
:1013B000090AC0B2032880EE801A81ED091AEFD322
:1013C00000E069E0FFF7FCFAA220FFF749FC0222E7
:1013D00069462220FFF726FCFFF7EAFA9DF8000095
:1013E0009DF80110C00040EA5110B0F5806F01DB9C
:1013F000A0F5006000EE100AB4EE001AF8EEC00A84
:10140000B3EE070A00EE810A84ED060AB088401C9C
:10141000B080B06958453FF78AAE94ED0C0ADFED15
:10142000360A30EE600AB0EEC00A10EE100A5845D7
:10143000F1DCD9F80020514648468A42EBDC42688C
:101440008A42E8DCD9F808005045E4DC94ED090A4A
:101450002A48B0EEC00A10EE101A8142DBDC94ED8F
:101460000A0AB0EEC00A10EE101A8142D3DC94EDE5
:101470000B0AB0EEC00A10EE101A8142CBDC94EDDC
:101480000C0ADFED1F0A80EE801A84ED081A09B0FD
:10149000BDEC048BBDE8F08FB0EE489AF0EE488AC0
:1014A0000020414604EB800292ED030A07EB800224
:1014B00082ED000A01EB8002401CC0B282ED000AFE
:1014C0000328EFD32EE70000A4010020FC950020A4
:1014D0009A99193E0000204158A3653A5BE555BB37
:1014E000C3BD3F3BE9FF1A41000020420AD7A33B9E
:1014F000000000006F12033ACDCC1C410AD7233CF8
:10150000C3F51C4100B589B040F212610091002181
:101510000222CDE90212049108AB06AA694601F045
:1015200063FC09B000BD70B586B000240294009140
:10153000CDE903421D4606468DF8144006E0641CC2
:10154000E4B2022C1CD801200EF00AFB304601F058
:10155000B4FD0028F3D001232A466946304601F045
:1015600043FC80B102232A466946304601F03CFC28
:1015700048B104232A466946304601F035FC10B1D3
:10158000012006B070BD0020FBE7000070B51446D6
:101590002DED028B82B0097800254FF4007601B35F
:1015A0004268012A2ED0002A7ED0816C0029FBD00F
:1015B000D0F88C10002977D0D0F8D000002873D054
:1015C00003218D4800F018FD04218B4800F014FD24
:1015D00005218A4800F010FD0621884800F00CFD26
:1015E000B5E00321844800F0CEFE0421824800F0DB
:1015F000CAFE0521814800F0C6FE06217F4800F0A2
:10160000C2FEA4E0826C012ACFD1D0F88C20012A3E
:10161000CED1D0F8D020012ACED19FED798A0129F0
:101620007DD0206890ED050ADFED768AF0EE680A3D
:1016300007F098FAB0EE402A1E22F0EE481AB0EEFB
:10164000481AF0EE480AB0EE480A03216A4807F04B
:10165000BDFA2068F0EE680A90ED040A07F082FAFD
:10166000B0EE402A1E22F0EE481AB0EE481AF0EE14
:10167000480AB0EE480A04215F4807F0A7FA6068FC
:10168000F0EE680A90ED040A07F06CFAB0EE402A1A
:101690001E22F0EE481AB0EE481AF0EE480AB0EEFC
:1016A000480A0521554800E041E007F08FFA6068DC
:1016B000F0EE680A90ED050A07F054FAB0EE402A01
:1016C0001E22F0EE481AB0EE481AF0EE480AB0EECC
:1016D000480A0621494807F079FA01200EF040FA3D
:1016E000206890ED030A9FED488AF0EE480A07F063
:1016F00039FABDEEC00A0095002210EE100A3146FC
:10170000019503B23C4800F056FE6068F0EE480ACE
:1017100090ED030A07F026FABDEEC00A00E02DE0C6
:1017200010EE100A0095002302B201951EE003217D
:10173000314800F0DDFE04212F4800F0D9FE0521DC
:101740002E4800F0D5FE06212C4800F0D1FE0120E5
:101750000EF006FA002300951A46314626480195F8
:1017600000F029FE002300951A46019531462348D2
:1017700000F021FE02B0BDEC028B70BD1E22B0EE67
:10178000482AF0EE481AB0EE481AF0EE480AB0EED9
:10179000480A0321184807F019FA1E22B0EE482A19
:1017A000F0EE481AB0EE481AF0EE480AB0EE480AD9
:1017B0000421114807F00AFA1E22B0EE482AF0EE82
:1017C000481AB0EE481AF0EE480AB0EE480A052171
:1017D0000A4807F0FBF91E22B0EE482AF0EE481A3C
:1017E000B0EE481AF0EE480AB0EE480A0621034867
:1017F00007F0ECF9ABE7000050120020781200204F
:10180000000000000000204200007A462DE9FF5F42
:101810000D462DED048B12A9924691E8D008994609
:101820005B4622465146284601F056F83878002794
:1018300000287DD001287BD054480078002877D03C
:10184000DFED538A9FED538A04F108089FED529A09
:10185000524901281AD0022869D1287900286DD070
:10186000484607F0B4FF2146284600F09DF85A4646
:10187000314604980CF058FA169A3146BDEC048BA8
:1018800004B02846BDE8F05F08F0FEBC287968B1D6
:10189000484607F09CFF2146284600F085F85B4645
:1018A00032465146049800F03BFCE5E708780228F0
:1018B00002D0032821D039E0484607F088FF9FED89
:1018C000380A2F7084ED030A94ED070ADFED350A1C
:1018D000B5EEC00AF1EE10FA0BD00120A870201D61
:1018E000B0EE680A08F058F884ED010A94ED070A92
:1018F0000AE0AF7094ED060A0AE023464A465146D4
:10190000284607F06FFF21E0F0EE480A404609E064
:10191000201D08F041F884ED010AF0EE480A404627
:10192000B0EE680A08F038F884ED020A377601E074
:101930001FE003E0BDEC048BBDE8FF9F087803289F
:10194000F4D12246494628460CF010FDA87858B13B
:10195000F0EE490A201DB0EE680A08F01DF884ED8B
:10196000010A94ED090ACFE794ED080AF0EE490A5E
:10197000CEE73776484607F02AFFBDEC048B04B06B
:1019800021462846BDE8F05F00F00EB8D0080020E0
:10199000000000000AD7A33BBC74933CD108002090
:1019A000AE47613E0AD7A33C9FED070A81ED010ACD
:1019B00081ED020A9FED050A81ED030A0021017005
:1019C000417081707047000000000000AE47613E2A
:1019D00010B560482DED048B0CF0F6F900231A4683
:1019E00019469FED5D8AF0EE484AB0EE484AF0EEA7
:1019F000483AB0EE483ADFED598AB0EE482AF0EEA8
:101A0000682A9FED579AB0EE481AF3EE0E0AF0EEF0
:101A1000491ADFED549A5448B0EE690A07F09BFE6C
:101A2000002351481A461946F0EE484AB0EE484A9B
:101A3000F0EE483AB0EE483AF0EE682AB0EE482AA6
:101A4000F0EE491AB0EE481AF3EE0E0AB0EE690A4B
:101A5000AE3007F080FE002302221946F0EE484A1D
:101A6000B0EE484AF0EE483AB0EE483AF1EE0C2AB1
:101A7000B0EE482ADFED3D8A9FED3D9ADFED3D9ABD
:101A8000F0EE681AB0EE481AF0EE490AB0EE690AB4
:101A9000394807F060FE3848002302221946F0EE6C
:101AA000484AB0EE484AF0EE483AB0EE483AF1EE15
:101AB0000C2AB0EE482AF0EE681AB0EE481AF0EEA2
:101AC000490AB0EE690AAE3007F045FE9FED2D0AD7
:101AD000254800231A460221F0EE484AB0EE484A53
:101AE000F0EE483AB0EE483ADFED242AB0EE482A4C
:101AF000DFED231AB0EE481AF0EE400AAE3807F0D8
:101B00002AFE9FED218ADFED228A01231A46F0EE9C
:101B1000480A1E49B0EE680A1E4800F00FFE1B4935
:101B20001C4801231A46F0EE480A0C31B0EE680A50
:101B3000903000F003FE154901203439164C8870AE
:101B400002E001200EF00CF820780028F9D0BDEC5E
:101B5000048B10BDB8A70020000000000000024365
:101B60000080BB450000344332A3002000000C433A
:101B7000000070420000A0428EA400206F12033BC0
:101B8000CDCC4C3FCDCCCC3DCDCC4C3D0C09002038
:101B900000002043EAA50020D20800202DE9F043F0
:101BA00085B03F4C3F4AA4F110033F493F480094A1
:101BB0000CF046F93B4AA4F11003A2F16401A1F133
:101BC000240009F069FA3749A4F10803A3F10802D7
:101BD00088393648FEF772FEDFF8C890DFF8D48007
:101BE000A9F12800CDE90008314FA4F110050297B2
:101BF000CDE90395A0F160012F4B304A2B48FFF748
:101C000005FE2F484B46A3F1280100903A46A1F16A
:101C1000600000F087FCA4F10806A9F17C012B46C6
:101C20003A46A1F10C00009600F016F94B46A3F1DC
:101C300028013A46A1F160000CF062FCA9F12801EC
:101C400033462A46A1F16000FFF7B4F8CDF80080D2
:101C5000CDE90364A9F12803CDE90175A3F154028C
:101C6000A2F10C01114806F001FB09F1C003CDE916
:101C70000264CDE90095A3F1E8013A46A1F16000C4
:101C800005F0A0FE22463146A9F188000CF0ACFA1E
:101C900005B032463946BDE8F0430348FFF776BC4D
:101CA000FC080020B8A1002018AD0020C497002037
:101CB000D1080020B0AC0020D8AE00206CAE0020CF
:101CC000ECA80020F0B5807B164B10F0FC0F4FF015
:101CD00000040BD114484FF002064FF00302408974
:101CE0004FF00105C70704D080070DD50C701C709C
:101CF000F0BD0E481D70807A022811D003280DD047
:101D00000128F5D10E70F0BD09481E70C079C0F3EE
:101D1000011028B1012801D00228F4D10A70F0BDC9
:101D20000D70F0BDD008002058AE00206CAE002031
:101D300084AB002010B5D0E900348268A34201D101
:101D4000521C04E0521E8260002A01DC00228260E4
:101D500043608A4203DB491E8160012010BD0020E0
:101D600010BD00002DE9F0410CF0C8FA114C124DE5
:101D7000124E134F02E001200DF0F2FE2078297878
:101D800008403178084039780842F4D04FF4FA60BE
:101D90000DF0E6FE0B4C04E007F01EFE01200DF0F6
:101DA000DFFE20780028F7D0074901208870BDE8C1
:101DB000F0810000BC080020DA080020240900207F
:101DC00029090020110B0020D00800202DE9F04146
:101DD0001F4D00270E4604466F606868282100EBFF
:101DE000001006EB80003830FFF7A4FF014668685A
:101DF0002218401C117168600328EEDD6F6068686E
:101E0000282100EB400006EBC00000F58E70FFF7C4
:101E100091FF014668682218401C91706860012893
:101E2000EDDDA078E178800000EBC100217900EBC6
:101E30000110617900EB4110A17900EB8110E1798B
:101E400000EBC110034949890843E081BDE8F081F6
:101E5000D008002058AE00202DE9F04105462DEDB8
:101E6000048B0C4601271078B1EE089ADFED478A03
:101E700000269FED478A0A9938B1012805D0E878F5
:101E800018B9287908B9687A10B12660666056E0FA
:101E90000868404BDFF804C190ED020A3E484FF05D
:101EA0007C5EB0EEC00A10EE102A90ED000A9A4255
:101EB000B0EEC00A07DB10EE102A724503DB226881
:101EC000521C226004E010EE102A624500DC2660FD
:101ED000496891ED020AB0EEC00A10EE101A99425C
:101EE0000BDB90ED120AB0EEC00A10EE101A71452D
:101EF00003DB6068401C606008E090ED120AB0EE01
:101F0000C00A10EE100A604500DC666020680228F6
:101F100015DBEF7194ED000AF3EE0C0AB8EEC00A7F
:101F200020EE090A06F01EFE84ED020A94ED000A76
:101F3000B8EEC00A20EE280A84ED040A04E0EE712F
:101F400084ED028A84ED048A6068022818DB2F720F
:101F500094ED010AF3EE0C0AB8EEC00A20EE090A6D
:101F600006F000FE84ED030A94ED010AB8EEC00A03
:101F700020EE280A84ED050ABDEC048BBDE8F08153
:101F80002E7284ED038A84ED058AF5E76F12033C17
:101F9000000000006666A640E8A100209A99193E5C
:101FA0000EB50E480B4A0C498DE807000C4B0D4A44
:101FB0000D490E4800F05EFD09480D491038FFF745
:101FC00005FF07480B491038FFF77CFEBDE80E40BF
:101FD0000CF0A0B9FC080020F4080020EC08002058
:101FE00014A100203CA1002030A10020C4970020B3
:101FF00018AD0020D10800201CB5FF228DF800206C
:102000008DF801208DF804208DF802208DF8052030
:102010008DF803208DF80620FB228DF807206B46F3
:102020000822FFF780FA1CBD014801F0D9BB00006F
:102030007C160020014801F0D3BB0000DC16002014
:10204000014801F0CDBB00004C130020014801F015
:10205000C7BB0000AC130020014801F0C1BB000069
:102060001C160020014801F0BBBB00003C170020FB
:10207000014801F0B5BB0000BC1500200168182321
:10208000CAB2103AB2FBF3F2054B6FF30901032A0F
:102090009B5CC36500D9091D816508467047000037
:1020A000EC1F010810B5014600208B698A6A4FF0C9
:1020B000C07453B1B3F5005F15D072B1012A0CD0D2
:1020C000022A0AD0032A09D104E01AB1012A06D053
:1020D000022A03D1C96AC90100D5012010BDC96A0D
:1020E000A142FAD010BD002AF7D0012AF2D0022A6C
:1020F000F3D0032AF3D010BD30B50468256825F469
:1021000080252560046863608368402B036803D0E2
:1021100099600068C26030BD9A600068C16030BDDF
:1021200070B58C8AE40504D4B1F9021011F5257F4D
:102130003DD1117E00293AD190ED1D0A1C4E01249B
:10214000B0EEC00A10EE105AB5420BDB90ED1C0A3F
:10215000B5EEC00AF1EE10FA01D8D48503E00220F2
:10216000D08500E0D1851868124B984204D8124BF4
:10217000984201DC918500E09485104890ED020AB8
:1021800082ED070A90ED140A82ED080A90ED020A2A
:1021900082ED090A90ED140A82ED0A0A116051607D
:1021A0009160D1601161516151769176147670BD64
:1021B0000000B442513A0BC0C023763FE8A1002092
:1021C000074808B5406800900146064802699142F8
:1021D00002D2C168491CC1600099016108BD0000BC
:1021E000001000E0600A00200A4841680A4AD2ED67
:1021F000000A4268521AF8EE601A01EE102AB8EE90
:10220000411A60EE211AB4EEE11AF1EE10FAF0D3A1
:1022100070470000001000E0600A002000B50E4981
:102220002DED028B81B0496800910168009A511A26
:1022300000EE101A0949F8EE400A91ED000A02601A
:10224000B8EE400A80EE808AFFF7BAFF01B0B0EE28
:10225000480ABDEC028B00BD001000E0600A0020BF
:1022600010B500F043F80C489FED0C1A818890EDF2
:10227000000A00EE901AC088B8EE400AF8EE600A34
:1022800000EE810A00EE900A9FED051AF8EE600A52
:1022900000EE810A10BD0000900A00206F12833A00
:1022A000BD3786350D490A6842F080720A600C49D4
:1022B00000224A600B6843F001030B6009494FF4A8
:1022C0007A734843B0FBF3F30749C1E90003054BB8
:1022D000B0FBF3F0C1E9020270470000FCED00E042
:1022E000001000E040420F00600A00202DE9F84392
:1022F000224840680090FFF763FF214C00270098B8
:10230000E1684FF0FF323D46E1FB0205C4E90E05EE
:10231000D4F80080064642463B462946FEF782F83E
:102320000246A2FB083CC4E9060101FB08C002FB0F
:102330000701F01A65EB0105C4E9080504F130084E
:102340000646C8F80020D4F8049000234A462946DF
:10235000FEF768F881B2A8F8041001FB09F1701AC1
:1023600065EB0705C4E90A0529460023A268FEF7C4
:1023700059F8A8F80600BDE8F8830000001000E056
:10238000600A002070471CB5FF228DF800208DF8F0
:1023900001208DF804208DF802208DF805208DF89D
:1023A00003208DF80620FD228DF807206B460822B9
:1023B000FFF7B9F81CBD7CB5160A8DF800608DF8E2
:1023C00001201A0ADDE906548DF802202A0A8DF848
:1023D00004208DF80550220A8DF806208DF8033070
:1023E0008DF807406B460822FFF79DF87CBD012061
:1023F00001F07CBB082001F079BB102001F076BB16
:10240000202001F073BBB6EE002A92ED020AB0EE76
:10241000421AD2ED030A00EE401AD0ED001AD0EDB8
:10242000013A00EEE01A21EE213A92ED011AD2EDC6
:10243000001A61EE002A41EEA02A61EE200A41EE68
:10244000C00A02EEA33A90ED020AF0EE002A00EE76
:10245000803A23EE220A81ED000AD2ED010AD2ED84
:10246000021A92ED001A92ED030A20EEA13AD0ED85
:10247000003A90ED014A01EE403A23EE233AF0EEA5
:10248000423A40EEE03A40EE403A21EE800A01EE58
:10249000200A03EE843AD0ED020A00EE203A23EE41
:1024A000220A81ED010AD2ED010AD2ED031A92ED62
:1024B000020A92ED001A20EEA13A60EE211AD0ED48
:1024C000003A00EEE02A01EE003A41EE601A90ED8B
:1024D000011A00EE402A23EE233A90ED020A01EEA3
:1024E000813A02EE003A23EE220A81ED020A704799
:1024F0001CB5FF228DF800208DF801208DF80420F6
:102500008DF802208DF805208DF803208DF8062027
:10251000FC228DF807206B460822FFF704F81CBD4B
:1025200072B6FEE72DE9F04193ED080A069E0446D7
:102530001D4686ED010A93ED0A0A1746884686ED88
:10254000000A06F11400FFF769FE314626480BF039
:102550005FFC96ED020A9FED251A85ED020A387898
:1025600023490023D8B301283AD0E078B8BB2079BA
:10257000A8BB607998BBA07988BBE07978BB207A4A
:1025800068BB607A58BBA07848BBD8ED010A1948EF
:10259000F0EEE00A10EE902A824221DA10EE902A44
:1025A000824206DCF0EEC00A10EE900A124A904217
:1025B00002DD0878002810D001200870F0EEC00A73
:1025C00010EE900A0D49884207DDD5ED010A9FED16
:1025D0000C1A40EE010AC5ED010ABDE8F081FFE7E3
:1025E0000B7085ED011AF8E7B8A700200000000085
:1025F000D8080020CDCCCC3DCDCC4C3E8FC2F53C94
:102600000AD7A33B10B504462DED028BB0EE408AED
:102610001830FFF703FE10EE100AE061216A00EEA9
:10262000100A00EE901AE26870EE800A00EE100ABE
:1026300020EE080A80EE201A00EE902A00EE101A12
:1026400060EE801A00EE901A00EE100A30EE800A5A
:10265000C1EE800A31EE200A10EE101AE160228EDF
:10266000022A0AD900EE100A00EE901A04F1320094
:1026700006F07CFB10EE100A0CE000EE101A216947
:1026800000EE901A30EE601A00EE100AC1EE000A59
:1026900010EE900A6062B4F85C000228606A0BD900
:1026A00000EE900AE06900EE100A04F15E0006F008
:1026B0005DFB10EE100A0DE000EE100AE06A00EE7D
:1026C000900AE06930EE601A00EE100AC1EE000ACE
:1026D00010EE900AA062206800EE100AE06800EE9A
:1026E000900A606820EE200A00EE900A606A01EE0F
:1026F000100AA06800EE810A00EE900AA06A01EEBE
:10270000100A00EE810A10EE100AC4F88800D4F80E
:102710008C1000EE100A01EE101AF1EE410A0DF0D5
:1027200092F910EE100AC4F88800E1682161616A2C
:10273000E16200EE100ABDEC028B10BD70B50446DC
:1027400010EE100A1E46C4F88C00002539B134B1D1
:1027500008682060486860608868A06004E02560C0
:102760006560A560C4F88C5010EE900A022A2062C1
:102770002286A4F85C6004D9114604F1320006F008
:10278000EFFB022E04D9314604F15E0006F0E8FBAF
:10279000A561C4F8885070BD30EEC01AB5EEC00A0D
:1027A0001E48F1EE10FA16DDF5EEC00AF1EE10FA51
:1027B00011D2DFED1B1A31EEC00A30EE200AF1EE25
:1027C000410A80ED010AB4EEE00A80ED021AF1EE52
:1027D00010FA1BD31DE0B5EEC00AF1EE10FA18D2C4
:1027E000F5EEC00AF1EE10FA13DDDFED0E1A31EE50
:1027F000C00A30EE200A80ED010AF1EE400A80EDB9
:10280000021AF4EEC10AF1EE10FA02D280ED030AC8
:1028100001E080ED031A90ED030A70473C0B0020A5
:10282000DB0FC940DB0FC9C0F0B51F4C20EE002AFA
:1028300020EEA01A4FF0000CA4F800C0A4F802C0CB
:10284000278807EB870600EBC605638803EB460283
:1028500002EB420201EBC202D2ED001AD2ED012AD4
:1028600042EE801AD2ED022A42EEA01AD2ED032ADD
:1028700042EE821AD2ED042A62EE802A42EEA01ABB
:10288000D2ED052A05EB83025B1C42EE811AC2EDF4
:10289000001A9AB26280092AD7D97F1CBAB2228064
:1028A000032ACBD9F0BD0000700800200288028105
:1028B0000A8852BA02804A8852BA42808A8852BA3A
:1028C000828089798171C168B1F57A7F01DB00214D
:1028D00000E0491CC16070472DE9F0410E462DED26
:1028E000028B07465649586A1446884206DC9FED1B
:1028F000550A84ED040AB2EE060A15E05049524A20
:10290000C9430144914206D89FED500A84ED040A60
:10291000B2EE020A08E04E49884207DDB7EE000A2F
:1029200084ED040AB1EE080A84ED050AB878DFEDFB
:10293000490A494DF0B3307D10F00C0F46D093EDAD
:10294000000ADFED460AFFF727FF85ED020AB6F918
:102950000200052105F0D4FD00EE100AB8EEC00A11
:10296000DFED3F0A80EE208A95ED020A0CF098FB1D
:1029700028EE000AD4ED040A06F0F4F884ED060A05
:10298000B6F90800052105F0BBFD00EE100A9FED29
:10299000351AF8EEC00A80EE810AD4ED050A06F079
:1029A000E1F8314884ED070A9FED300A007880B1E4
:1029B000012800E00AE00FD0022832D12C48B97873
:1029C000B0F8110061B141070CD42EE093ED000A7C
:1029D000B9E784ED080A22E0B8780028B08AF2D17D
:1029E000C10729D095ED020A0CF05AFBD4ED040A78
:1029F00020EE200A09E095ED020A0CF051FBD4ED1F
:102A0000040AB1EE601A20EE010A06F0ABF884ED7C
:102A1000080A94ED050AF0EE400A06F0A3F884EDEA
:102A2000090ABDEC028BBDE8F0810107E3D4C107C0
:102A3000E1D18007EBD5D5E78007E8D5DBE70000DB
:102A4000AE47613E33331340C2F528009A99D93F0F
:102A50007B14AE3EC023763FD8080020DE10224013
:102A600000007A4300007042D008002000000000FF
:102A700084AB00202DE9F05F82462DED048B1D46CE
:102A80001746C948DDE90E49406B109E00EE100A5A
:102A90008846DFEDC60A181D20EE200A83ED040AE1
:102AA000FFF7BCFB85ED000A2068D0ED010A90ED30
:102AB0000F1A70EEC10A80EE801A80ED0E1A60685F
:102AC00090ED010AD0ED0F0A30EE600AD5ED000A54
:102AD00080EE201A80ED0E1A206890ED010A80ED3C
:102AE0000F0A606890ED010A80ED0F0A306890EDE2
:102AF000090A2068D0ED110A30EE600AD5ED000A0F
:102B000080EE201A80ED101A706890ED090A606856
:102B1000D0ED110A30EE600AD5ED000A80EE201AE1
:102B200080ED101A306890ED090A206880ED110AD6
:102B3000706890ED090A606880ED110A206890EDD8
:102B4000000A0CF0CBFCD9F80000D0ED010A306887
:102B500020EE200AD0ED080A2068C0EE208A90ED11
:102B6000000A0CF09DFAD9F80000DFF844B290EDAD
:102B7000001ADBF8880000EE900A206871EE600A07
:102B800040EE808A90ED000A0CF08AFA20689AEDF7
:102B90000C8AD0ED100A00EEC08A90ED000A0CF00D
:102BA0009DFC3068F0EE009AD0ED090A206860EED6
:102BB000A90A90ED011A60EE810A00EE808A90ED7C
:102BC000000A0CF08BFC3068D0ED080A206890ED0C
:102BD0000E1A60EE810A00EE808A90ED000A0CF079
:102BE0005FFA306890ED081A2068D0ED010A21EEF6
:102BF000201A61EE200A00EE808A9FED6E9AB0EEF8
:102C0000680A283008EE090A05F0BBFF85ED020AC4
:102C1000606890ED000A0CF061FCD9F80400D0ED7A
:102C2000010A706820EE200AD0ED080A606880EE84
:102C3000208A90ED000A0CF033FAD9F8040090EDE8
:102C4000001ADBF8180100EE900A606871EE600A65
:102C500000EE808A90ED000A0CF022FA6068DAED4E
:102C60000C8AD0ED100A40EEC08A90ED000A0CF0FC
:102C700035FC7068D0ED090A606860EEA90A90ED35
:102C8000011A60EE810A40EE808A90ED000A0CF095
:102C900025FC7068D0ED080A606890ED0E1A60EEB1
:102CA000810A40EE808A90ED000A0CF0F9F9706814
:102CB00090ED081A6068D0ED010A283021EE201A44
:102CC00061EE200A40EE808AB0EE480A08EE890ADA
:102CD00005F057FF85ED030A95ED040AB5EEC00A2D
:102CE000F1EE10FAD5ED020A13DB30EEC00AD5ED95
:102CF000050A206830EE200AD7ED020A30EE600A9D
:102D000080ED090A95ED030AD5ED040A30EE600A5C
:102D100012E030EE800AD5ED050A206830EE200A78
:102D2000D7ED020A30EE600A80ED090A95ED030A3C
:102D3000D5ED040A30EE200AD5ED050A60681E4A7A
:102D400030EE200AD7ED030A002130EE600A80ED54
:102D5000090A2068436A0120934201DB287600E0DB
:102D6000297663685B6A934201DB687600E06976E6
:102D70002A7E012A08D16A7E012A05D198F804200A
:102D800012B998F800204AB19FED0C0A88F8031098
:102D900085ED050ABDEC048BBDE8F09F88F80300C3
:102DA0009FED070AF4E7000084A20020000016440B
:102DB000EAA500209A99193F0000DC4200000000BB
:102DC0000000204290F82020012A07D0022A05D0D6
:102DD000416A41F4802141620120704700684269E4
:102DE0000A43426100207047F0B590F82050046813
:102DF000A468012D05D0022D03D0416A41F4802141
:102E000057E014F0406F01D1E5004FD5C4F30164E1
:102E10000125A5401D608B684FF4C0759BB1CE683D
:102E200033434E6843EAC603066805EB0417F351C3
:102E30004FF4C273076803EB04130E69FE50097D5B
:102E4000012905D009E00E88CB6843EA4653EBE739
:102E50000168CE5846F48076CE501179D3795679F0
:102E600041EA036193791B0443EA062319434FF4B3
:102E7000C676036806EB041699511178D37841EAB7
:102E80000361937852781B0443EA022211434FF402
:102E9000C473026803EB0413D150006805EB0411FE
:102EA000425842F0010242500020F0BD416A41F414
:102EB000001141620120F0BD10B590F82020012AD8
:102EC00007D0022A05D0416A41F4802141620120E5
:102ED00010BD3B48D0F8002242F00102C0F80022A9
:102EE000D0F8002222F47C52C0F80022D0F8002250
:102EF0004B6A42EA0322C0F800220A7D02F01F0357
:102F000001229A40D0F81C329343C0F81C32CB699E
:102F1000B3B9D0F80C329343C0F80C328C894B68AB
:102F200064F31F434C6900EBC404C4F840320C89BD
:102F30000B6864F31F434C6900EBC404C4F84432CB
:102F4000CB69012B16D1D0F80C321343C0F80C32E8
:102F50000C884B6864F31F434C6900EBC404C4F84D
:102F600040320C89CB6864F31F434C6900EBC40406
:102F7000C4F844328B69002BD0F804320ED01343CE
:102F8000C0F804320B69002BD0F8143208D0134378
:102F9000C0F81432096A012904D008E09343EFE72E
:102FA0009343F5E7D0F81C121143C0F81C12D0F877
:102FB000001221F00101C0F80012002010BD000035
:102FC00000640040704770B590F82040012C05D097
:102FD000022C03D0416A41F4802128E0046809B33F
:102FE0002469A40720D04FF4D874056804EB0114B9
:102FF0002D5915F00405956005682D591AD0ED0876
:10300000556005682C5904F00204D4604FF4DA745A
:10301000056804EB01142E5906F00F06082E0CD398
:1030200008250DE0E468DCE7416A41F400114162E3
:10303000012070BD6D0D1560E3E72D5905F00F05FA
:10304000156105682D59C5F30725956105682C594B
:10305000240C54614FF4DC72046802EB0112A45892
:103060001C700468A458240A5C700468A458240CDA
:103070009C700468A258120EDA704FF4DE72046875
:1030800002EB0112A4581C710468A458240A5C7154
:103090000468A458240C9C710468A258120EDA71BA
:1030A000006829B1016941F020010161002070BD73
:1030B000C16841F02001C160F8E70246002092F8A3
:1030C0002010012901D002290CD111688A6852010F
:1030D00000D501208A68120100D5401C8968C9000A
:1030E00000D5401C70472DE9F05F054600680024BC
:1030F0004669D0F804908768D0F80CB0D0F810A0DA
:10310000D0F81880F10748D0F90714D00121816068
:10311000B80703D5284600F0DCFA0CE0780702D5A2
:103120004FF4006407E0380702D54FF4805402E002
:10313000284600F0CDFAF80516D529684FF48070BE
:103140008860B80503D5284600F0C5FA0CE078057C
:1031500002D544F4005407E0380502D544F4804415
:1031600002E0284600F0B6FAF80316D529684FF4B5
:1031700080308860B80303D5284600F0AEFA0CE032
:10318000780302D544F4004407E0380302D544F440
:10319000803402E0284600F09FFA300707D55FEA46
:1031A000CB6004D52968102044F40074C86070070F
:1031B0004FF0080707D55FEA0B7004D52868C76091
:1031C000284600F097F9B00706D52868C068800740
:1031D00002D0284600F090F9700607D55FEACA6071
:1031E00004D52968102044F480640861B00607D52E
:1031F0005FEA0A7004D528680761284600F00EFAD5
:10320000F00606D528680069800702D0284600F03D
:1032100007FAB00308D55FEAC96005D52968102010
:103220004860284600F028FAF00307D55FEA0970E5
:1032300004D528684760284600F050FA300446D587
:103240005FEA497040D5F00504D55FEAC87001D047
:1032500044F00104B00504D55FEA887001D544F05C
:103260000204700504D55FEA487001D544F00404F7
:10327000300529D518F0700F26D008F070004028CE
:1032800015D006DC102809D020280AD0302816D105
:103290000AE050280ED0602811D10EE044F0080456
:1032A0000DE044F010040AE044F0200407E044F08C
:1032B000400404E044F0800401E044F48074286891
:1032C000816921F070018161296804204860002C27
:1032D00005D0686A204368622846FFF773FEBDE8A0
:1032E000F09F70B5040003D094F8200010B104E002
:1032F000012070BD204600F081F82068016841F08F
:103300000101016000F0ECFC0546052604E000F038
:10331000E7FC401B0A2811D820684068C007F6D097
:103320002068016821F00201016000F0D9FC054627
:103330000BE000F0D5FC401B0A2806D9606A40F477
:103340000030606284F82060D2E72068406880071F
:10335000EFD4207E0128206801683DD021F0800153
:103360000160607E01282068016838D021F04001AA
:103370000160A07E01282068016833D021F020017F
:103380000160E07E0128206801682ED041F0100124
:103390000160207F01282068016829D021F0080100
:1033A0000160607F01282068016824D021F00401B9
:1033B0000160D4E902010843D4E90412114308432F
:1033C0006168491E08432168C861002060620120CD
:1033D00084F82000002070BD41F08001C0E741F07A
:1033E0004001C5E741F02001CAE721F01001CFE715
:1033F00041F00801D4E741F00401D9E7F0B587B006
:10340000044614216846FDF725F93549354ADFF8A9
:10341000CCE00868D4F800C0324B0324022509260A
:1034200010320027401CF44521D10860012807D143
:10343000106840F000701060106800F00070059097
:10344000186840F00800186018688DE8B00000F0B7
:103450000800CDE9046069460394234800F052FB5C
:1034600000220521142000F0E7FD142031E0DFF8F0
:103470007CE0F4452FD1D2F800C04CF0806CC2F84B
:1034800000C0D2F800C001280CF0806CCDF814C048
:10349000086007D1106840F000701060106800F0FC
:1034A00000700590186840F00200186018686946BE
:1034B00000F00200059060208DE8A100CDE90346F0
:1034C0000B4800F01FFB00220521412000F0B4FD55
:1034D000412000F0A3FD07B0F0BD000000640040F3
:1034E0001800002030380240000C02400068004004
:1034F000000402407047000010B5424B424A0021D0
:10350000FFF761FD0028FDD13F48404B3D49006871
:103510003F4AB0F5907F44D018DC10285DD01128C8
:1035200060D080282ED0B0F5807F0ED1087800B111
:1035300001201072487800B101205072488840BACA
:103540001060888840BAA3F8110010BDA0F5007083
:1035500002384FD02F4AA0F580600E380BD00228D9
:10356000F3D1088840BAD082488840BA508288880F
:1035700040BA908210BD088840BA1081488840BA8D
:10358000508110BD088842BA234842804A8852BA06
:1035900002818A8852BA82828A798272C979C1721A
:1035A00010BD088840BA5081488840BA00EE100A21
:1035B000B8EE400A82ED030A888840BA00B200EEF5
:1035C000100AB8EEC00A82ED010A88791061C97943
:1035D000D87961F30510D87110BD0B481E22094936
:1035E000383003E008481E2206497C30BDE8104010
:1035F00006F00EBA0648BDE8104002493038FFF721
:1036000055B900002C0B0020E0AC002084AB00205A
:1036100058AE002090AC00206CAE00207047000037
:1036200010B5124B124A0121FFF7CDFC0028FDD145
:103630000F48006812280BD013280ED0A0F5007098
:10364000013812D1BDE8104008490A48FFF72EB9E9
:1036500008481E220549A03803E006481E220349F7
:103660005C38BDE8104006F0D3B910BD340B002023
:10367000FCAC002040AE0020704770B5044690F8C6
:103680002000012804D0606A40F40020606217E046
:10369000022084F820002068016821F00101016007
:1036A00000F01EFB05460DE000F01AFB401B0A2847
:1036B00008D9606A40F400306062052084F8200078
:1036C000012070BD20684068C007EDD1606270BD08
:1036D000704770477047704770477047704710B524
:1036E000040002D0607910B106E0012010BD002076
:1036F0002071204600F004F801206071002010BD08
:1037000008B500680649884208D10648016841F4B6
:1037100080510160006800F48050009008BD0000F6
:1037200000300240303802402DE9F0410446876DF8
:1037300000F0D6FA054694F835000026022806D097
:103740008020606584F834600120BDE8F081206845
:10375000016821F0160101602068416921F08001B3
:103760004161206C08B9A06C20B12068016821F08B
:10377000080101602068016821F0010101600CE08E
:1037800000F0AEFA401B052807D920206065032011
:1037900084F8350084F83460D7E720680068C007F3
:1037A000EED194F85C103F208840B860012084F886
:1037B000350084F834600020C7E790F835100229FE
:1037C00003D08021416501207047052180F8351024
:1037D0000068016821F001010160002070470000CD
:1037E0002DE9F84304464FF00009CDF800906348F6
:1037F0004FF41651A56D0068B0FBF1F72E6894F8F0
:103800005C20082101FA02F030420FD020680268E3
:1038100052070BD5026822F00402026094F85C00A3
:103820008140A960606D40F00100606594F85C1013
:103830004FF0010808FA01F0304208D021684969C8
:10384000090604D5A860606D40F00200606594F838
:103850005C1004208840304208D02168096889073C
:1038600004D5A860606D40F00400606594F85C10B9
:1038700010208840304218D021680968090714D503
:10388000A86020680168490304D50068000308D5D2
:10389000A16C07E00168C90503D4016821F00801A3
:1038A0000160216C09B12046884794F85C10202003
:1038B0008840304231D021680968C9062DD5A860FA
:1038C00094F8350005282068016806D0490347D5DB
:1038D000006800031DD4616C1CE021F0160101603A
:1038E0002068416921F080014161206C08B9A06C19
:1038F00020B12068016821F00801016094F85C1093
:103900003F208840A86084F8358084F83490216D89
:103910001FE0E16B09B120468847606D00282BD07D
:10392000606DC00714D0052084F835002068016858
:1039300021F0010101600098401C0090B84203D8BA
:1039400020680068C007F6D184F8358084F8349088
:10395000E16C002910D001B02046BDE8F0430847D3
:103960000168C905D5D4016821F01001016084F80F
:10397000358084F83490CCE7BDE8F88394000020CB
:103980002DE9F041044600F0ABF905465CB1022098
:1039900084F83500002684F834602068016821F03E
:1039A000010101600DE00120BDE8F08100F098F90F
:1039B000401B052805D920206065032084F83500C8
:1039C000F2E720680068C007F0D121680A68204843
:1039D0000240D4E901031843D4E903352B431843CB
:1039E00063691843A3691843E3691843236A1843BA
:1039F0001043626A042A03D1D4E90B231A4310430B
:103A0000086020684069656A20F0070128460D4378
:103A1000012704280CD1A06A0543E06A40B1204682
:103A2000FEF740FB20B14020606584F83570BAE7AE
:103A3000206845612046FEF721FB94F85C203F2179
:103A400091408160666584F835700020ACE7000025
:103A50003F8010F02DE9F0410446866D90F8340067
:103A6000002501280DD0012084F8340094F8357029
:103A70000020012F07D084F8340002252846BDE835
:103A8000F0810220FBE7022784F83570606520464C
:103A9000FEF732FB94F85C103F208840B06020684D
:103AA000016841F016010160206C20B120680168B6
:103AB00041F0080101602068016841F001010160E6
:103AC000DCE7000070B5044600F00AF90546601C0A
:103AD00002D004480078044400F002F9401BA042E0
:103AE000FAD370BD8800002070470000044910B56B
:103AF0000A68024202D00860FFF7F6FF10BD00001E
:103B0000143C01402DE9F84FDFF89C910022A9F107
:103B1000040B03274FF00F0C09F1040AABF1040E5C
:103B200001250B6895402B40AB426ED10C7904F017
:103B30000304012C01D0022C15D18668540007FA29
:103B400004F826EA0806D1F80C8008FA04F848EAD6
:103B50000608C0F808804468AC430D79C5F3001529
:103B60009540254345600C79E443A40708D0C56817
:103B7000540007FA04F6B5438E68A6402E43C6608B
:103B80000C7904F00304022C11D1D40800EB840654
:103B9000356A5407E40E0CFA04F825EA0805D1F852
:103BA000108008FA04F848EA0508C6F8208005687D
:103BB000540007FA04F6B5430E7906F00306A64052
:103BC0002E4306604C6814F4403F66D0374C25689D
:103BD00045F480452560246822F0030504F4804400
:103BE0000094334C05EB0408D8F808589407260FC6
:103BF0000CFA06F4A5432F4CA04201D1002424E086
:103C00002D4CA04202D101241FE046E02B4CA042E3
:103C100001D1022419E02A4CA04201D1032414E06E
:103C2000284CA04201D104240FE0274CA04201D12E
:103C300005240AE0254CA04201D1062405E0244CCD
:103C4000A04201D1072400E00824B4402C43C8F866
:103C50000848D9F800404D464E689C43F60200D50E
:103C60001C432C60DAF8004055464E689C43B6026F
:103C700000D51C432C60DBF800405D464E689C4339
:103C8000B60300D51C432C60DEF8004075464E6834
:103C90009C43F60300D51C432C60521C102AFFF4F1
:103CA0003FAFBDE8F88F0000083C014044380240B7
:103CB00000300140000002400004024000080240C1
:103CC000000C0240001002400014024000180240A4
:103CD000001C02400AB1816170470904FBE7000043
:103CE00001488068704700008800002070B504001B
:103CF00025D094F83D00002520B984F83C5020469A
:103D000000F0B8F8242084F83D002068016821F014
:103D1000010101602068016841F4004101602068F0
:103D2000016821F40041016000F08CFF4D4B616897
:103D3000994201D84C4900E04C49884201D2012007
:103D400070BD4B492268B0FBF1F1566826F03F0682
:103D50000E43566062689A4206D94FF496725143F8
:103D60004FF47A72B1FBF2F12268491C166A26F010
:103D70003F06314311626168994210D84900401EE4
:103D8000B0FBF1F2521CC2F30B02042A01D2042050
:103D900022E0B0FBF1F0401CC0F30B001CE0A26875
:103DA000F2B301EBC10303EB0116431EB3FBF6F3C1
:103DB0005B1C43F480431B0549D092B301EBC10265
:103DC00002EB0111401EB0FBF1F0401CC0F30B00F0
:103DD00040F4804040F400402168CA694CF6FF730B
:103DE0009A431043C861D4E9071001432068026870
:103DF00022F0C00211430160D4E9030101432068AD
:103E0000826848F2FF339A4311438160D4E9051078
:103E100001432068C26822F0FF021143C16001E043
:103E20000EE016E02068016841F0010101602564A0
:103E3000202084F83D00256384F83E50002070BDAA
:103E400001EB4106431EB3FBF6F35B1CB3E7012015
:103E5000C2E701EB4101401EB0FBF1F0401CC0F392
:103E60000B00B7E7A086010080841E0000093D001A
:103E700040420F00F0B587B0044614216846FCF7B5
:103E8000E9FB1D492068884233D11C4800250168A0
:103E900041F004010160016801F00401059101682D
:103EA00041F0010101600068122600F00100059058
:103EB0004FF40070CDE90006032704240295CDE9F4
:103EC000037469460E48FFF71DFEA001CDE9000608
:103ED0000295CDE9037469460A48FFF713FE0748C7
:103EE0001030016841F400010160006800F4000036
:103EF000059007B0F0BD0000005C00403038024083
:103F00000008024000000240024881680278114423
:103F100081607047880000200B4810B5016841F4AB
:103F200000710160016841F480610160016841F441
:103F300080710160032000F09FF80F2000F006F868
:103F400000F050F8002010BD003C024030B505469E
:103F5000204887B00024016841F001010160006839
:103F600006A900F001000590684600F045FE0398A0
:103F7000B0B100F067FE400017494FF08042B0FB3F
:103F8000F1F11648491E026040F2E732C0E903240D
:103F9000C0E90114846101F06DFA040003D015E05A
:103FA00000F050FEE8E70D4801F008FB04000DD1D9
:103FB0001C2000F033F8102D07D2002229461C20C7
:103FC00000F03AF80648056000E0012407B02046FA
:103FD00030BD00004038024040420F007C330020DA
:103FE0008C0000200C4882B0016841F480410160DF
:103FF000006800F4804000900748001F016841F00D
:10400000805101600068002200F0805000900F2174
:10401000901E02B000F010B844380240002809DBBE
:1040200000F01F02012191404009800000F1E020D2
:10403000C0F8001170470000F0B40E4B1B68C3F3CA
:104040000223C3F10704042C00D904241D1D072DED
:1040500001D2002300E0DB1E012606FA04F56D1EE6
:104060000D409D409E40761E164045EA0601F0BC7C
:104070000AF0C1BA0CED00E0064A00F00701106832
:104080004FF6FF03184040EA01200349084310603F
:10409000704700000CED00E00000FA057047006872
:1040A000416200207047F0B50368586A39B19C6AD4
:1040B0004FF4827500EB144400204E1E0AE040EAE3
:1040C000024098620FE005EB8007DF59401C04EBCB
:1040D0001744C0B2B042F6D344EA02404FF48072B3
:1040E00002EB810158500020F0BDD0F8E00408F048
:1040F00058BC01EBC10200EB8202D0F8E004126A66
:1041000008F0A9BB01EBC10200EB8202D0F8E00489
:10411000D2F8602208F0FBBBD0F8E00408F043BC02
:104120000A0601F00F0101EBC10100EB810101D58D
:10413000143101E001F51571006809F027BB70B575
:1041400004460B0601F00F0000EBC00104EB8101F7
:104150004FF001024FF0000502D54A75143103E01B
:1041600081F8555201F51571087094F894040128EE
:1041700008D084F89424206809F026F884F8945430
:10418000002070BD022070BD70B5044601F00F0024
:104190002279904201D9012070BD0B0601F00F0178
:1041A00001EBC10104EB81014FF001024FF000056A
:1041B00002D54A75143103E081F8555201F51571A5
:1041C0008D70087094F89404012808D084F8942421
:1041D000206809F067F984F89454002070BD02202B
:1041E00070BD01F00F0101EBC10100EB8100D0F8BF
:1041F000680270472DE9F04104460F0601F00F00F8
:1042000000EBC00104EB81014FF001064FF0000507
:1042100002D54E75143103E081F8555201F5157140
:10422000C2F30A0208708A600B714A7802B14883AF
:10423000022B00D14D7194F89404012809D084F820
:104240009464206808F00EFF284684F89454BDE872
:10425000F0810220FBE710B501F00F0404EBC4016C
:1042600000EB8101C1E998230023C1F8683281F88D
:10427000553281F85442837901F51571012B00D133
:10428000CA618279006809F065F9002010BD70B537
:1042900004460D4601F00F002179884201D9012022
:1042A00070BD29064FF000064FF0010206D500EB65
:1042B000C00104EB81014A75143107E005EBC5012B
:1042C00004EB810181F8556201F515718A7008705F
:1042D00094F89404012807D084F89424206809F005
:1042E0000DF9280702D007E0022070BDA17904F281
:1042F0009C42206809F0AAF884F89464002070BDFC
:1043000010B501F00F0404EBC40100EB8101C1E919
:10431000082300238B6201234B7501F8144F837926
:10432000012B00D1CA618279006809F013F90020DD
:1043300010BD00002DE9F84F05680446284609F035
:10434000C0FA00287DD1206809F0E7FA002878D06B
:10435000D5F80808C0F30D20C4F8D404206809F08B
:10436000DCFA800704D52068416901F0020141614F
:10437000206809F0D2FAC10604F29C40009034D5BE
:104380002068816921F0100181612F6A07F00F0018
:1043900000EBC00004EB8006C7F3434006F515763A
:1043A000022802D0062811D01AE047F6F070074222
:1043B00016D0C7F30A1217462846F16809F0B1FA79
:1043C000F0683844F0607069384408E008222846F4
:1043D000009909F0A6FA7069C7F30A1108447061E0
:1043E0002068816941F010018161206809F095FA27
:1043F00000034FF0010B7AD50026206809F06CFA13
:104400008046DFF878A46FE05FEAC87069D0F1B247
:10441000206809F07AFA0746C00707D005EB461175
:10442000C1F808BB3146204604F018FE380722D5F3
:1044300005EB46110820C1F8080B2068D0F8409021
:1044400000E018E200EB4610D0F8082BD14505D962
:10445000110403D54FF40041C0F8081B204600F0BA
:10446000F0FAD14507D9A079012804D120680121AB
:10447000009A08F0EBFFF80604D505EB4611102072
:10448000C1F8080BB8071DD56869000605D5D5F831
:10449000040840F48061C5F8041806EBC60004EB7C
:1044A000800090F8571200F51570012905D1002100
:1044B000C170F1B2204600F0E7F905EB4611022089
:1044C000C1F8080BB80604D505EB46102021C0F84A
:1044D000081BB80405D505EB46104FF40051C0F891
:1044E000081B4FEA5808761CB8F1000F8CD12068E1
:1044F00009F013FA40036DD5206809F0E6F980460B
:10450000002664E05FEAC8705ED0F1B2206809F06E
:10451000EAF90746C00723D006F00F010BFA01F0B5
:10452000D5F834188143C5F8341805EB4610C0F8A7
:1045300008B9A07901280FD106EBC60004EB800072
:10454000D0E907211144016236B9606A20B92068B8
:104550000121009A08F07AFFF1B22046FFF7C9FD69
:10456000380704D505EB46110820C1F80809F806FC
:1045700004D505EB46111020C1F80809780604D5CA
:1045800005EB46104021C0F80819B80716D531468A
:10459000284609F06BF906EBC60004EB8000C17DEC
:1045A0001430012905D10021C170F1B2204600F07C
:1045B00067F905EB46110220C1F80809380603D552
:1045C0003146204604F0B0FD4FEA5808761CB8F199
:1045D000000F97D1206809F0A0F9002811DAD5F86A
:1045E000040820F00101C5F8041894F8CC0401284F
:1045F0002BD0204600F00AFA2068416901F0004102
:104600004161206809F089F900050BD5D5F8080843
:10461000C00702D0204600F03DFA2068416901F44D
:1046200000614161206809F078F9C00467D5D5F8C8
:10463000040820F00101C5F804181021206809F0D1
:1046400015F900214FF67F3220E0002084F8CC04D9
:1046500001462046FFF722FDCEE705EB4110C0F8EA
:104660000829D0F8003923F40013C0F80039C0F845
:10467000082BD0F8003B23F40013C0F8003BD0F81F
:10468000003B43F00063C0F8003B491C207988429E
:10469000E3D8D5F81C0840F00111C5F81C18E07BE0
:1046A000002828460DD0D0F8840840F00B01C5F84A
:1046B0008418D5F8440840F00B012846C5F8441882
:1046C0000DE0D0F8140842F22B010843C5F8140895
:1046D000D5F8100840F00B012846C5F81018D0F89E
:1046E000000820F4FE61C5F80018A1792068009A3E
:1046F00008F0ACFE2068416901F4805141612068F6
:1047000009F00BF9800415D5206808F0EBFC20684F
:1047100009F0CAF8E07100F08FFA0146E2792068EA
:1047200009F05EF9204600F05BF92068416901F468
:1047300000514161206809F0F0F8000707D52046D4
:1047400000F068F92068416901F0080141612068C2
:1047500009F0E3F8000615D5A86920F08001A961E9
:1047600001260CE006EBC60004EB800090F857022F
:10477000012803D1F1B22046FFF7D2FC761C207944
:10478000B042EFD8206809F0C8F8C0021FD5012652
:104790005F4614E005EB4610D0F8001906EBC600A2
:1047A00004EB8000027E012A08D1002906DAC775D1
:1047B000F0B240F080012046FFF7B2FC761C207971
:1047C000B042E7D82068416901F480114161206856
:1047D00009F0A3F8800231D501205B4626E005EB05
:1047E0004011D1F8001B00EBC00204EB820292F8EA
:1047F0005862012E19D1002917DA94F8D464C1F354
:10480000004106F001068E420FD182F85732A969A5
:1048100041F08002AA616969090606D4D5F8040846
:1048200040F40070C5F8040803E0401C217981427F
:10483000D5D82068416901F400114161206809F070
:104840006CF8400007D52046FFF74FFC206841690F
:1048500001F080414161206809F05FF840070AD506
:1048600020684568680702D52046FFF755FC206898
:10487000416829434160BDE8F88F00000A30544F79
:10488000D0F8E00408F0E1B8D0F8E00408F0F1B89E
:10489000F8B5040005D094F895042668002510B1F9
:1048A00006E00120F8BD84F89454204600F056F844
:1048B000032084F89504B6F1A04F00D1A5712068BB
:1048C00008F0BEFD207C8DF8000094E80F0008F091
:1048D00017FC0226B0BB0021206809F041F888BB14
:1048E000002101270CE001EBC10004EB80004775BB
:1048F0000175C1850576C5610562491CC9B245626D
:1049000020798842EFD8002111E001EBC10004EBCF
:10491000800080F8555280F8541280F85852C0F840
:104920005C52C0F86052491CC9B2C0F86452207988
:104930008842EAD8207C8DF8000094E80F0008F047
:10494000C7FC10B184F89564ABE7657484F895747E
:10495000206808F0AFFC0020F8BD000010B586B05C
:10496000044614216846FBF775FE2068B0F1A04F9D
:104970002FD119480021026842F00102026000684C
:1049800000F0010005904FF4C05000900220CDE9E6
:104990000101032003900A20049069460F48FFF7A5
:1049A000B1F80D48001D016841F0800101600A481E
:1049B0001430016841F4804101600068002200F475
:1049C0008040059005214320FFF736FB4320FFF789
:1049D00025FB06B010BD0000303802400000024048
:1049E00070B50446C079012570B1022801D0FDF7E9
:1049F00097FD2946D4F8E00408F0AAF8D4F8E004BA
:104A0000BDE8704008F05EB80025F2E7D0F8E00499
:104A100008F087B8D0F8E00408F08DB810B5044667
:104A200090F8940401280AD0012084F89404617459
:104A3000206808F0C3FF002084F8940410BD022011
:104A400010BDD0F8E02400F29C41104608F08CB86C
:104A500010B50446006894F89414012909D0012186
:104A600084F89414C168490609D5617B012902D0F4
:104A700005E0022010BD816B41F480318163206824
:104A800008F0D2FE206808F007FC002084F89404A7
:104A900010BD000010B50446D0F8E00408F0A6F8F8
:104AA0002068D0F8001E41F00101C0F8001EE07A35
:104AB000002804D00248016841F00601016010BDE1
:104AC00010ED00E02DE9F0470D46040065D0DFF859
:104AD0001491D9F80000EFB200F00700A84207D205
:104AE00089F80070D9F8000000F00700A84254D1FE
:104AF00020683D4E810712D5400703D5306840F449
:104B0000E05030602078000703D5306840F4604002
:104B100030603068A16820F0F000084330602078F1
:104B2000C0072DD0304960680839012812D002280A
:104B300013D0032811D00968890700292DDA3168BC
:104B400021F0030101433160FFF7CAF8804641F2CA
:104B5000883A0EE009688903EFE709688901ECE704
:104B6000FFF7BEF8A0EB0801514502D90320BDE8CC
:104B7000F0873068616800F00C00B0EB810FEFD176
:104B8000D9F80010484601F00701A94207D907707B
:104B9000006800F00700A84201D00120E7E7207874
:104BA000400705D53068E16820F4E05008433060E4
:104BB0002078000706D53068216920F4604040EA7B
:104BC000C100306000F05EF83168084AC1F303119B
:104BD000515CC8400649086006480068FFF7B6F90E
:104BE0000020C4E7003C024008380240F41F0108DE
:104BF000940000208C0000200F2202600C4A1368F1
:104C000003F003034360136803F0F0038360136849
:104C100003F4E053C36012684FF4E05303EAD20296
:104C200002610448006800F0070008607047000057
:104C300008380240003C024001480068704700000C
:104C4000940000200448054900680968044AC1F33B
:104C50008221515CC840704794000020083802400F
:104C6000042001080448054900680968044AC1F3A2
:104C70004231515CC840704794000020083802401F
:104C800004200108154810B5006810F00C01144804
:104C900013D0144B04290FD008290ED10F4C241F18
:104CA000216801F03F022168490207D52068C0F35E
:104CB0008810A0FB030106E0184610BD2168C1F36F
:104CC0008811A1FB00010023FBF7ACFB2168C1F3B5
:104CD0000141491C4900B0FBF1F010BD0838024009
:104CE0000024F400001BB7002DE9F84F040075D034
:104CF0002078DFF838A3C007AAF1040548D00AF1EC
:104D000004000168C1F38101012908D00068C0F3E3
:104D1000810002280AD1DAF80000400206D528688E
:104D2000800335D560680028E1D031E06068B0F5D7
:104D3000803F10D0B0F5A02F286810D020F480302C
:104D40002860286820F4802028606068A0B1FEF701
:104D5000C7FF06460CE0286840F48030F4E740F4D2
:104D600080202860F7E7FEF7BBFF801B642871D81E
:104D700028688003F7D50BE0FEF7B2FF064604E093
:104D8000FEF7AEFF801B6428F1D828688003F7D4B3
:104D90002078DFF89C9280074FF0000B3DD5A348A8
:104DA000001D016811F00C0F08D00068C0F38100ED
:104DB00002280AD1DAF80000400206D428688007E9
:104DC00015D5E068012809D111E0E068B8B10120EB
:104DD000C9F80000FEF784FF064605E022E1FEF771
:104DE0007FFF801B0228C2D828688007F7D5286873
:104DF000216920F0F80040EAC10028600DE0C9F800
:104E000000B0FEF76DFF064604E0FEF769FF801B69
:104E100002281FD828688007F7D42078000722D5F9
:104E2000824F84486169703771B101210160FEF7DA
:104E300057FF064604E0FEF753FF801B022809D8FF
:104E400038688007F7D50EE0C0F800B0FEF748FFDD
:104E5000064605E082E0FEF743FF801B02287DD86E
:104E600038688007F7D42078400765D56F484FF041
:104E700000083C300068C0000BD46C483C3001682E
:104E800041F08051016000684FF0010800F080504F
:104E90000090694F3868C0050FD4386840F48070BE
:104EA0003860FEF71DFF064604E0FEF719FF801B81
:104EB000022853D83868C005F7D55C4FA0686C3716
:104EC00001280FD00528386810D020F00100386084
:104ED000386820F004003860A068B0B1FEF700FF29
:104EE00006460EE0386840F00100F4E740F00400A8
:104EF0003860F7E7FEF7F4FE811B41F2883081420B
:104F000063D838688007F5D50DE0FEF7E9FE064660
:104F100006E0FEF7E5FE811B41F28830814254D85D
:104F200038688007F5D4B8F1000F05D03F483C3011
:104F3000016821F080510160A069B8B33B49091DA7
:104F40000968C1F38101022946D00228584606D0DB
:104F5000C9F86000FEF7C4FE044639E035E04F466C
:104F6000C9F86000FEF7BCFE064604E0FEF7B8FE96
:104F7000801B022829D828688001F7D4D4E90701CA
:104F80000843A16A2D4A490802EB0141626A41EADD
:104F90008211084394F82C1040EA0161CAF800100D
:104FA00001203866FEF79CFE044605E03CE0FEF773
:104FB00097FE001B022808D828688001F7D533E047
:104FC000FEF78EFE001B022802D90320BDE8F88FF1
:104FD00028688001F4D427E00128F7D0DAF800002F
:104FE000E26900F4800191421CD1226A00F03F0185
:104FF000914217D147F6C071626A0140B1EB821F3E
:1050000010D1A26A4FF0FF3300F4403103EB52029B
:10501000B1EB024F06D194F82C1000F07060B0EBA9
:10502000016F01D00120D1E70020CFE70438024012
:1050300000004742800E4742007000400000FFFF22
:1050400070B5040009D0606A002540B12561656132
:10505000A56294F8510040B10CE0012070BD606879
:10506000B0F5827FF4D0E561F2E784F85050204635
:1050700000F044F8022084F851002068016821F013
:1050800040010160A088218900F4827001F404418C
:105090000843A18901F400610843217C01F0020169
:1050A0000843217D01F001010843218B01F40071C7
:1050B0000843217F01F03801084394F8201001F0E3
:1050C00080010843218D01F40051084321680860E4
:1050D000A069042101EA104094F8241001F01001A5
:1050E0000843216848602068C16921F40061C161FA
:1050F0006565012084F85100002070BD2DE9F04362
:1051000087B0044614216846FBF7A4FA34492068A6
:10511000884261D133480025016841F48051016023
:10512000006800F4805005902E481438016841F062
:1051300002010160016801F002010591016841F07E
:10514000010101600068022600F0010005901820AE
:1051500001274FF003084FF005098DE8C1036946A8
:105160002148FEF7CFFC80208DE8C10369461F4827
:10517000FEF7C8FC1F4E1E484FF0C0673060C6E9FE
:1051800001754FF48068C6E9035875617812B561FE
:10519000C6E9075030467562FEF7F2FB08B1FDF72D
:1051A000BFF9E664B463134E114860361830E6E880
:1051B00002074020A6E82101C00246F81459B56153
:1051C000C6E907500B4875626030FEF7D9FB08B19D
:1051D000FDF7A6F9A664B46307B0BDE8F08300004C
:1051E0000030014044380240000402400000024008
:1051F000406402404C1300202DE9FF4F81B01F4650
:105200009346044601250E9EFEF76AFD804694F8FB
:1052100051006168012806D0B1F5827F3CD1A168B8
:10522000C9BB042838D10298002870D0BBF1000F08
:10523000FBD0002FF9D094F8500001282CD04FF06B
:10524000010A84F850A094F85100042802D00520E7
:1052500084F851004FF00009C4F85490C4F838B0F5
:10526000E787A78702992163E786A786C4F840905D
:10527000C4F8449020680168490603D4016841F0ED
:1052800040010160E068B0F5006F606808D0E8B3E5
:10529000012F47D07DE0FFE7022005B0BDE8F08F89
:1052A00008B1012F37D1206B21680088C860206BBE
:1052B000801C2063E08E401EE0862CE02068816820
:1052C00089070DD5E18E59B1012D09D1216B0988CE
:1052D000C160206B801C2063E08E401EE0860025AC
:1052E00020688168C9070BD0E18F49B1C068A16B04
:1052F0000880A06B801CA063E08F401EE087012522
:10530000FEF7EEFCA0EB0800B04201E00AE064E02A
:1053100001D3701C4ED1E08E0028CFD1E08F002841
:10532000CCD13CE0206B216800780873206B401CD6
:105330002063E08E401EE0862BE0206881688907AC
:105340000DD5E18E59B1012D09D1216B0978017379
:10535000206B401C2063E08E401EE0860025206804
:105360008168C9070BD0E18F49B1C068A16B087093
:10537000A06B401CA063E08F401EE0870125FEF774
:10538000AFFCA0EB0800B04202D3701C01D011E0CA
:1053900086B1E08E0028D0D1E08F0028CDD14246E2
:1053A0003146204604F0D6FE50B12020606584F8D6
:1053B000509012E084F851A084F8509003206CE7DC
:1053C000A06818B92068C1688068009084F851A06E
:1053D00084F85090606D0028F1D001205DE770479F
:1053E0007047000070B590F83C20012A32D00125AA
:1053F00080F83C50022280F83D200268536894688F
:1054000023F070060B6833435360134B02689A42D3
:1054100014D0B2F1804F11D0104B9A420ED0104BE5
:105420009A420BD00F4B9A4208D00F4B9A4205D0AC
:105430000E4B9A4202D00E4B9A4204D1496824F096
:1054400080031943916080F83D50002180F83C10A2
:10545000084670BD022070BD0000014000040040FD
:1054600000080040000C00400004014000400140E2
:105470000018004010B5040003D094F83D0010B1AE
:1054800007E0012010BD002084F83C00204600F019
:105490001FF8022084F83D00211D206806F038F82E
:1054A000012084F8460084F83E0084F83F0084F828
:1054B000400084F8410084F8420084F8430084F8F6
:1054C000440084F8450084F83D00002010BD000031
:1054D00008B50068174A1849904211D1086840F091
:1054E000020008600868002200F002000090052118
:1054F0001D20FEF7A1FDBDE808401D20FEF78EBD72
:105500000E4A904207D1086840F00400086008681D
:1055100000F004000BE00A49884209D10648001D4A
:10552000016841F400310160006800F4003000902F
:1055300008BD000000040040403802400008004060
:105540000044014090F83D10012901D0012070472E
:10555000022180F83D1000681149884214D0B0F152
:10556000804F11D00F4988420ED00F4988420BD08E
:105570000E49884208D00E49884205D00D4988421C
:1055800002D00D49884204D1816801F00701062943
:1055900003D0016841F00101016000207047000064
:1055A000000001400004004000080040000C0040E2
:1055B00000040140004001400018004090F83D10F8
:1055C000012901D001207047022180F83D100168B7
:1055D000CA6842F00102CA6000681149884214D0CA
:1055E000B0F1804F11D00F4988420ED00E49884249
:1055F0000BD00E49884208D00D49884205D00D498C
:10560000884202D00C49884204D1816801F0070128
:10561000062903D0016841F00101016000207047B4
:10562000000001400004004000080040000C004061
:1056300000040140004001400018004070B50446DD
:1056400090F83C000025012817D0012684F83C6022
:10565000022084F83D002068826822F0770222F45C
:105660007F4282600868502838D00DDC20284FD057
:1056700005DC90B3102811D14AE0022070BD30281B
:1056800046D040280AD13BE060282FD070280DD0AA
:10569000B0F5805F03D0B0F5005F12D0012584F82B
:1056A0003D60002084F83C00284670BDCB68D1E9FD
:1056B0000121206805F0A1FF2068816841F0770191
:1056C00009E0CB68D1E90121206805F096FF206848
:1056D000816841F480418160E1E719E0CA68496866
:1056E000206806F074F85021206806E0CA6849680E
:1056F000206806F07DF86021206805F088FFCEE77D
:10570000CA684968206806F062F840212068F4E71A
:10571000226801461046F0E770472DE9F041044643
:105720000068C66805694FF00007A90713D5B107DF
:1057300011D5F91E0161012020772068806980075A
:10574000204602D0FFF7E8FF04E000F0C1F8204651
:1057500000F053F92777680716D5700714D521682C
:105760006FF004000861022020772068806910F43F
:10577000407F204602D0FFF7CFFF04E000F0A8F8FA
:10578000204600F03AF92777280715D5300713D5BA
:1057900021686FF008000861042020772068C06944
:1057A0008007204602D0FFF7B7FF04E000F090F832
:1057B000204600F022F92777E80616D5F00614D522
:1057C00021686FF010000861082020772068C06908
:1057D00010F4407F204602D0FFF79EFF04E000F067
:1057E00077F8204600F009F92777E80708D0F00796
:1057F00006D021686FF001000861204600F066F9CC
:10580000280608D5300606D521686FF080000861AB
:105810002046FFF7E4FD680608D5700606D5216826
:105820006FF040000861204600F057F9A8060AD53D
:10583000B00608D521686FF0200008612046BDE859
:10584000F041FFF7CDBDBDE8F081000010B586B096
:10585000044614216846FAF7FDFE2068174C002321
:1058600017490222A0420FD1086840F008000860E2
:105870000868694600F00800059050038DE80D00A7
:10588000CDE903320F4814E00F4B984213D108685A
:1058900040F0200008600868694600F0200005908C
:1058A0004020CDE900020120CDE90202032004904E
:1058B0000648FEF727F906B010BD000000080040BA
:1058C00030380240000C0240004401400014024005
:1058D000704770B5044690F83C0000260D4601283C
:1058E0000FD0012084F83C006AB1042A1DD0082A98
:1058F0002FD00C2A3FD00126002084F83C003046EF
:1059000070BD022070BD206805F08AFE20688169A4
:1059100041F0080181612068816921F00401816101
:10592000206881692A69114311E0206805F0A8FE0A
:105930002068816941F4006181612068816921F4F6
:1059400080618161206881692A6941EA022181615F
:10595000D2E7206805F0CAFE2068C16941F008015D
:10596000C1612068C16921F00401C1612068C16979
:105970002A69114311E0206805F0ECFE2068C16936
:1059800041F40061C1612068C16921F48061C16195
:105990002068C1692A6941EA0221C161ACE710B5FA
:1059A000040003D094F83D0010B107E0012010BDC1
:1059B000002084F83C00204600F01EF8022084F805
:1059C0003D00211D206805F0A3FD012084F846005C
:1059D00084F83E0084F83F0084F8400084F84100D9
:1059E00084F8420084F8430084F8440084F84500B9
:1059F00084F83D00002010BD7047704710B5044684
:105A000049B104290AD008290BD094F84100012893
:105A10000AD0012010BD94F83E00F8E794F83F004A
:105A2000F5E794F84000F2E70220B1B3042938D03A
:105A3000082939D084F841000122206805F0D0FD02
:105A40001B4920681B4A884201D0904203D1436C15
:105A500043F4004343642068884213D0B0F1804F80
:105A600010D0154988420DD0144988420AD01449F3
:105A7000884207D0904205D01249884202D012498C
:105A8000884204D1816801F00701062903D001682A
:105A900041F001010160002010BDFFE784F83E00E5
:105AA000CAE784F83F00C7E784F84000C4E7000075
:105AB00000000140000401400004004000080040D4
:105AC000000C004000400140001800400068B0F1A8
:105AD000804F01D1FEF718BA704770477047704782
