:020000040800F2
:1000000000BE002031030008597C0008215B000875
:10001000B77A0008210D000803B2000800000000B4
:100020000000000000000000000000007102000855
:10003000E517000800000000CD020008D58F000879
:100040004B0300084B0300084B0300084B03000858
:100050004B0300084B0300084F1800084B0300082F
:100060004B030008551800085B1800084B030008F4
:10007000291500084B0300084B0300084B03000838
:100080004B0300084B0300084B0300084B03000818
:10009000450D00084B0300084B03000861180008D9
:1000A0004B0300084B0300084B0300084B030008F8
:1000B000A5900008B19000084B0300084B0300080E
:1000C0004B0300084B0300084B0300084B030008D8
:1000D0004B0300084B0300084B0300089D960008E3
:1000E0004B0300084B0300084B0300084B030008B8
:1000F0004B0300084B0300084B0300084B030008A8
:100100004B0300084B0300084B0300084B03000897
:100110004B0300084B0300084B0300084B03000887
:100120004B03000835150008411500084D1500085F
:100130004B0300084B0300084B0300084B03000867
:100140004B030008510D00084B030008957E000882
:10015000591500086515000871150008B1960008CA
:100160004B0300084B0300084B0300084B03000837
:100170004B0300084B0300084B030008000000007D
:100180004B0300084B03000800F002F800F060F891
:100190000AA090E8000C82448344AAF10107DA45E2
:1001A00001D100F055F8AFF2090EBAE80F0013F0D4
:1001B000010F18BFFB1A43F001031847D4EE0000EB
:1001C000F4EE00000A444FF0000C10F8013B13F06D
:1001D000070408BF10F8014B1D1108BF10F8015BA0
:1001E000641E05D010F8016B641E01F8016BF9D193
:1001F00013F0080F1EBF10F8014BAD1C0C1B09D1EA
:100200006D1E58BF01F801CBFAD505E014F8016B5B
:1002100001F8016B6D1EF9D59142D6D370470000ED
:100220000023002400250026103A28BF78C1FBD8FF
:10023000520728BF30C148BF0B6070471FB50EF092
:10024000B0F89DE8030000F047FA1FBD10B510BDDF
:1002500000F0AEFA1146FFF7F1FF0CF0E1F800F004
:10026000CCFA03B4FFF7F2FF03BC00F0FDFA000084
:100270002C4B19680868B0E8F04F80F30988BFF389
:100280006F8F4FF0000080F311887047000000006E
:1002900008480068006880F308884FF0000080F389
:1002A000148862B661B6BFF34F8FBFF36F8F00DF64
:1002B00000BF00BF08ED00E0DFF80C00016841F46A
:1002C00070010160704700BF88ED00E0EFF3098026
:1002D000BFF36F8F134B1A681EF0100F08BF20ED8D
:1002E000108A20E9F04F106009B44FF0500080F3FD
:1002F0001188BFF34F8FBFF36F8F0CF0D7FF4FF014
:10030000000080F3118809BC19680868B0E8F04F54
:100310001EF0100F08BFB0EC108A80F30988BFF3FD
:100320006F8F70479C000020EFF30580704700003E
:100330000948804709480047FEE7FEE7FEE7FEE779
:10034000FEE7FEE7FEE7FEE7FEE7FEE704480549B5
:10035000054A064B70470000959000088901000887
:1003600000AA002000BE002000BA002000BA002031
:1003700070B5064600F094F9056806F10B0020F010
:100380000704B4429CBF002070BD2B466A68BAB116
:100390001068A04210D304F1080188423CBF5068A5
:1003A000586007D35168101941601168091B01603A
:1003B00058601460101D70BD13465268002AE7D1C2
:1003C0002146284600F074F90028DED170BD70B5D2
:1003D0000446051F00F064F90068002C14BF44684F
:1003E00070BD002C18BFAC423CBF20466468F8D3F7
:1003F00001680A18AA4218BF456003D12A68054659
:100400001144016028684119A1421CBF6C6070BD95
:100410006168696021680844286070BD53EA020C75
:1004200000F069802DE9F04B4FF00006002B1FBF54
:10043000B3FA83F503FA05F424FA05F65E4012BF19
:100440001643B2FA82F502FA05F4C5F120051EBF83
:1004500022FA05FC44EA0C04203556EA044C4FEA23
:10046000144418BF641C4FF000084FF0000990427C
:1004700071EB030C39D3002919BFB1FA81F701FAE6
:1004800007F6B0FA80F700FA07F6C7F120071EBF9B
:1004900020FA07FC46EA0C062037B6FBF4FCA7EB73
:1004A0000507103F07F01F0BCBF120060CFA0BFBE2
:1004B0002CFA06F644BFB3460026202FA4BF5E46A2
:1004C0004FF0000B5BEA060C08BF4FF0010B19EB75
:1004D0000B09ABFB027C48EB0608C01B06FB02CCF9
:1004E0000BFB03CC71EB0C01C1E70B460246414606
:1004F0004846BDE8F08B13B54FF000004FF0000107
:10050000AFF30080BDE81C407047032A40F2308002
:1005100010F0030C00F0158011F8013BBCF1020F44
:10052000624498BF11F801CB00F8013B38BF11F8C5
:10053000013BA2F1040298BF00F801CB38BF00F8DC
:10054000013B11F0030300F02580083AC0F0088059
:1005500051F8043B083A51F804CBA0E80810F5E73D
:10056000121D5CBF51F8043B40F8043BAFF3008020
:10057000D20724BF11F8013B11F801CB48BF11F895
:10058000012B24BF00F8013B00F801CB48BF00F865
:10059000012B704710B5203AC0F00B80B1E818501D
:1005A000203AA0E81850B1E81850A0E81850BFF45D
:1005B000F5AF5FEA027C24BFB1E81850A0E81850FC
:1005C00044BF18C918C0BDE810405FEA827C24BF50
:1005D00051F8043B40F8043B08BF7047D20728BFDE
:1005E00031F8023B48BF11F8012B28BF20F8023B2D
:1005F00048BF00F8012B704702F0FF0343EA0322D3
:1006000042EA024200F002B84FF000020429C0F0B2
:10061000128010F0030C00F01B80CCF1040CBCF134
:10062000020F18BF00F8012BA8BF20F8022BA1EB86
:100630000C0100F00DB85FEAC17C24BF00F8012B6B
:1006400000F8012B48BF00F8012B70474FF0000263
:1006500000B5134694469646203922BFA0E80C50B8
:10066000A0E80C50B1F12001BFF4F7AF090728BF93
:10067000A0E80C5048BF0CC05DF804EB890028BF0F
:1006800040F8042B08BF704748BF20F8022B11F038
:10069000804F18BF00F8012B7047704770477047B4
:1006A00000487047A4A90020704770477047704702
:1006B00038B504460A4600206946AFF3008000289A
:1006C00008BF38BD02460099204600F04FF80120CF
:1006D00038BD012000F064B8F8B5AFF300800546DE
:1006E00000200C46102000BF0646A819A0420DD9D4
:1006F000324669460020AFF30080070008BF00F0D3
:100700004FF80098A04218BF0546C419FFF7C8FF6C
:1007100005600746F01D20F007004619284600F046
:100720000AF8B44208BFF8BDA21B31463868BDE8DC
:10073000F84000F01BB800210160C0E901107047CB
:100740001020704710B500F00DF8006810BD10B50E
:10075000044600F007F8046010BD00000048704730
:100760009CA90020004870479CA9002003464068CF
:100770008C46002818BF88423CBF03464068F8D327
:1007800018681844884207D00CF1030020F00700D5
:10079000001D411A521A0146081D0A60FFF717BED4
:1007A00010B500F039F8BDE8104000F02FB87047E0
:1007B0007546FFF7D3FFAE4605006946534620F065
:1007C0000700854618B020B5FFF7C0FDBDE8204002
:1007D0004FF000064FF000074FF000084FF0000BFD
:1007E00021F00701AC46ACE8C009ACE8C009ACE8B0
:1007F000C009ACE8C0098D46704710B50446AFF398
:1008000000802046BDE81040FFF72BBD002801D036
:1008100000F02AB87047000010B5012805D000216B
:1008200003A000F027F8012010BD09A1F8E700009F
:1008300053494752544D454D3A204F7574206F66C9
:100840002068656170206D656D6F72790000000031
:100850003A2048656170206D656D6F727920636F15
:10086000727275707465640001491820ABBEFEE7B2
:100870002600020070B505460C460A2000E06D1CFB
:1008800000F011F835B128780028F8D102E0641C96
:1008900000F009F814B120780028F8D1BDE87040C4
:1008A0000A20AFF3008008B569468DF800000320E8
:1008B000ABBE08BD10B506490120064C087002E029
:1008C00001200BF0F3FD20780028F9D010BD0000C6
:1008D000B0040020BE04002008F072BA0D4A12785D
:1008E000002A15D04278002A12D050F8022FDFEDEE
:1008F0000A0A00EE102A20EE200ADFED080A81ED38
:10090000080AC06800EE100A20EE200A81ED090AEC
:1009100070470000C0040020E12E6542E12E65C250
:1009200001221021014802F05DBE000000000240DB
:1009300000221021014802F055BE000000000240D4
:1009400001221146014802F04DBE000000040240A1
:1009500000220121014802F045BE000000040240CF
:1009600070B50446FFF7E4FF922000F02DF906224F
:100970006549122000F00AF9FFF7D2FF624DA5F198
:100980001C0668782978000200B2084300EE100ABD
:10099000D6ED030AB8EEC00A60EE200A94ED080A0C
:1009A00060EE800AC4ED000AE878A978000200B27F
:1009B000084300EE900AB8EEE01AD6ED030A21EEE5
:1009C000201A21EE001A84ED011A687929790002B3
:1009D00000B2084301EE100A3081B8EEC11A61EE90
:1009E000200A20EE800A84ED020AFFF7B1FF0822F8
:1009F0002946002000F0CAF8FFF7A2FF28780F2848
:100A00005AD1F078A9780028E8784FEA002000B29F
:100A100040EA01002BD000EE100AD4ED090AB8EE2E
:100A2000C01A96ED040A51EE000AC4ED030A687973
:100A30002979000200B2084300EE900A94ED0A1AE8
:100A4000F8EEE00A10EE801A84ED041AE879A9792C
:100A5000000200B2084300EE900A308194ED0B1AB8
:100A6000F8EEE00A10EE801A84ED051A24E000EE9C
:100A7000100AF8EEC00A96ED040A60EE800AC4ED92
:100A8000030A68792979000200B2084300EE900A4F
:100A9000F8EEE00A60EE800AC4ED040AE879A9796C
:100AA000000200B2084300EE900A3081F8EEE00A3E
:100AB00020EE800A84ED050AFFF73AFFA22000F03D
:100AC00083F802221049222000F060F8FFF728FF87
:100AD00028786978C00040EA51103081B0F5806F05
:100AE00002DBA0F500603081B6F90800B4EE001A10
:100AF00000EE100AF8EEC00AB3EE070A00EE810A13
:100B000084ED070A70BD0000C401002070B50D46D9
:100B10001649174C08600020A0700BF021FAA1784C
:100B20000843A0700BF0B0FAA1780843A0701DB183
:100B3000104800F0ABF916E00E489FED0F0A80ED6B
:100B4000090A9FED0E0A80ED0A0A80ED0B0A9FED5F
:100B50000C0A80ED0C0A9FED0B0A80ED080A9FED50
:100B60000A0A80ED060AA07870BD0000F00100209E
:100B7000A801002010910020AC38223BB016CE39DD
:100B80003F161B41C48B813F0000204270B51446C4
:100B90000D4640F0800000F017F806E0552000F008
:100BA00013F8641E05F8010BE4B2002CF6D170BDF9
:100BB00010B50C4640F0800000F006F8552000F01B
:100BC00003F8207010BD000001B582B04FF47A70B8
:100BD00000900548012301AA02A9006803F094FFD0
:100BE0009DF804000EBD0000F001002010B50C4679
:100BF000FFF7EAFF2046BDE81040FFF7E5BF000021
:100C000010B506490120064C087002E001200BF0E7
:100C10004DFC20780028F9D010BD000028050020E8
:100C2000BE04002010B508F013F908F04BF8BDE839
:100C3000104008F087B8B6EE002A92ED020AB0EE36
:100C4000421AD2ED030A00EE401AD0ED001AD0EDA0
:100C5000013A00EEE01A21EE213A92ED011AD2EDAE
:100C6000001A61EE002A41EEE02A61EE200A41EE10
:100C7000800A02EEA33A90ED020AF0EE002A00EE9E
:100C8000803A23EE220A81ED000AD2ED010AD2ED6C
:100C9000021A92ED001A92ED030A20EEA13AD0ED6D
:100CA000003A90ED014A01EE003A23EE233AF0EECD
:100CB000423A40EEE03A40EE403A21EE800A01EE40
:100CC000600A03EE843AD0ED020A00EE203A23EEE9
:100CD000220A81ED010AD2ED010AD2ED031A92ED4A
:100CE000020A92ED001A20EEA13A60EE211AD0ED30
:100CF000003A00EEE02A01EE403A41EE201A90ED73
:100D0000011A00EE402A23EE233A90ED020A01EE8A
:100D1000813A02EE003A23EE220A81ED020A704780
:100D2000FEE70000024900200968C8637047000020
:100D30005C0F0020024A136898621068C163704714
:100D40005C0F0020014801F09EBE0000580D0020FD
:100D5000014801F098BE0000800D002010B58AB057
:100D600000200124CDE9060408940090019002902F
:100D700003900590049069460D4801F06DFD0C4804
:100D800002F003F902210A4801F0ECFC0E20099060
:100D9000CDE904406946074801F05EFD054802F0D0
:100DA000F4F81021034801F0DDFC0AB010BD00008A
:100DB000580D0020800D0020002070470020704753
:100DC00010B500220449054808F062FE04490348B2
:100DD00008F051FE002010BD84260020A41200203F
:100DE000841E002010B504460146054808F043FE65
:100DF000204607F05BFE024808F016FE002010BDFA
:100E0000A4120020002070470A46094910B5D1F805
:100E1000BC12D1F8141209B1012010BD01460448DA
:100E200008F036FEBDE81040014808F0ABBE0000F7
:100E3000A412002010B502004FF6FF700BD0064C34
:100E4000491E08D312F8013B4340DBB234F813309B
:100E500083EA1020F4E710BD40E6000830B50C46E8
:100E6000050011D0022C0FD9A11EFFF7E3FF2919AD
:100E7000C2B211F8023C9A4206D111F8011CB1EB42
:100E8000102F01D1012030BD002030BD2DE9F04FE1
:100E900004462DED048B89B000200090019000F0F5
:100EA0000FFCEB4E02AF0DF1140886ED050A4FF072
:100EB0007C5BDFF8A093DFF8A0A300F001FCD6ED87
:100EC000050AE64930EE600A10EE100A884212DD8B
:100ED0009FEDE30A84ED090A9FEDE20A84ED0A0A18
:100EE00084ED0B0A9FEDE00A84ED0C0A9FEDDF0A0A
:100EF00084ED060A87E19FEDDE0A00F0A5FB9FED79
:100F0000DD0A002584ED0C0A84ED090A84ED0A0A45
:100F100084ED0B0AF8E0FFF70BFD9220FFF754FE7B
:100F2000062269461220FFF731FEFFF7F9FC9DF813
:100F300001009DF80010000200B2084300EE100A04
:100F4000D6ED030AB8EEC00A20EE200A84ED000AAE
:100F50009DF803009DF80210000200B2084300EE65
:100F6000900A96ED031A20EE000AF8EEE00A60EE11
:100F7000810AC4ED010A9DF805009DF804100002E5
:100F800000B2084301EE900A00EEA00AF8EEE11A62
:100F900021EE811A84ED021A01EE010A0AF04EFDDB
:100FA000B0EE408A94ED0C0A30EE080A84ED0C0A8B
:100FB000FFF7CEFC082269460020FFF7E7FDFFF7A8
:100FC000BFFC9DF800000F2840D19DF803009DF85C
:100FD0000210000200B2084300EE100AF8EEC00A48
:100FE00096ED040A60EE800AC4ED030A94ED091A36
:100FF00071EE200AC4ED090A9DF805009DF8041061
:10100000000200B2084300EE900AF8EEE00A60EE3B
:10101000800AC4ED040A94ED0A1A71EE200AC4EDA8
:101020000A0A9DF807009DF80610000200B2084366
:1010300000EE900AF8EEE00A20EE800A84ED050A40
:10104000D4ED0B0A30EE800A84ED0B0A002D7CD023
:10105000B4EEC98AF1EE10FA01DDB0EE489AB4EEB2
:10106000E88AF1EE10FA01D2F0EE488A00204246FA
:1010700004EB800191ED030A07EB8001D1ED000A3A
:10108000B4EEE00AF1EE10FA01DD81ED000A02EBA8
:101090008001D1ED000AB4EEE00AF1EE10FA01D2BF
:1010A00081ED000A401CC0B20328E1D339EE680A82
:1010B0000020414686ED060A4A4607EB8003D3ED41
:1010C000000A01EB800393ED001A02EB8003401C41
:1010D00070EEC10AC0B20328C3ED000AEDD310EED2
:1010E000100A584514DC11685046814210DC5168E2
:1010F00081420DDCD9F80810514509DC9FED5E0AEC
:1011000000F0A2FA6D1CADB2F0888542FFF403AF87
:10111000F288D4ED0C0A00EE102A0020B8EE400A46
:1011200080EE801A84ED0C1A00EE102A04EB800188
:10113000401CB8EE400AD1ED090AC0B2032880EE87
:10114000801A81ED091AEFD300E069E0FFF7F0FBA8
:10115000A220FFF739FD022269462220FFF716FD83
:10116000FFF7DEFB9DF800009DF80110C00040EA8B
:101170005110B0F5806F01DBA0F5006000EE100AA1
:10118000B4EE001AF8EEC00AB3EE070A00EE810AC8
:1011900084ED060AB088401CB080B06958453FF71E
:1011A0008CAE94ED0C0ADFED350A30EE600AB0EE3D
:1011B000C00A10EE100A5845F1DCD9F8002051465B
:1011C00048468A42EBDC42688A42E8DCD9F80800EB
:1011D0005045E4DC94ED090A2948B0EEC00A10EE4F
:1011E000101A8142DBDC94ED0A0AB0EEC00A10EE60
:1011F000101A8142D3DC94ED0B0AB0EEC00A10EE57
:10120000101A8142CBDC94ED0C0ADFED1E0A80EE51
:10121000801A84ED081A09B0BDEC048BBDE8F08F8C
:10122000B0EE489AF0EE488A0020414604EB800276
:1012300092ED030A07EB800282ED000A01EB8002C7
:10124000401CC0B282ED000A0328EFD32EE7000055
:10125000A8010020049100209A99193E0000204125
:10126000AC38223BB016CE393F161B41000020425D
:101270000AD7A33B000000006F12033ACDCC1C41FB
:101280000AD7233CC3F51C4130B587B00546002082
:1012900000910290CDE903021C468DF8140002E093
:1012A00001200BF003F9284601F0D7FB0028F7D006
:1012B000012322466946284601F066FA80B10223DE
:1012C00022466946284601F05FFA48B104232246C7
:1012D0006946284601F058FA10B1012007B030BD28
:1012E0000020FBE770B5467802250322104B01244D
:1012F0002EB1067800206EB10870187070BD0D48D0
:101300001C70807A022811D003280DD00128F5D155
:101310000D7070BD08481D70C079C0F3011028B170
:10132000012801D00228F4D10A7070BD0C7070BD84
:10133000BC04002020A900208CA7002010B5D0E913
:1013400000348268A34201D1521C04E0521E826024
:10135000002A01DC0022826043608A4203DB491ECE
:101360008160012010BD002010BD00002DE9F0417A
:1013700009F0E6FF114C124D124E134F02E001200E
:101380000BF094F8207829780840317808403978B3
:101390000842F4D04FF4FA600BF088F80B4C04E0EC
:1013A00007F0D2FA01200BF081F820780028F7D05E
:1013B000074901208870BDE8F0810000B0040020DA
:1013C000B4040020CB04002028050020650600207E
:1013D000BC04002070B50D46044614211D48FFF7DB
:1013E000ADFF607014211C48FFF7A8FF2070142186
:1013F00005F19400FFF7A2FFA070142105F1AC00E5
:10140000FFF79CFFE070142105F1C400FFF796FF81
:101410002071142105F13800FFF790FF607114214D
:1014200005F17C00FFF78AFFA07161782278E378EC
:1014300001EB4201A278520202EB8322114422798D
:1014400001EBC221627901EB023101EB40302081D6
:1014500070BD000038A9002080A7002010B5074902
:101460000748FFF7B7FF07490548FFF73BFF044868
:1014700000F086FABDE8104009F06EBF40A80020D9
:10148000089B0020BD04002070B50C462DED028B9A
:1014900005469FED168A90ED020AF0EE480A00F02C
:1014A00095FB134EDFED138AB0EEC00A86ED040AF9
:1014B00095ED020AF0EE680A00F088FBB0EEC00A73
:1014C00086ED050AD6ED040AF4EEC00AF1EE10FA34
:1014D00002D884ED018A01E0C4ED018A94ED010A8D
:1014E00085ED070ABDEC028B70BD00004C4CAE3F91
:1014F000C00400205C96E0BF1CB5FF228DF80020E0
:101500008DF801208DF804208DF802208DF805203B
:101510008DF803208DF80620FB228DF807206B46FE
:101520000822FFF7B1FE1CBD014801F0E1BD00003B
:1015300084110020014801F0DBBD0000E41100200F
:10154000014801F0D5BD0000540E0020014801F013
:10155000CFBD0000B40E0020014801F0C9BD00005D
:1015600024110020014801F0C3BD000044120020F6
:10157000014801F0BDBD0000C4100020016818231F
:10158000CAB2103AB2FBF3F2054B6FF30901032A1A
:101590009B5CC36500D9091D816508467047000042
:1015A00060E4000810B5014600208B698A6A4FF09C
:1015B000C07453B1B3F5005F15D072B1012A0CD0DD
:1015C000022A0AD0032A09D104E01AB1012A06D05E
:1015D000022A03D1C96AC90100D5012010BDC96A18
:1015E000A142FAD010BD002AF7D0012AF2D0022A77
:1015F000F3D0032AF3D010BD30B50468256825F474
:1016000080252560046863608368402B036803D0ED
:1016100099600068C26030BD9A600068C16030BDEA
:10162000074808B5406800900146064802699142A3
:1016300002D2C168491CC1600099016108BD000067
:10164000001000E0200600200A4841680A4AD2ED56
:10165000000A4268521AF8EE601A01EE102AB8EE3B
:10166000411A60EE211AB4EEE11AF1EE10FAF0D34D
:1016700070470000001000E02006002000B50E4971
:101680002DED028B81B0496800910168009A511AD2
:1016900000EE101A0949F8EE400A91ED000A0260C6
:1016A000B8EE400A80EE808AFFF7BAFF01B0B0EED4
:1016B000480ABDEC028B00BD001000E020060020AF
:1016C00010B500F043F80C489FED0C1A818890ED9E
:1016D000000A00EE901AC088B8EE400AF8EE600AE0
:1016E00000EE810A00EE900A9FED051AF8EE600AFE
:1016F00000EE810A10BD0000500600206F12833AF0
:10170000BD3786350D490A6842F080720A600C497F
:1017100000224A600B6843F001030B6009494FF453
:101720007A734843B0FBF3F30749C1E90003054B63
:10173000B0FBF3F0C1E9020270470000FCED00E0ED
:10174000001000E040420F00200600202DE9F84381
:10175000224840680090FFF763FF214C0027009863
:10176000E1684FF0FF323D46E1FB0205C4E90E059A
:10177000D4F80080064642463B462946FEF74EFE18
:101780000246A2FB083CC4E9060101FB08C002FBBB
:101790000701F01A65EB0105C4E9080504F13008FA
:1017A0000646C8F80020D4F8049000234A4629468B
:1017B000FEF734FE81B2A8F8041001FB09F1701A9B
:1017C00065EB0705C4E90A0529460023A268FEF770
:1017D00025FEA8F80600BDE8F8830000001000E030
:1017E0002006002070471CB5FF228DF800208DF8E0
:1017F00001208DF804208DF802208DF805208DF849
:1018000003208DF80620FD228DF807206B46082264
:10181000FFF73AFD1CBD7CB5160A8DF800608DF807
:1018200001201A0ADDE906548DF802202A0A8DF8F3
:1018300004208DF80550220A8DF806208DF803301B
:101840008DF807406B460822FFF71EFD7CBD012086
:1018500001F0D4BD082001F0D1BD102001F0CEBDB3
:10186000202001F0CBBDB6EE002A92ED020AB0EEC8
:10187000421AD2ED030A00EE401AD0ED001AD0ED64
:10188000013A00EEE01A21EE213A92ED011AD2ED72
:10189000001A61EE002A41EEA02A61EE200A41EE14
:1018A000C00A02EEA33A90ED020AF0EE002A00EE22
:1018B000803A23EE220A81ED000AD2ED010AD2ED30
:1018C000021A92ED001A92ED030A20EEA13AD0ED31
:1018D000003A90ED014A01EE403A23EE233AF0EE51
:1018E000423A40EEE03A40EE403A21EE800A01EE04
:1018F000200A03EE843AD0ED020A00EE203A23EEED
:10190000220A81ED010AD2ED010AD2ED031A92ED0D
:10191000020A92ED001A20EEA13A60EE211AD0EDF3
:10192000003A00EEE02A01EE003A41EE601A90ED36
:10193000011A00EE402A23EE233A90ED020A01EE4E
:10194000813A02EE003A23EE220A81ED020A704744
:101950001CB5FF228DF800208DF801208DF80420A1
:101960008DF802208DF805208DF803208DF80620D3
:10197000FC228DF807206B460822FFF785FC1CBD72
:10198000F0B42B4D002305F10C07297819B9008913
:101990003B607B60AB60264E386814363146346855
:1019A0004A68844202D179688A4236D0012129707E
:1019B00044F62061844211D0A868642290FBF2F7BB
:1019C00002FB1702F2B1282A22D0401CA86063282B
:1019D00002D1641CAB603460F0BC7047786882420E
:1019E000FAD0A868282490FBF4F704FB17044CB144
:1019F000142C0DD0401CA8602728EDD1521CAB60E0
:101A00007260E9E7401CA860F0BC0120FFF792B9C2
:101A1000401CA860F0BCFFF785B9A868401CA8600E
:101A2000F028D9DB2B70AB6033607360D4E7000023
:101A30006406002072B6FEE710B504462DED028B59
:101A4000B0EE408A1830FFF719FE10EE100AE06180
:101A5000216A00EE100A00EE901AE26870EE800A29
:101A600000EE100A20EE080A80EE201A00EE902AFE
:101A700000EE101A60EE801A00EE901A00EE100AC6
:101A800030EE800AC1EE800A31EE200A10EE101A04
:101A9000E160228E022A0AD900EE100A00EE901AA6
:101AA00004F1320006F0DAF810EE100A0CE000EE55
:101AB000101A216900EE901A30EE601A00EE100A3A
:101AC000C1EE000A10EE900A6062B4F85C000228D1
:101AD000606A0BD900EE900AE06900EE100A04F18A
:101AE0005E0006F0BBF810EE100A0DE000EE100AE2
:101AF000E06A00EE900AE06930EE601A00EE100A2B
:101B0000C1EE000A10EE900AA062206800EE100AF2
:101B1000E06800EE900A606820EE200A00EE900A6D
:101B2000606A01EE100AA06800EE810A00EE900AD9
:101B3000A06A01EE100A00EE810A10EE100AC4F845
:101B40008800D4F88C1000EE100A01EE101AF1EEA5
:101B5000410A0AF019FC10EE100AC4F88800E16886
:101B60002161616AE16200EE100ABDEC028B10BDDA
:101B700070B5044610EE100A1E46C4F88C0000250D
:101B800039B134B108682060486860608868A06036
:101B900004E025606560A560C4F88C5010EE900AE2
:101BA000022A20622286A4F85C6004D9114604F15E
:101BB000320006F04DF9022E04D9314604F15E00E0
:101BC00006F046F9A561C4F8885070BD30EEC01A21
:101BD000B5EEC00A1E48F1EE10FA16DDF5EEC00AA9
:101BE000F1EE10FA11D2DFED1B1A31EEC00A30EE21
:101BF000200AF1EE410A80ED010AB4EEE00A80ED20
:101C0000021AF1EE10FA1BD31DE0B5EEC00AF1EE98
:101C100010FA18D2F5EEC00AF1EE10FA13DDDFED7E
:101C20000E1A31EEC00A30EE200A80ED010AF1EE04
:101C3000400A80ED021AF4EEC10AF1EE10FA02D267
:101C400080ED030A01E080ED031A90ED030A70476E
:101C500094060020DB0FC940DB0FC9C00288028157
:101C60000A8852BA02804A8852BA42808A8852BA96
:101C7000828089798171C168B1F57A7F01DB0021A9
:101C800000E0491CC16070472DE9F04115462DED7B
:101C9000028B82B000780C46002640F2FF1878B123
:101CA00001280DD0534F9FED548A7868012827D022
:101CB000002852484FF00A011FD0FFF71DFC36E004
:101CC0000A214E48FFF78FFD01200AF0EFFB0C219F
:101CD0004B48FFF788FD01200AF0E8FB002300963F
:101CE0001A464446414645480196FFF794FD0023B5
:101CF00000961A462146019674E0FFF729FE16E089
:101D000095ED0A0AF2EE020AB1EE400A05F0C4FEB1
:101D1000B0EE402AB0EE480A0A22F0EE401AB0EEC9
:101D2000401AF0EE400A1146344805F0C5FE012085
:101D30000AF0BCFBB86C01280AD0002830484FF0EC
:101D40000C0102D0FFF7D8FB19E0FFF701FE16E007
:101D500095ED0B0AF2EE020AB1EE400A05F09CFE88
:101D6000B0EE402AB0EE480A0A22F0EE401AB0EE79
:101D7000401AF0EE400A0C21214805F09DFE01209A
:101D80000AF094FB94ED060ADFED1E0A05F084FECE
:101D9000BDEEC00A0096019610EE100A00224646DB
:101DA00003B241461548FFF736FD9FED178A94EDC3
:101DB000050AF0EE480A05F06FFEBDEEC00AF0EE2F
:101DC000480A10EE100A94ED040A05B205F064FE0C
:101DD000BDEEC00A00231A4610EE100A314600B2CA
:101DE000CDE900050648FFF716FD02B0BDEC028BF9
:101DF000BDE8F08140A8002000000000580D002040
:101E0000800D002000401C46000080462DE9FF5F49
:101E1000DFF860A206462DED048B1C460027DDE9A5
:101E200013589AF80000DFF850B220B1012805D00D
:101E300002280CD018E0A780E78015E0B6F90E0064
:101E4000012105F0F5FAA080B6F90C0008E0D946AA
:101E5000BBF90C00012105F0EBFAA080B9F90A00EA
:101E6000012105F0E5FAE080B6F90600052105F04C
:101E7000DFFA2080B6F90400052105F0D9FA608068
:101E800098F80000A8B1012813D09AF8000080B19A
:101E90007A494FF001099FED7A9B01280FD0022863
:101EA0007DD1087800287BD0BBF81100C00510D484
:101EB00017E02F7094ED020A84ED070A11E008780C
:101EC000E0B1B08AC00504D4B6F9020010F5257F50
:101ED00007D1287828B929462046FFF7D5FA85F892
:101EE0000090059806F0AFFB129A06982146BDECCB
:101EF000048B04B0BDE8F05F00F0CEB82F7098F806
:101F00000000022837D0032849D1B4F906000BF0AD
:101F1000D7FF53EC192B0BF0EBFF41EC180B206AA9
:101F20000CF0CEF953EC182B0CF0E0F80BF0EEFEB1
:101F300000EE100A03F0C4FD84ED080AB4F90400B1
:101F40000BF0BEFF53EC192B0BF0D2FF41EC180B3A
:101F5000606A0CF0B5F953EC182B0BF009FF0BF08D
:101F6000D5FE606205993046BDEC048B04B0BDE837
:101F7000F05F06F071BBB4F902000BF0A1FF9FED1A
:101F8000421B53EC112B0BF0B3FF41EC180B206AF2
:101F90000CF096F953EC182B0CF0A8F801E064E073
:101FA00029E00BF0B3FE00EE100A03F089FD84ED8A
:101FB000080AB4F900000BF083FF9FED351B53ECCA
:101FC000112B0BF095FF41EC180B606A0CF078F9BF
:101FD00053EC182B0BF0CCFE0BF098FE60620598CA
:101FE00006F031FB12993046BDEC048B04B0BDE81D
:101FF000F05F06F087BC2F7098F80000032834D1FA
:10200000B4F906000BF05CFF53EC192B0BF070FFDA
:1020100041EC180B206A0CF053F953EC182B0CF020
:1020200065F80BF073FE00EE100A03F049FD84ED35
:10203000080AB4F904000BF043FF53EC192B0BF022
:1020400057FF41EC180B606A0CF03AF953EC182B6F
:102050000BF08EFE0BF05AFE60620598BDEC048B0F
:1020600004B0BDE8F05F09F0A5B9BDEC048BBDE894
:10207000FF9F0000BC0400208CA7002010A90020B6
:102080002D431CEBE2365A3F613255302AA9433FBB
:102090002D431CEBE2363A3F70B5064600250C4650
:1020A00015700F4806F079FA0D48AE3006F075FA53
:1020B0000C4806F072FA0A48AE3806F06EFA94ED53
:1020C000030A094884ED080A94ED050A84ED090A1B
:1020D00096ED010A86ED030A0570457070BD00009B
:1020E000EC9C0020909B0020C00400202DE9F05FB4
:1020F00005462DED028B9A4690ED0B0A93460C4651
:102100000C9E8348FFF798FC814895ED0C0A9030AF
:10211000FFF792FCB5F90000B5F9021008444042FF
:1021200000EE100A7B48B8EEC00AFFF785FC7A4F34
:10213000D4ED040A764897ED010A903830EE200A73
:10214000FFF77AFCDFF8D48108F21E6098ED0D0AE3
:10215000FFF772FC08F5AE7908F2AE6099ED0D0A52
:10216000FFF76AFCD6ED040A94ED050A96ED031A12
:1021700060EE800A21EE001A60EE800A21EE001A5D
:1021800060EE800A60EE800A41EE000A96ED021AC7
:1021900021EE001A41EE000A96ED011A41EE000A06
:1021A00096ED000A30EE800A86ED050A9AF80000E6
:1021B0009FED5B0A00287DD001287BD0387850B392
:1021C00084ED0A0A84ED0B0A85ED040A85ED050A03
:1021D00085ED060A9BF80000002818D0D4ED070A08
:1021E00094ED020A08F52E7005F00CFF08F52E702C
:1021F00090ED0D0AAE30F1EE400A94ED040A05F0C0
:1022000001FF84ED0A0A9FED470A84ED0B0ABDEC3D
:10221000028BBDE8F09F94ED080A9FED438A3F488A
:1022200060EE080A94ED030A20EE080A05F0EAFEC3
:1022300094ED090A3D4860EE080A94ED050A20EE87
:10224000080A05F0DFFE3548D8ED0D0A94ED040AC2
:10225000AE3005F0D7FE84ED0A0A3448D9ED0D0AF8
:1022600094ED060AAE3005F0CDFE84ED0B0AB5F90B
:102270000000D5ED020A00EE100A2D48B8EEC00AA3
:1022800005F0C0FE224C9FED2B8AD4F8880000EEAA
:10229000900AD4F8A80100EEC80A00EE900A30EEC9
:1022A000200A85ED040A95ED020AB5F90200F1EE67
:1022B000400A00E022E000EE100AA4F54370B8EEF8
:1022C000C00A05F09FFED4F8180100EE900AD4F879
:1022D000A80100EEC80A00EE900A30EE200A85ED53
:1022E000050A95ED010A03F003FCD5ED030AA4F2FB
:1022F0005E2005F087FE85ED060A88E784ED0B0A6F
:1023000084ED0A0A85ED040A85ED050AF3E700006D
:102310005EA300207EA4002010A90020909B002036
:10232000000000003333134034FA8E3CEC9C002054
:10233000A49F002090D54C472DE9F04100232DEDBE
:10234000048B022204219FEDBF8AF0EE001AF1EE09
:10235000040AF0EE484AB0EE484AF0EE483AB0EED1
:10236000483AF0EE482AB0EE482AB0EE481AB2EEEB
:10237000040AB54806F02BF9B348002201231146A0
:10238000F0EE484AB0EE484AF0EE483AB0EE483A2D
:10239000F0EE482AB0EE002AF0EE001AB0EE481A2D
:1023A000F1EE040AB2EE020AAE3006F010F9002394
:1023B00002220421F0EE484AB0EE484AF0EE483AD4
:1023C000B0EE483AF0EE482AB0EE482AF1EE0E1A86
:1023D000B0EE481AF1EE040AB2EE040A9B4806F089
:1023E000F6F89948002201231146F0EE484AB0EE73
:1023F000484AF0EE483AB0EE483AF0EE482AB1EEDC
:10240000002AF0EE041AB0EE481AF0EE080AB2EE16
:10241000020AAE3806F0DBF8002302221946F0EE7D
:10242000484AB0EE484AF0EE483AB0EE483AF0EE8C
:10243000482AB0EE482AF0EE001AB0EE481AF1EE43
:10244000040AB2EE040A824806F0C1F8804800236C
:1024500002221946F0EE484AB0EE484AF0EE483AF9
:10246000B0EE483AF0EE482AB0EE482AF0EE001AF4
:10247000B0EE481AF1EE040AB2EE020AAE3006F0EF
:10248000A6F800231A460A21F0EE484AB0EE484A60
:10249000F0EE483AB0EE483AF0EE482AB0EE482A5C
:1024A000DFED6C8AB0EE481AF0EE681A9FED6A9A7A
:1024B000F0EE490ADFED699A6948B0EE690A06F064
:1024C00086F8674800231A460A21F0EE484AB0EE23
:1024D000484AF0EE483AB0EE483AF0EE482AB0EEFC
:1024E000482AF0EE681AB0EE481AF0EE490AB0EE4B
:1024F000690AAE3006F06BF8022200231146F0EEB6
:10250000484AB0EE484AF0EE483AB0EE483AF0EEAB
:10251000482AB0EE482ADFED531AB0EE481AF0EE22
:10252000490A9FED510A514806F051F801231A4615
:102530009FED4F8A4F49F0EE480ADFED4F8A4F4832
:10254000B0EE680AFFF714FB4A49484801231A46CF
:10255000F0EE480A0C31B0EE680AAE30FFF708FB27
:102560004449464801231A46F0EE480A1831B0EEB5
:10257000680A9038FFF7FCFA01233E491A46F0EE4C
:10258000480A2431DFED3E8A3C48B0EE680A9030BC
:10259000FFF7EEFA374901231A46F0EE480A3031C8
:1025A000B0EE680A3748FFF7E3FA324935480123AD
:1025B0001A46F0EE480A3C319FED330A9030FFF79F
:1025C000D7FA22489FED310A1838002180ED000A21
:1025D0009FED2F0A1D4C80ED010A9FED2E0A304D14
:1025E00080ED020A9FED2C0A2E4E80ED030A9FED2E
:1025F0002B0ADFF8B48080ED040A1E48203881726F
:102600000121483CC172A4F1340712E095ED1E0A85
:1026100084ED080A95ED1D0A84ED090AB6F8B800A4
:1026200000EE100A0120B8EE400A87ED030A09F017
:102630003DFF98F800000028E8D0BDEC048BBDE811
:10264000F081000000000000EC9C0020909B002026
:10265000489E00206666864100007A4400007A4663
:10266000A49F0020000018420070144600A1002022
:10267000CDCC4C3DE004002000008046CEA20020DE
:102680009A99993EEEA3002000401C46335FE04536
:1026900025C624C3A1F850C1A52C333F7CF230BC21
:1026A000F491002040A80020BE040020074A416A9F
:1026B000914202DDB3EE040A04E0054A914203D9D7
:1026C000BBEE040A80ED090A704700000000A0413B
:1026D0000000A0C10EB51A4B1A49A3F134021A48E2
:1026E00008F0C4FD1A49194AA1F10E008DE807004F
:1026F000134B1849A3F134021748FFF787FB104921
:102700001648FEF7EBF80E48FFF7D0FF104A0C49C9
:102710000E3A3439124806F0C1FB09480B4B3030F1
:1027200000900B4A06496438FFF7E0FC044A03B006
:10273000A2F1340105485DF804EBFFF7A5BA0000EB
:10274000489B002040A80020F4910020BD040020F8
:10275000D80400208CA9002020A9002090920020FD
:10276000D89A002090F82020012A07D0022A05D00C
:10277000416A41F48021416201207047006842694A
:102780000A43426100207047F0B590F82050046879
:10279000A468012D05D0022D03D0416A41F48021A7
:1027A00057E014F0406F01D1E5004FD5C4F3016448
:1027B0000125A5401D608B684FF4C0759BB1CE68A4
:1027C00033434E6843EAC603066805EB0417F3512A
:1027D0004FF4C273076803EB04130E69FE50097DC2
:1027E000012905D009E00E88CB6843EA4653EBE7A0
:1027F0000168CE5846F48076CE501179D379567957
:1028000041EA036193791B0443EA062319434FF419
:10281000C676036806EB041699511178D37841EA1D
:102820000361937852781B0443EA022211434FF468
:10283000C473026803EB0413D150006805EB041164
:10284000425842F0010242500020F0BD416A41F47A
:10285000001141620120F0BD10B590F82020012A3E
:1028600007D0022A05D0416A41F48021416201204B
:1028700010BD3B48D0F8002242F00102C0F800220F
:10288000D0F8002222F47C52C0F80022D0F80022B6
:102890004B6A42EA0322C0F800220A7D02F01F03BD
:1028A00001229A40D0F81C329343C0F81C32CB6905
:1028B000B3B9D0F80C329343C0F80C328C894B6812
:1028C00064F31F434C6900EBC404C4F840320C8924
:1028D0000B6864F31F434C6900EBC404C4F8443232
:1028E000CB69012B16D1D0F80C321343C0F80C324F
:1028F0000C884B6864F31F434C6900EBC404C4F8B4
:1029000040320C89CB6864F31F434C6900EBC4046C
:10291000C4F844328B69002BD0F804320ED0134334
:10292000C0F804320B69002BD0F8143208D01343DE
:10293000C0F81432096A012904D008E09343EFE794
:102940009343F5E7D0F81C121143C0F81C12D0F8DD
:10295000001221F00101C0F80012002010BD00009B
:1029600000640040704770B590F82040012C05D0FD
:10297000022C03D0416A41F4802128E0046809B3A5
:102980002469A40720D04FF4D874056804EB01141F
:102990002D5915F00405956005682D591AD0ED08DC
:1029A000556005682C5904F00204D4604FF4DA74C1
:1029B000056804EB01142E5906F00F06082E0CD3FF
:1029C00008250DE0E468DCE7416A41F4001141624A
:1029D000012070BD6D0D1560E3E72D5905F00F0561
:1029E000156105682D59C5F30725956105682C59B2
:1029F000240C54614FF4DC72046802EB0112A458F9
:102A00001C700468A458240A5C700468A458240C40
:102A10009C700468A258120EDA704FF4DE720468DB
:102A200002EB0112A4581C710468A458240A5C71BA
:102A30000468A458240C9C710468A258120EDA7120
:102A4000006829B1016941F020010161002070BDD9
:102A5000C16841F02001C160F8E70246002092F809
:102A60002010012901D002290CD111688A68520175
:102A700000D501208A68120100D5401C8968C90070
:102A800000D5401C70472DE9F05F05460068002422
:102A90004669D0F804908768D0F80CB0D0F810A040
:102AA000D0F81880F10748D0F90714D001218160CF
:102AB000B80703D5284600F094FA0CE0780702D551
:102AC0004FF4006407E0380702D54FF4805402E069
:102AD000284600F085FAF80516D529684FF480706D
:102AE0008860B80503D5284600F07DFA0CE078052B
:102AF00002D544F4005407E0380502D544F480447C
:102B000002E0284600F06EFAF80316D529684FF463
:102B100080308860B80303D5284600F066FA0CE0E0
:102B2000780302D544F4004407E0380302D544F4A6
:102B3000803402E0284600F057FA300707D55FEAF4
:102B4000CB6004D52968102044F40074C860700775
:102B50004FF0080707D55FEA0B7004D52868C760F7
:102B6000284600F097F9B00706D52868C0688007A6
:102B700002D0284600F090F9700607D55FEACA60D7
:102B800004D52968102044F480640861B00607D594
:102B90005FEA0A7004D528680761284600F0C8F982
:102BA000F00606D528680069800702D0284600F0A4
:102BB000C1F9B00308D55FEAC96005D529681020BE
:102BC0004860284600F0E0F9F00307D55FEA097095
:102BD00004D528684760284600F008FA300446D536
:102BE0005FEA497040D5F00504D55FEAC87001D0AE
:102BF00044F00104B00504D55FEA887001D544F0C3
:102C00000204700504D55FEA487001D544F004045D
:102C1000300529D518F0700F26D008F07000402834
:102C200015D006DC102809D020280AD0302816D16B
:102C30000AE050280ED0602811D10EE044F00804BC
:102C40000DE044F010040AE044F0200407E044F0F2
:102C5000400404E044F0800401E044F480742868F7
:102C6000816921F070018161296804204860002C8D
:102C700005D0686A204368622846FFF773FEBDE806
:102C8000F09F70B5040003D094F8200010B104E068
:102C9000012070BD204600F081F82068016841F0F5
:102CA0000101016000F0A4FC0546052604E000F0E7
:102CB0009FFC401B0A2811D820684068C007F6D046
:102CC0002068016821F00201016000F091FC0546D6
:102CD0000BE000F08DFC401B0A2806D9606A40F426
:102CE0000030606284F82060D2E720684068800786
:102CF000EFD4207E0128206801683DD021F08001BA
:102D00000160607E01282068016838D021F0400110
:102D10000160A07E01282068016833D021F02001E5
:102D20000160E07E0128206801682ED041F010018A
:102D30000160207F01282068016829D021F0080166
:102D40000160607F01282068016824D021F004011F
:102D50000160D4E902010843D4E904121143084395
:102D60006168491E08432168C86100206062012033
:102D700084F82000002070BD41F08001C0E741F0E0
:102D80004001C5E741F02001CAE721F01001CFE77B
:102D900041F00801D4E741F00401D9E7F0B587B06C
:102DA000044614216846FDF751FC3549354ADFF8E1
:102DB000CCE00868D4F800C0324B03240225092671
:102DC00010320027401CF44521D10860012807D1AA
:102DD000106840F000701060106800F000700590FE
:102DE000186840F00800186018688DE8B00000F01E
:102DF0000800CDE9046069460394234800F00AFB0B
:102E000000220521142000F09FFD142031E0DFF89E
:102E10007CE0F4452FD1D2F800C04CF0806CC2F8B1
:102E200000C0D2F800C001280CF0806CCDF814C0AE
:102E3000086007D1106840F000701060106800F062
:102E400000700590186840F0020018601868694624
:102E500000F00200059060208DE8A100CDE9034656
:102E60000B4800F0D7FA00220521412000F06CFD4C
:102E7000412000F05BFD07B0F0BD000000640040A1
:102E80001C00002030380240000C02400068004066
:102E9000000402407047000010B5214B214A002178
:102EA000FFF761FD0028FDD11E4800680B282FD0D8
:102EB000A0F5807005380AD0A0F58070013826D1C1
:102EC0001848BDE810401649F030FEF7C7BE144957
:102ED0001548DFED160A0A7802F001030370C2F309
:102EE00040024270B1F8012052BA0281B1F80320C9
:102EF00052BA42814A798281C98849BA09B200EE40
:102F0000101AB8EEC00A80EE201A80ED011A10BD2A
:102F100004480A22BDE810400149383005F030BDB0
:102F20008006002008A8002010A9002000007A4494
:102F30007047000010B5124B124A0121FFF713FD34
:102F40000028FDD10F4800680D2809D0A0F50070B9
:102F500007380DD0012812D10A480949BC300AE0CF
:102F600008480A22BDE810400549603005F008BD58
:102F700004480349A430BDE81040FEF76FBE10BD01
:102F80008806002024A80020704770B5044690F8F9
:102F90002000012804D0606A40F40020606217E03D
:102FA000022084F820002068016821F001010160FE
:102FB00000F01EFB05460DE000F01AFB401B0A283E
:102FC00008D9606A40F400306062052084F820006F
:102FD000012070BD20684068C007EDD1606270BDFF
:102FE000704770477047704770477047704710B51B
:102FF000040002D0607910B106E0012010BD00206D
:103000002071204600F004F801206071002010BDFE
:1030100008B500680649884208D10648016841F4AD
:1030200080510160006800F48050009008BD0000ED
:1030300000300240303802402DE9F0410446876DEF
:1030400000F0D6FA054694F835000026022806D08E
:103050008020606584F834600120BDE8F08120683C
:10306000016821F0160101602068416921F08001AA
:103070004161206C08B9A06C20B12068016821F082
:10308000080101602068016821F0010101600CE085
:1030900000F0AEFA401B052807D920206065032008
:1030A00084F8350084F83460D7E720680068C007EA
:1030B000EED194F85C103F208840B860012084F87D
:1030C000350084F834600020C7E790F835100229F5
:1030D00003D08021416501207047052180F835101B
:1030E0000068016821F001010160002070470000C4
:1030F0002DE9F84304464FF00009CDF800906348ED
:103100004FF41651A56D0068B0FBF1F72E6894F8E6
:103110005C20082101FA02F030420FD020680268DA
:1031200052070BD5026822F00402026094F85C009A
:103130008140A960606D40F00100606594F85C100A
:103140004FF0010808FA01F0304208D021684969BF
:10315000090604D5A860606D40F00200606594F82F
:103160005C1004208840304208D021680968890733
:1031700004D5A860606D40F00400606594F85C10B0
:1031800010208840304218D021680968090714D5FA
:10319000A86020680168490304D50068000308D5C9
:1031A000A16C07E00168C90503D4016821F008019A
:1031B0000160216C09B12046884794F85C102020FA
:1031C0008840304231D021680968C9062DD5A860F1
:1031D00094F8350005282068016806D0490347D5D2
:1031E000006800031DD4616C1CE021F01601016031
:1031F0002068416921F080014161206C08B9A06C10
:1032000020B12068016821F00801016094F85C1089
:103210003F208840A86084F8358084F83490216D80
:103220001FE0E16B09B120468847606D00282BD074
:10323000606DC00714D0052084F83500206801684F
:1032400021F0010101600098401C0090B84203D8B1
:1032500020680068C007F6D184F8358084F834907F
:10326000E16C002910D001B02046BDE8F0430847CA
:103270000168C905D5D4016821F01001016084F806
:10328000358084F83490CCE7BDE8F88398000020BE
:103290002DE9F041044600F0ABF905465CB102208F
:1032A00084F83500002684F834602068016821F035
:1032B000010101600DE00120BDE8F08100F098F906
:1032C000401B052805D920206065032084F83500BF
:1032D000F2E720680068C007F0D121680A6820483A
:1032E0000240D4E901031843D4E903352B431843C2
:1032F00063691843A3691843E3691843236A1843B1
:103300001043626A042A03D1D4E90B231A43104301
:10331000086020684069656A20F0070128460D436F
:10332000012704280CD1A06A0543E06A40B1204679
:10333000FEF738F920B14020606584F83570BAE7AF
:10334000206845612046FEF719F994F85C203F217A
:1033500091408160666584F835700020ACE700001C
:103360003F8010F02DE9F0410446866D90F834005E
:10337000002501280DD0012084F8340094F8357020
:103380000020012F07D084F8340002252846BDE82C
:10339000F0810220FBE7022784F835706065204643
:1033A000FEF72AF994F85C103F208840B06020684E
:1033B000016841F016010160206C20B120680168AD
:1033C00041F0080101602068016841F001010160DD
:1033D000DCE7000070B5044600F00AF90546601C01
:1033E00002D004480078044400F002F9401BA042D7
:1033F000FAD370BD8C00002070470000044910B55E
:103400000A68024202D00860FFF7F6FF10BD000014
:10341000143C01402DE9F84FDFF89C910022A9F1FE
:10342000040B03274FF00F0C09F1040AABF1040E53
:1034300001250B6895402B40AB426ED10C7904F00E
:103440000304012C01D0022C15D18668540007FA20
:1034500004F826EA0806D1F80C8008FA04F848EACD
:103460000608C0F808804468AC430D79C5F3001520
:103470009540254345600C79E443A40708D0C5680E
:10348000540007FA04F6B5438E68A6402E43C66082
:103490000C7904F00304022C11D1D40800EB84064B
:1034A000356A5407E40E0CFA04F825EA0805D1F849
:1034B000108008FA04F848EA0508C6F82080056874
:1034C000540007FA04F6B5430E7906F00306A64049
:1034D0002E4306604C6814F4403F66D0374C256894
:1034E00045F480452560246822F0030504F48044F7
:1034F0000094334C05EB0408D8F808589407260FBD
:103500000CFA06F4A5432F4CA04201D1002424E07C
:103510002D4CA04202D101241FE046E02B4CA042DA
:1035200001D1022419E02A4CA04201D1032414E065
:10353000284CA04201D104240FE0274CA04201D125
:1035400005240AE0254CA04201D1062405E0244CC4
:10355000A04201D1072400E00824B4402C43C8F85D
:103560000848D9F800404D464E689C43F60200D505
:103570001C432C60DAF8004055464E689C43B60266
:1035800000D51C432C60DBF800405D464E689C4330
:10359000B60300D51C432C60DEF8004075464E682B
:1035A0009C43F60300D51C432C60521C102AFFF4E8
:1035B0003FAFBDE8F88F0000083C014044380240AE
:1035C00000300140000002400004024000080240B8
:1035D000000C02400010024000140240001802409B
:1035E000001C02400AB1816170470904FBE700003A
:1035F00001488068704700008C00002070B504000E
:1036000025D094F83D00002520B984F83C50204690
:1036100000F0B8F8242084F83D002068016821F00B
:10362000010101602068016841F4004101602068E7
:10363000016821F40041016000F08CFF4D4B61688E
:10364000994201D84C4900E04C49884201D20120FE
:1036500070BD4B492268B0FBF1F1566826F03F0679
:103660000E43566062689A4206D94FF496725143EF
:103670004FF47A72B1FBF2F12268491C166A26F007
:103680003F06314311626168994210D84900401EDB
:10369000B0FBF1F2521CC2F30B02042A01D2042047
:1036A00022E0B0FBF1F0401CC0F30B001CE0A2686C
:1036B000F2B301EBC10303EB0116431EB3FBF6F3B8
:1036C0005B1C43F480431B0549D092B301EBC1025C
:1036D00002EB0111401EB0FBF1F0401CC0F30B00E7
:1036E00040F4804040F400402168CA694CF6FF7302
:1036F0009A431043C861D4E9071001432068026867
:1037000022F0C00211430160D4E9030101432068A3
:10371000826848F2FF339A4311438160D4E905106F
:1037200001432068C26822F0FF021143C16001E03A
:103730000EE016E02068016841F001010160256497
:10374000202084F83D00256384F83E50002070BDA1
:1037500001EB4106431EB3FBF6F35B1CB3E701200C
:10376000C2E701EB4101401EB0FBF1F0401CC0F389
:103770000B00B7E7A086010080841E0000093D0011
:1037800040420F00F0B587B0044614216846FCF7AC
:103790005DFF1D492068884233D11C48002501681F
:1037A00041F004010160016801F004010591016824
:1037B00041F0010101600068122600F0010005904F
:1037C0004FF40070CDE90006032704240295CDE9EB
:1037D000037469460E48FFF71DFEA001CDE90006FF
:1037E0000295CDE9037469460A48FFF713FE0748BE
:1037F0001030016841F400010160006800F400002D
:10380000059007B0F0BD0000005C00403038024079
:10381000000802400000024002488168027811441A
:10382000816070478C0000200B4810B5016841F49E
:1038300000710160016841F480610160016841F438
:1038400080710160032000F09FF80F2000F006F85F
:1038500000F050F8002010BD003C024030B5054695
:10386000204887B00024016841F001010160006830
:1038700006A900F001000590684600F045FE039897
:10388000B0B100F067FE400017494FF08042B0FB36
:10389000F1F11648491E026040F2E732C0E9032404
:1038A000C0E90114846101F06DFA040003D015E051
:1038B00000F050FEE8E70D4801F008FB04000DD1D0
:1038C0001C2000F033F8102D07D2002229461C20BE
:1038D00000F03AF80648056000E0012407B02046F1
:1038E00030BD00004038024040420F00842E0020CE
:1038F000900000200C4882B0016841F480410160D2
:10390000006800F4804000900748001F016841F003
:10391000805101600068002200F0805000900F216B
:10392000901E02B000F010B844380240002809DBB5
:1039300000F01F02012191404009800000F1E020C9
:10394000C0F8001170470000F0B40E4B1B68C3F3C1
:103950000223C3F10704042C00D904241D1D072DE4
:1039600001D2002300E0DB1E012606FA04F56D1EDD
:103970000D409D409E40761E164045EA0601F0BC73
:1039800007F0D3BD0CED00E0064A00F00701106817
:103990004FF6FF03184040EA012003490843106036
:1039A000704700000CED00E00000FA057047006869
:1039B000416200207047F0B50368586A39B19C6ACB
:1039C0004FF4827500EB144400204E1E0AE040EADA
:1039D000024098620FE005EB8007DF59401C04EBC2
:1039E0001744C0B2B042F6D344EA02404FF48072AA
:1039F00002EB810158500020F0BDD0F8E00406F041
:103A00005ABB01EBC10200EB8202D0F8E004126A5B
:103A100006F0ABBA01EBC10200EB8202D0F8E00481
:103A2000D2F8602206F0FDBAD0F8E00406F045BBFB
:103A30000A0601F00F0101EBC10100EB810101D584
:103A4000143101E001F51571006807F029BA70B56D
:103A500004460B0601F00F0000EBC00104EB8101EE
:103A60004FF001024FF0000502D54A75143103E012
:103A700081F8555201F51571087094F894040128E5
:103A800008D084F89424206806F028FF84F8945421
:103A9000002070BD022070BD70B5044601F00F001B
:103AA0002279904201D9012070BD0B0601F00F016F
:103AB00001EBC10104EB81014FF001024FF0000561
:103AC00002D54A75143103E081F8555201F515719C
:103AD0008D70087094F89404012808D084F8942418
:103AE000206807F069F884F89454002070BD022023
:103AF00070BD01F00F0101EBC10100EB8100D0F8B6
:103B0000680270472DE9F04104460F0601F00F00EE
:103B100000EBC00104EB81014FF001064FF00005FE
:103B200002D54E75143103E081F8555201F5157137
:103B3000C2F30A0208708A600B714A7802B14883A6
:103B4000022B00D14D7194F89404012809D084F817
:103B50009464206806F010FE284684F89454BDE86A
:103B6000F0810220FBE710B501F00F0404EBC40163
:103B700000EB8101C1E998230023C1F8683281F884
:103B8000553281F85442837901F51571012B00D12A
:103B9000CA618279006807F067F8002010BD70B52F
:103BA00004460D4601F00F002179884201D9012019
:103BB00070BD29064FF000064FF0010206D500EB5C
:103BC000C00104EB81014A75143107E005EBC50122
:103BD00004EB810181F8556201F515718A70087056
:103BE00094F89404012807D084F89424206807F0FE
:103BF0000FF8280702D007E0022070BDA17904F277
:103C00009C42206806F0ACFF84F89464002070BDEC
:103C100010B501F00F0404EBC40100EB8101C1E910
:103C2000082300238B6201234B7501F8144F83791D
:103C3000012B00D1CA618279006807F015F80020D5
:103C400010BD00002DE9F84F05680446284607F02E
:103C5000C2F900287DD1206807F0E9F9002878D062
:103C6000D5F80808C0F30D20C4F8D404206807F084
:103C7000DEF9800704D52068416901F00201416145
:103C8000206807F0D4F9C10604F29C40009034D5B6
:103C90002068816921F0100181612F6A07F00F000F
:103CA00000EBC00004EB8006C7F3434006F5157631
:103CB000022802D0062811D01AE047F6F070074219
:103CC00016D0C7F30A1217462846F16807F0B3F971
:103CD000F0683844F0607069384408E008222846EB
:103CE000009907F0A8F97069C7F30A1108447061D8
:103CF0002068816941F010018161206807F097F91F
:103D000000034FF0010B7AD50026206807F06EF90A
:103D10008046DFF878A46FE05FEAC87069D0F1B23E
:103D2000206807F07CF90746C00707D005EB46116D
:103D3000C1F808BB3146204604F0B2F8380722D556
:103D400005EB46110820C1F8080B2068D0F8409018
:103D500000E018E200EB4610D0F8082BD14505D959
:103D6000110403D54FF40041C0F8081B204600F0B1
:103D7000F0FAD14507D9A079012804D120680121A2
:103D8000009A06F0EDFEF80604D505EB461110206A
:103D9000C1F8080BB8071DD56869000605D5D5F828
:103DA000040840F48061C5F8041806EBC60004EB73
:103DB000800090F8571200F51570012905D10021F7
:103DC000C170F1B2204600F0E7F905EB4611022080
:103DD000C1F8080BB80604D505EB46102021C0F841
:103DE000081BB80405D505EB46104FF40051C0F888
:103DF000081B4FEA5808761CB8F1000F8CD12068D8
:103E000007F015F940036DD5206807F0E8F8804603
:103E1000002664E05FEAC8705ED0F1B2206807F067
:103E2000ECF80746C00723D006F00F010BFA01F0AB
:103E3000D5F834188143C5F8341805EB4610C0F89E
:103E400008B9A07901280FD106EBC60004EB800069
:103E5000D0E907211144016236B9606A20B92068AF
:103E60000121009A06F07CFEF1B22046FFF7C9FD61
:103E7000380704D505EB46110820C1F80809F806F3
:103E800004D505EB46111020C1F80809780604D5C1
:103E900005EB46104021C0F80819B80716D5314681
:103EA000284607F06DF806EBC60004EB8000C17DE4
:103EB0001430012905D10021C170F1B2204600F073
:103EC00067F905EB46110220C1F80809380603D549
:103ED0003146204604F04AF84FEA5808761CB8F1FB
:103EE000000F97D1206807F0A2F8002811DAD5F862
:103EF000040820F00101C5F8041894F8CC04012846
:103F00002BD0204600F00AFA2068416901F00041F8
:103F10004161206807F08BF800050BD5D5F808083B
:103F2000C00702D0204600F03DFA2068416901F444
:103F300000614161206807F07AF8C00467D5D5F8C0
:103F4000040820F00101C5F804181021206807F0CA
:103F500017F800214FF67F3220E0002084F8CC04CF
:103F600001462046FFF722FDCEE705EB4110C0F8E1
:103F70000829D0F8003923F40013C0F80039C0F83C
:103F8000082BD0F8003B23F40013C0F8003BD0F816
:103F9000003B43F00063C0F8003B491C2079884295
:103FA000E3D8D5F81C0840F00111C5F81C18E07BD7
:103FB000002828460DD0D0F8840840F00B01C5F841
:103FC0008418D5F8440840F00B012846C5F8441879
:103FD0000DE0D0F8140842F22B010843C5F814088C
:103FE000D5F8100840F00B012846C5F81018D0F895
:103FF000000820F4FE61C5F80018A1792068009A35
:1040000006F0AEFD2068416901F4805141612068ED
:1040100007F00DF8800415D5206806F0EDFB206848
:1040200006F0CCFFE07100F08FFA0146E2792068DB
:1040300007F060F8204600F05BF92068416901F460
:1040400000514161206806F0F2FF000707D52046C5
:1040500000F068F92068416901F0080141612068B9
:1040600006F0E5FF000615D5A86920F08001A961DA
:1040700001260CE006EBC60004EB800090F8570226
:10408000012803D1F1B22046FFF7D2FC761C20793B
:10409000B042EFD8206806F0CAFFC0021FD5012643
:1040A0005F4614E005EB4610D0F8001906EBC60099
:1040B00004EB8000027E012A08D1002906DAC775C8
:1040C000F0B240F080012046FFF7B2FC761C207968
:1040D000B042E7D82068416901F48011416120684D
:1040E00006F0A5FF800231D501205B4626E005EBF6
:1040F0004011D1F8001B00EBC00204EB820292F8E1
:104100005862012E19D1002917DA94F8D464C1F34A
:10411000004106F001068E420FD182F85732A9699C
:1041200041F08002AA616969090606D4D5F804083D
:1041300040F40070C5F8040803E0401C2179814276
:10414000D5D82068416901F400114161206806F06A
:104150006EFF400007D52046FFF74FFC20684169FD
:1041600001F080414161206806F061FF40070AD5F7
:1041700020684568680702D52046FFF755FC20688F
:10418000416829434160BDE8F88F00000A30544F70
:10419000D0F8E00405F0E3BFD0F8E00405F0F3BF89
:1041A000F8B5040005D094F895042668002510B1F0
:1041B00006E00120F8BD84F89454204600F056F83B
:1041C000032084F89504B6F1A04F00D1A5712068B2
:1041D00006F0C0FC207C8DF8000094E80F0006F08B
:1041E00019FB0226B0BB0021206806F043FF88BB04
:1041F000002101270CE001EBC10004EB80004775B2
:104200000175C1850576C5610562491CC9B2456263
:1042100020798842EFD8002111E001EBC10004EBC6
:10422000800080F8555280F8541280F85852C0F837
:104230005C52C0F86052491CC9B2C0F8645220797F
:104240008842EAD8207C8DF8000094E80F0006F040
:10425000C9FB10B184F89564ABE7657484F8957474
:10426000206806F0B1FB0020F8BD000010B586B054
:10427000044614216846FCF7E9F92068B0F1A04F24
:104280002FD119480021026842F001020260006843
:1042900000F0010005904FF4C05000900220CDE9DD
:1042A0000101032003900A20049069460F48FFF79C
:1042B000B1F80D48001D016841F0800101600A4815
:1042C0001430016841F4804101600068002200F46C
:1042D0008040059005214320FFF736FB4320FFF780
:1042E00025FB06B010BD000030380240000002403F
:1042F00070B50446C079012570B1022801D0FDF7E0
:1043000099FB2946D4F8E00405F0ACFFD4F8E004AA
:10431000BDE8704005F060BF0025F2E7D0F8E0048A
:1043200005F089BFD0F8E00405F08FBF10B5044652
:1043300090F8940401280AD0012084F89404617450
:10434000206806F0C5FE002084F8940410BD022009
:1043500010BDD0F8E02400F29C41104605F08EBF5D
:1043600010B50446006894F89414012909D001217D
:1043700084F89414C168490609D5617B012902D0EB
:1043800005E0022010BD816B41F48031816320681B
:1043900006F0D4FD206806F009FB002084F89404A0
:1043A00010BD000010B50446D0F8E00405F0A8FFE9
:1043B0002068D0F8001E41F00101C0F8001EE07A2C
:1043C000002804D00248016841F00601016010BDD8
:1043D00010ED00E02DE9F0470D46040065D0DFF850
:1043E0001491D9F80000EFB200F00700A84207D2FC
:1043F00089F80070D9F8000000F00700A84254D1F5
:1044000020683D4E810712D5400703D5306840F43F
:10441000E05030602078000703D5306840F46040F9
:1044200030603068A16820F0F000084330602078E8
:10443000C0072DD0304960680839012812D0022801
:1044400013D0032811D00968890700292DDA3168B3
:1044500021F0030101433160FFF7CAF8804641F2C1
:10446000883A0EE009688903EFE709688901ECE7FB
:10447000FFF7BEF8A0EB0801514502D90320BDE8C3
:10448000F0873068616800F00C00B0EB810FEFD16D
:10449000D9F80010484601F00701A94207D9077072
:1044A000006800F00700A84201D00120E7E720786B
:1044B000400705D53068E16820F4E05008433060DB
:1044C0002078000706D53068216920F4604040EA72
:1044D000C100306000F05EF83168084AC1F3031192
:1044E000515CC8400649086006480068FFF7B6F905
:1044F0000020C4E7003C02400838024068E400089D
:1045000098000020900000200F2202600C4A1368DF
:1045100003F003034360136803F0F0038360136840
:1045200003F4E053C36012684FF4E05303EAD2028D
:1045300002610448006800F007000860704700004E
:1045400008380240003C0240014800687047000003
:10455000980000200448054900680968044AC1F32E
:104560008221515CC8407047980000200838024002
:1045700078E400080448054900680968044AC1F362
:104580004231515CC8407047980000200838024012
:1045900078E40008154810B5006810F00C011448C4
:1045A00013D0144B04290FD008290ED10F4C241F0F
:1045B000216801F03F022168490207D52068C0F355
:1045C0008810A0FB030106E0184610BD2168C1F366
:1045D0008811A1FB00010023FBF720FF2168C1F334
:1045E0000141491C4900B0FBF1F010BD0838024000
:1045F0000024F400001BB7002DE9F84F040075D02B
:104600002078DFF838A3C007AAF1040548D00AF1E2
:1046100004000168C1F38101012908D00068C0F3DA
:10462000810002280AD1DAF80000400206D5286885
:10463000800335D560680028E1D031E06068B0F5CE
:10464000803F10D0B0F5A02F286810D020F4803023
:104650002860286820F4802028606068A0B1FEF7F8
:10466000C7FF06460CE0286840F48030F4E740F4C9
:1046700080202860F7E7FEF7BBFF801B642871D815
:1046800028688003F7D50BE0FEF7B2FF064604E08A
:10469000FEF7AEFF801B6428F1D828688003F7D4AA
:1046A0002078DFF89C9280074FF0000B3DD5A3489F
:1046B000001D016811F00C0F08D00068C0F38100E4
:1046C00002280AD1DAF80000400206D428688007E0
:1046D00015D5E068012809D111E0E068B8B10120E2
:1046E000C9F80000FEF784FF064605E022E1FEF768
:1046F0007FFF801B0228C2D828688007F7D528686A
:10470000216920F0F80040EAC10028600DE0C9F8F6
:1047100000B0FEF76DFF064604E0FEF769FF801B60
:1047200002281FD828688007F7D42078000722D5F0
:10473000824F84486169703771B101210160FEF7D1
:1047400057FF064604E0FEF753FF801B022809D8F6
:1047500038688007F7D50EE0C0F800B0FEF748FFD4
:10476000064605E082E0FEF743FF801B02287DD865
:1047700038688007F7D42078400765D56F484FF038
:1047800000083C300068C0000BD46C483C30016825
:1047900041F08051016000684FF0010800F0805046
:1047A0000090694F3868C0050FD4386840F48070B5
:1047B0003860FEF71DFF064604E0FEF719FF801B78
:1047C000022853D83868C005F7D55C4FA0686C370D
:1047D00001280FD00528386810D020F0010038607B
:1047E000386820F004003860A068B0B1FEF700FF20
:1047F00006460EE0386840F00100F4E740F004009F
:104800003860F7E7FEF7F4FE811B41F28830814201
:1048100063D838688007F5D50DE0FEF7E9FE064657
:1048200006E0FEF7E5FE811B41F28830814254D854
:1048300038688007F5D4B8F1000F05D03F483C3008
:10484000016821F080510160A069B8B33B49091D9E
:104850000968C1F38101022946D00228584606D0D2
:10486000C9F86000FEF7C4FE044639E035E04F4663
:10487000C9F86000FEF7BCFE064604E0FEF7B8FE8D
:10488000801B022829D828688001F7D4D4E90701C1
:104890000843A16A2D4A490802EB0141626A41EAD4
:1048A0008211084394F82C1040EA0161CAF8001004
:1048B00001203866FEF79CFE044605E03CE0FEF76A
:1048C00097FE001B022808D828688001F7D533E03E
:1048D000FEF78EFE001B022802D90320BDE8F88FE8
:1048E00028688001F4D427E00128F7D0DAF8000026
:1048F000E26900F4800191421CD1226A00F03F017C
:10490000914217D147F6C071626A0140B1EB821F34
:1049100010D1A26A4FF0FF3300F4403103EB520292
:10492000B1EB024F06D194F82C1000F07060B0EBA0
:10493000016F01D00120D1E70020CFE70438024009
:1049400000004742800E4742007000400000FFFF19
:1049500070B5040009D0606A002540B12561656129
:10496000A56294F8510040B10CE0012070BD606870
:10497000B0F5827FF4D0E561F2E784F8505020462C
:1049800000F044F8022084F851002068016821F00A
:1049900040010160A088218900F4827001F4044183
:1049A0000843A18901F400610843217C01F0020160
:1049B0000843217D01F001010843218B01F40071BE
:1049C0000843217F01F03801084394F8201001F0DA
:1049D00080010843218D01F40051084321680860DB
:1049E000A069042101EA104094F8241001F010019C
:1049F0000843216848602068C16921F40061C161F1
:104A00006565012084F85100002070BD2DE9F04358
:104A100087B0044614216846FBF718FE3449206825
:104A2000884261D133480025016841F4805101601A
:104A3000006800F4805005902E481438016841F059
:104A400002010160016801F002010591016841F075
:104A5000010101600068022600F0010005901820A5
:104A600001274FF003084FF005098DE8C10369469F
:104A70002148FEF7CFFC80208DE8C10369461F481E
:104A8000FEF7C8FC1F4E1E484FF0C0673060C6E9F5
:104A900001754FF48068C6E9035875617812B561F5
:104AA000C6E9075030467562FEF7F2FB08B1FCF725
:104AB000C1FFE664B463134E114860361830E6E86F
:104AC00002074020A6E82101C00246F81459B5614A
:104AD000C6E907500B4875626030FEF7D9FB08B194
:104AE000FCF7A8FFA664B46307B0BDE8F08300003C
:104AF00000300140443802400004024000000240FF
:104B000040640240540E00202DE9FF4F81B01F4643
:104B10009346044601250E9EFEF76AFD804694F8F2
:104B200051006168012806D0B1F5827F3CD1A168AF
:104B3000C9BB042838D10298002870D0BBF1000FFF
:104B4000FBD0002FF9D094F8500001282CD04FF062
:104B5000010A84F850A094F85100042802D00520DE
:104B600084F851004FF00009C4F85490C4F838B0EC
:104B7000E787A78702992163E786A786C4F8409054
:104B8000C4F8449020680168490603D4016841F0E4
:104B900040010160E068B0F5006F606808D0E8B3DC
:104BA000012F47D07DE0FFE7022005B0BDE8F08F80
:104BB00008B1012F37D1206B21680088C860206BB5
:104BC000801C2063E08E401EE0862CE02068816817
:104BD00089070DD5E18E59B1012D09D1216B0988C5
:104BE000C160206B801C2063E08E401EE0860025A3
:104BF00020688168C9070BD0E18F49B1C068A16BFB
:104C00000880A06B801CA063E08F401EE087012518
:104C1000FEF7EEFCA0EB0800B04201E00AE064E021
:104C200001D3701C4ED1E08E0028CFD1E08F002838
:104C3000CCD13CE0206B216800780873206B401CCD
:104C40002063E08E401EE0862BE0206881688907A3
:104C50000DD5E18E59B1012D09D1216B0978017370
:104C6000206B401C2063E08E401EE08600252068FB
:104C70008168C9070BD0E18F49B1C068A16B08708A
:104C8000A06B401CA063E08F401EE0870125FEF76B
:104C9000AFFCA0EB0800B04202D3701C01D011E0C1
:104CA00086B1E08E0028D0D1E08F0028CDD14246D9
:104CB0003146204603F06CFF50B12020606584F837
:104CC000509012E084F851A084F8509003206CE7D3
:104CD000A06818B92068C1688068009084F851A065
:104CE00084F85090606D0028F1D001205DE7704796
:104CF0007047000070B590F83C20012A32D00125A1
:104D000080F83C50022280F83D2002685368946885
:104D100023F070060B6833435360134B02689A42CA
:104D200014D0B2F1804F11D0104B9A420ED0104BDC
:104D30009A420BD00F4B9A4208D00F4B9A4205D0A3
:104D40000E4B9A4202D00E4B9A4204D1496824F08D
:104D500080031943916080F83D50002180F83C1099
:104D6000084670BD022070BD0000014000040040F4
:104D700000080040000C00400004014000400140D9
:104D80000018004010B5040003D094F83D0010B1A5
:104D900007E0012010BD002084F83C00204600F010
:104DA0001FF8022084F83D00211D206804F086F9D8
:104DB000012084F8460084F83E0084F83F0084F81F
:104DC000400084F8410084F8420084F8430084F8ED
:104DD000440084F8450084F83D00002010BD000028
:104DE00008B50068174A1849904211D1086840F088
:104DF000020008600868002200F00200009005210F
:104E00001D20FEF7A1FDBDE808401D20FEF78EBD68
:104E10000E4A904207D1086840F004000860086814
:104E200000F004000BE00A49884209D10648001D41
:104E3000016841F400310160006800F40030009026
:104E400008BD000000040040403802400008004057
:104E50000044014090F83D10012901D00120704725
:104E6000022180F83D1000681149884214D0B0F149
:104E7000804F11D00F4988420ED00F4988420BD085
:104E80000E49884208D00E49884205D00D49884213
:104E900002D00D49884204D1816801F0070106293A
:104EA00003D0016841F0010101600020704700005B
:104EB000000001400004004000080040000C0040D9
:104EC00000040140004001400018004090F83D10EF
:104ED000012901D001207047022180F83D100168AE
:104EE000CA6842F00102CA6000681149884214D0C1
:104EF000B0F1804F11D00F4988420ED00E49884240
:104F00000BD00E49884208D00D49884205D00D4982
:104F1000884202D00C49884204D1816801F007011F
:104F2000062903D0016841F00101016000207047AB
:104F3000000001400004004000080040000C004058
:104F400000040140004001400018004070B50446D4
:104F500090F83C000025012817D0012684F83C6019
:104F6000022084F83D002068826822F0770222F453
:104F70007F4282600868502838D00DDC20284FD04E
:104F800005DC90B3102811D14AE0022070BD302812
:104F900046D040280AD13BE060282FD070280DD0A1
:104FA000B0F5805F03D0B0F5005F12D0012584F822
:104FB0003D60002084F83C00284670BDCB68D1E9F4
:104FC0000121206804F0EFF82068816841F0770142
:104FD00009E0CB68D1E90121206804F0E4F82068F9
:104FE000816841F480418160E1E719E0CA6849685D
:104FF000206804F0C2F95021206806E0CA684968B8
:10500000206804F0CBF96021206804F0D6F8CEE7E0
:10501000CA684968206804F0B0F940212068F4E7C4
:10502000226801461046F0E770472DE9F04104463A
:105030000068C66805694FF00007A90713D5B107D6
:1050400011D5F91E01610120207720688069800751
:10505000204602D0FFF7E8FF04E000F0C1F8204648
:1050600000F053F92777680716D5700714D5216823
:105070006FF004000861022020772068806910F436
:10508000407F204602D0FFF7CFFF04E000F0A8F8F1
:10509000204600F03AF92777280715D5300713D5B1
:1050A00021686FF008000861042020772068C0693B
:1050B0008007204602D0FFF7B7FF04E000F090F829
:1050C000204600F022F92777E80616D5F00614D519
:1050D00021686FF010000861082020772068C069FF
:1050E00010F4407F204602D0FFF79EFF04E000F05E
:1050F00077F8204600F009F92777E80708D0F0078D
:1051000006D021686FF001000861204600F066F9C2
:10511000280608D5300606D521686FF080000861A2
:105120002046FFF7E4FD680608D5700606D521681D
:105130006FF040000861204600F057F9A8060AD534
:10514000B00608D521686FF0200008612046BDE850
:10515000F041FFF7CDBDBDE8F081000010B586B08D
:10516000044614216846FBF771FA2068174C0023A7
:1051700017490222A0420FD1086840F008000860D9
:105180000868694600F00800059050038DE80D009E
:10519000CDE903320F4814E00F4B984213D1086851
:1051A00040F0200008600868694600F02000059083
:1051B0004020CDE900020120CDE902020320049045
:1051C0000648FEF727F906B010BD000000080040B1
:1051D00030380240000C02400044014000140240FC
:1051E000704770B5044690F83C0000260D46012833
:1051F0000FD0012084F83C006AB1042A1DD0082A8F
:105200002FD00C2A3FD00126002084F83C003046E5
:1052100070BD022070BD206803F0D8FF206881694E
:1052200041F0080181612068816921F004018161F8
:10523000206881692A69114311E0206803F0F6FFB4
:105240002068816941F4006181612068816921F4ED
:1052500080618161206881692A6941EA0221816156
:10526000D2E7206804F018F82068C16941F008010D
:10527000C1612068C16921F00401C1612068C16970
:105280002A69114311E0206804F03AF82068C169E6
:1052900041F40061C1612068C16921F48061C1618C
:1052A0002068C1692A6941EA0221C161ACE710B5F1
:1052B000040003D094F83D0010B107E0012010BDB8
:1052C000002084F83C00204600F01EF8022084F8FC
:1052D0003D00211D206803F0F1FE012084F8460006
:1052E00084F83E0084F83F0084F8400084F84100D0
:1052F00084F8420084F8430084F8440084F84500B0
:1053000084F83D00002010BD7047704710B504467A
:1053100049B104290AD008290BD094F8410001288A
:105320000AD0012010BD94F83E00F8E794F83F0041
:10533000F5E794F84000F2E70220B1B3042938D031
:10534000082939D084F841000122206803F01EFFAB
:105350001B4920681B4A884201D0904203D1436C0C
:1053600043F4004343642068884213D0B0F1804F77
:1053700010D0154988420DD0144988420AD01449EA
:10538000884207D0904205D01249884202D0124983
:10539000884204D1816801F00701062903D0016821
:1053A00041F001010160002010BDFFE784F83E00DC
:1053B000CAE784F83F00C7E784F84000C4E700006C
:1053C00000000140000401400004004000080040CB
:1053D000000C004000400140001800400068B0F19F
:1053E000804F01D1FEF718BA704770477047704779
:1053F000F8B5016804460868CA684B6910F00F0FD9
:105400004FF0000559D003F0010602F490773743BE
:1054100065D0C10705D0D10503D5616C41F001010C
:105420006164410705D5D90703D0616C41F00201E1
:105430006164810705D5D90703D0616C41F004018F
:105440006164010707D502F02001314303D0616C8C
:1054500041F008016164616C00293AD0800604D5EE
:10546000900602D5204604F032F820684069616C4D
:10547000C0F38010090700D460B3204603F0F2FFA8
:1054800020684069400621D52068143050E8001F8C
:1054900021F0400140E80012002AF5D1E06BA8B1EC
:1054A00072490165E06BFDF710FE002811D0E06B3A
:1054B000016D01B0BDE8F040084783060FD59306A3
:1054C0000DD52046BDE8F84004F001B82046FFF7AE
:1054D0008EFFF8BD2046FFF78AFF6564F8BD266B96
:1054E0002023012E7ED1C6067CD5D6067AD5086843
:1054F0004868009048694FF0020640064DD5E26BBF
:10550000106840684FF480770004000C3AD0A18DF9
:10551000814237D9E085D069B8422DD020680C305F
:1055200050E8001F21F4807140E80012002AF5D1F4
:105530002068143050E8001F21F0010140E80012FB
:10554000002AF5D12068143050E8001F21F04001F6
:1055500040E80012002AF5D184F842302563206823
:105560000C3050E8001F21F0100140E80012002A22
:10557000F5D1E06BFDF760FD6663A08DE18D401A0B
:1055800081B206E0A18D8142A8D1D069B842A5D1EF
:1055900066632046FFF72AFFF8BDA08DE18D401A13
:1055A00081B2E08D0028F7D00029F5D020680C30BA
:1055B00050E8002F22F4907240E80027002FF5D128
:1055C0002068143050E8002F22F0010240E8002744
:1055D000002FF5D184F84230256320680C3050E864
:1055E000002F00E006E022F0100240E80023002B2C
:1055F000F3D1CDE705062BD5150629D594F8410042
:105600002128C9D1A068B0F5805F01D12069B0B16F
:10561000206A411C2162216800784860E08C401EAD
:105620000004000CE084B7D12068C16821F080013B
:10563000C1602068C16841F04001C160F8BD206AC6
:105640000088C0F308004860206A801C2062E5E7FB
:105650004006F3D55006F1D5CA68204622F0400234
:10566000CA6084F8413000F0ABF9F8BDC19300087E
:1056700070B5040004D094F84100002510B106E094
:10568000012070BD84F84050204600F023F824200B
:1056900084F841002068C16821F40051C1602046AF
:1056A00003F076FF2068016921F4904101612068D0
:1056B000416921F02A0141612068C16841F400512B
:1056C000C1606564202084F8410084F8420065636D
:1056D000002070BD2DE9F04F87B0044614216846C4
:1056E000FAF7B4FF8848DFF81C821438D4F800C0F9
:1056F000854A022703210723002506154FF0400B9A
:105700004FF0006AC44564D1D2F800C04CF0100CD0
:10571000C2F800C0126802F010020592026842F05E
:1057200002020260026802F002020592026842F080
:10573000010202600068884600F0010005908020A8
:10574000CDE900070DF1080C99468CE82003694665
:105750006E48FDF75FFE7010CDE900070DF1080CF3
:1057600069468CE820036A48FDF754FE6A4F694891
:10577000D046C7E90356B14607F1180C86154FF419
:10578000803A7D618CE860047D6287E801093846D3
:10579000FDF77EFD08B1FCF74DF9A763BC635E4FD2
:1057A0005C48603730383860C7E90185C7E903597C
:1057B00007F118017D6181E8600438467D62FDF7DC
:1057C00067FD08B1FCF736F9E763BC6307B0BDE8D5
:1057D000F08FDFF848814FF44039C4453BD14A4A45
:1057E000121FD2F800C04CF4802CC2F800C012681E
:1057F00002F480220592026842F00402026000680E
:10580000029500F004000590CDE903134FF44060C9
:10581000CDE9000769464248FDF7FCFD3E4F41488F
:10582000C0373860C7E901A5C7E9035680157D6117
:10583000C7E90650C7E908953846FDF729FD08B1C4
:10584000FCF7F8F8E763002205212720BC63FEF788
:105850007BF8272052E0344B9C45B7D1136843F0C6
:1058600020031360126802F020020592026842F0E1
:10587000400202600068029500F0400005904FF47D
:105880008440CDE900070820CDE903106946274888
:10589000FDF7C0FD1F48264F90384FF02068386054
:1058A000C7E90185C7E903567D614FF40030BD614A
:1058B000C7E9075038467D62FDF7EAFC08B1FCF7FE
:1058C000B9F8E763BC631A4F124860371838C7E964
:1058D00003567D61BD61C7E907597D6287E801090B
:1058E0003846FDF7D5FC08B1FCF7A4F8A763002201
:1058F00005214720BC63FEF727F84720FEF716F87E
:1059000064E70000001001404438024000040240F7
:1059100000000240B8640240C4100020004800406B
:1059200000080240286002400014014000180240B4
:10593000E41100207047000037B5044690F841009C
:10594000202801D002203EBD019901B3FAB12162A5
:10595000A284E28400206064212384F84130A56B96
:10596000144BEB63A56B144B2B64A56B134BEB64CF
:10597000A36B186520681346A56B021D2846FDF72A
:10598000F1FC30B110206064202084F84100012037
:105990003EBD21686FF0400008602068143050E878
:1059A000001F41F0800140E80012002AF5D10020DC
:1059B0003EBD0000199400085B940008CF930008D6
:1059C0007047704770B5044600203C4D2074A27BA0
:1059D000288861684243D4F8F400FAF7DBFDA17B24
:1059E000288841436068FAF731FEA07B10FB00F184
:1059F00028884143D4F81801FAF728FE207BA17BC0
:105A000010FB01F128884143D4F80C01FAF71EFE7F
:105A100000202BE0D4F8F41001EB800292ED000A94
:105A2000B5EEC00AF1EE10FA1ED0227C01EB820125
:105A300081ED000A227C616A8854A169227B01EB16
:105A40008001237C91ED000A6169095C12FB03115E
:105A50006FF0030202EB8101D4F80C21114481EDB7
:105A6000000A217C491C2174401CC0B2A17B8142E8
:105A7000D0D8002010E0636AE2691B5C02EB83026D
:105A800092ED000A10FB0101D4F81821401C02EB32
:105A90008101C0B281ED000A217C8142EBD8C8B2FD
:105AA00024F8780F14F86C0C6080208161812183C8
:105AB00061832084618424F8301C70BD4805002077
:105AC00010EE100A0749DFED080A884202DB30EECB
:105AD000600A704710EE100A04498842F9D330EE8C
