:020000040800F2
:10000000F8BD0020310300084D7D0008115C000898
:10001000AB7B0008870D000887BB000800000000CC
:100020000000000000000000000000007102000855
:100030004D18000800000000CD020008FD960008E1
:100040004B0300084B0300084B0300084B03000858
:100050004B0300084B030008B71800084B030008C7
:100060004B030008BD180008C31800084B03000824
:10007000911500084B0300084B0300084B030008D0
:100080004B0300084B0300084B0300084B03000818
:10009000A90D00084B0300084B030008C91800080D
:1000A0004B0300084B0300084B0300084B030008F8
:1000B000299A0008359A00084B0300084B030008F2
:1000C0004B0300084B0300084B0300084B030008D8
:1000D0004B0300084B0300084B03000821A0000855
:1000E0004B0300084B0300084B0300084B030008B8
:1000F0004B0300084B0300084B0300084B030008A8
:100100004B0300084B0300084B0300084B03000897
:100110004B0300084B0300084B0300084B03000887
:100120004B0300089D150008A9150008B515000827
:100130004B0300084B0300084B0300084B03000867
:100140004B030008B50D00084B030008897F000829
:10015000C1150008CD150008D915000835A0000804
:100160004B0300084B0300084B0300084B03000837
:100170004B0300084B0300084B030008000000007D
:100180004B0300084B03000800F002F800F060F891
:100190000AA090E8000C82448344AAF10107DA45E2
:1001A00001D100F055F8AFF2090EBAE80F0013F0D4
:1001B000010F18BFFB1A43F001031847180C010088
:1001C000380C01000A444FF0000C10F8013B13F00A
:1001D000070408BF10F8014B1D1108BF10F8015BA0
:1001E000641E05D010F8016B641E01F8016BF9D193
:1001F00013F0080F1EBF10F8014BAD1C0C1B09D1EA
:100200006D1E58BF01F801CBFAD505E014F8016B5B
:1002100001F8016B6D1EF9D59142D6D370470000ED
:100220000023002400250026103A28BF78C1FBD8FF
:10023000520728BF30C148BF0B6070471FB50FF091
:10024000C2FE9DE8030000F047FA1FBD10B510BDC7
:1002500000F0AEFA1146FFF7F1FF0DF0C1FB00F020
:10026000CCFA03B4FFF7F2FF03BC00F0FDFA000084
:100270002C4B19680868B0E8F04F80F30988BFF389
:100280006F8F4FF0000080F311887047000000006E
:1002900008480068006880F308884FF0000080F389
:1002A000148862B661B6BFF34F8FBFF36F8F00DF64
:1002B00000BF00BF08ED00E0DFF80C00016841F46A
:1002C00070010160704700BF88ED00E0EFF3098026
:1002D000BFF36F8F134B1A681EF0100F08BF20ED8D
:1002E000108A20E9F04F106009B44FF0500080F3FD
:1002F0001188BFF34F8FBFF36F8F0EF0C3FA4FF02B
:10030000000080F3118809BC19680868B0E8F04F54
:100310001EF0100F08BFB0EC108A80F30988BFF3FD
:100320006F8F70479C000020EFF30580704700003E
:100330000948804709480047FEE7FEE7FEE7FEE779
:10034000FEE7FEE7FEE7FEE7FEE7FEE704480549B5
:10035000054A064B70470000BD9700088901000858
:10036000F8A90020F8BD0020F8B90020F8B9002055
:1003700070B5064600F094F9056806F10B0020F010
:100380000704B4429CBF002070BD2B466A68BAB116
:100390001068A04210D304F1080188423CBF5068A5
:1003A000586007D35168101941601168091B01603A
:1003B00058601460101D70BD13465268002AE7D1C2
:1003C0002146284600F074F90028DED170BD70B5D2
:1003D0000446051F00F064F90068002C14BF44684F
:1003E00070BD002C18BFAC423CBF20466468F8D3F7
:1003F00001680A18AA4218BF456003D12A68054659
:100400001144016028684119A1421CBF6C6070BD95
:100410006168696021680844286070BD53EA020C75
:1004200000F069802DE9F04B4FF00006002B1FBF54
:10043000B3FA83F503FA05F424FA05F65E4012BF19
:100440001643B2FA82F502FA05F4C5F120051EBF83
:1004500022FA05FC44EA0C04203556EA044C4FEA23
:10046000144418BF641C4FF000084FF0000990427C
:1004700071EB030C39D3002919BFB1FA81F701FAE6
:1004800007F6B0FA80F700FA07F6C7F120071EBF9B
:1004900020FA07FC46EA0C062037B6FBF4FCA7EB73
:1004A0000507103F07F01F0BCBF120060CFA0BFBE2
:1004B0002CFA06F644BFB3460026202FA4BF5E46A2
:1004C0004FF0000B5BEA060C08BF4FF0010B19EB75
:1004D0000B09ABFB027C48EB0608C01B06FB02CCF9
:1004E0000BFB03CC71EB0C01C1E70B460246414606
:1004F0004846BDE8F08B13B54FF000004FF0000107
:10050000AFF30080BDE81C407047032A40F2308002
:1005100010F0030C00F0158011F8013BBCF1020F44
:10052000624498BF11F801CB00F8013B38BF11F8C5
:10053000013BA2F1040298BF00F801CB38BF00F8DC
:10054000013B11F0030300F02580083AC0F0088059
:1005500051F8043B083A51F804CBA0E80810F5E73D
:10056000121D5CBF51F8043B40F8043BAFF3008020
:10057000D20724BF11F8013B11F801CB48BF11F895
:10058000012B24BF00F8013B00F801CB48BF00F865
:10059000012B704710B5203AC0F00B80B1E818501D
:1005A000203AA0E81850B1E81850A0E81850BFF45D
:1005B000F5AF5FEA027C24BFB1E81850A0E81850FC
:1005C00044BF18C918C0BDE810405FEA827C24BF50
:1005D00051F8043B40F8043B08BF7047D20728BFDE
:1005E00031F8023B48BF11F8012B28BF20F8023B2D
:1005F00048BF00F8012B704702F0FF0343EA0322D3
:1006000042EA024200F002B84FF000020429C0F0B2
:10061000128010F0030C00F01B80CCF1040CBCF134
:10062000020F18BF00F8012BA8BF20F8022BA1EB86
:100630000C0100F00DB85FEAC17C24BF00F8012B6B
:1006400000F8012B48BF00F8012B70474FF0000263
:1006500000B5134694469646203922BFA0E80C50B8
:10066000A0E80C50B1F12001BFF4F7AF090728BF93
:10067000A0E80C5048BF0CC05DF804EB890028BF0F
:1006800040F8042B08BF704748BF20F8022B11F038
:10069000804F18BF00F8012B7047704770477047B4
:1006A000004870479CA9002070477047704770470A
:1006B00038B504460A4600206946AFF3008000289A
:1006C00008BF38BD02460099204600F04FF80120CF
:1006D00038BD012000F064B8F8B5AFF300800546DE
:1006E00000200C46102000BF0646A819A0420DD9D4
:1006F000324669460020AFF30080070008BF00F0D3
:100700004FF80098A04218BF0546C419FFF7C8FF6C
:1007100005600746F01D20F007004619284600F046
:100720000AF8B44208BFF8BDA21B31463868BDE8DC
:10073000F84000F01BB800210160C0E901107047CB
:100740001020704710B500F00DF8006810BD10B50E
:10075000044600F007F8046010BD00000048704730
:1007600094A900200048704794A9002003464068DF
:100770008C46002818BF88423CBF03464068F8D327
:1007800018681844884207D00CF1030020F00700D5
:10079000001D411A521A0146081D0A60FFF717BED4
:1007A00010B500F039F8BDE8104000F02FB87047E0
:1007B0007546FFF7D3FFAE4605006946534620F065
:1007C0000700854618B020B5FFF7C0FDBDE8204002
:1007D0004FF000064FF000074FF000084FF0000BFD
:1007E00021F00701AC46ACE8C009ACE8C009ACE8B0
:1007F000C009ACE8C0098D46704710B50446AFF398
:1008000000802046BDE81040FFF72BBD002801D036
:1008100000F02AB87047000010B5012805D000216B
:1008200003A000F027F8012010BD09A1F8E700009F
:1008300053494752544D454D3A204F7574206F66C9
:100840002068656170206D656D6F72790000000031
:100850003A2048656170206D656D6F727920636F15
:10086000727275707465640001491820ABBEFEE7B2
:100870002600020070B505460C460A2000E06D1CFB
:1008800000F011F835B128780028F8D102E0641C96
:1008900000F009F814B120780028F8D1BDE87040C4
:1008A0000A20AFF3008008B569468DF800000320E8
:1008B000ABBE08BD10B506490120064C087002E029
:1008C00001200DF0D3F820780028F9D010BD0000E9
:1008D000B0040020BE04002008F0D0BD70B504466E
:1008E0001C480D460078002832D0E07800282FD030
:1008F000D4F8090000EE100AB5EEC00AF1EE10FAC5
:1009000026D0D4F8050000EE100AB5EEC00AF1EECC
:1009100010FA1DD0E8680FF0E5FA41EC100B9FEDDE
:100920000E1B0BF025FE51EC100B0EF0E7FC00EE59
:10093000100AD4F80900641D00EE900A01F0B0F826
:10094000D5ED030A30EE200A85ED080A20686862BA
:1009500070BD0000C0040020000000000080764050
:1009600001221021014802F0E5BE00000000024013
:1009700000221021014802F0DDBE0000000002400C
:1009800001221146014802F0D5BE000000040240D9
:1009900000220121014802F0CDBE00000004024007
:1009A00070B50446FFF7E4FF922000F02DF906220F
:1009B0006549122000F00AF9FFF7D2FF624DA5F158
:1009C0001C0668782978000200B2084300EE100A7D
:1009D000D6ED030AB8EEC00A60EE200A94ED080ACC
:1009E00060EE800AC4ED000AE878A978000200B23F
:1009F000084300EE900AB8EEE01AD6ED030A21EEA5
:100A0000201A21EE001A84ED011A68792979000272
:100A100000B2084301EE100A3081B8EEC11A61EE4F
:100A2000200A20EE800A84ED020AFFF7B1FF0822B7
:100A30002946002000F0CAF8FFF7A2FF28780F2807
:100A40005AD1F078A9780028E8784FEA002000B25F
:100A500040EA01002BD000EE100AD4ED090AB8EEEE
:100A6000C01A96ED040A51EE000AC4ED030A687933
:100A70002979000200B2084300EE900A94ED0A1AA8
:100A8000F8EEE00A10EE801A84ED041AE879A979EC
:100A9000000200B2084300EE900A308194ED0B1A78
:100AA000F8EEE00A10EE801A84ED051A24E000EE5C
:100AB000100AF8EEC00A96ED040A60EE800AC4ED52
:100AC000030A68792979000200B2084300EE900A0F
:100AD000F8EEE00A60EE800AC4ED040AE879A9792C
:100AE000000200B2084300EE900A3081F8EEE00AFE
:100AF00020EE800A84ED050AFFF73AFFA22000F0FD
:100B000083F802221049222000F060F8FFF728FF46
:100B100028786978C00040EA51103081B0F5806FC4
:100B200002DBA0F500603081B6F90800B4EE001ACF
:100B300000EE100AF8EEC00AB3EE070A00EE810AD2
:100B400084ED070A70BD0000C401002070B50D4699
:100B50001649174C08600020A0700CF0D5FCA17855
:100B60000843A0700CF064FDA1780843A0701DB18B
:100B7000104800F0BDF916E00E489FED0F0A80ED19
:100B8000090A9FED0E0A80ED0A0A80ED0B0A9FED1F
:100B90000C0A80ED0C0A9FED0B0A80ED080A9FED10
:100BA0000A0A80ED060AA07870BD0000F00100205E
:100BB000A801002008910020AC38223BB016CE39A5
:100BC0003F161B41C48B813F0000484270B514465C
:100BD0000D4640F0800000F017F806E0552000F0C8
:100BE00013F8641E05F8010BE4B2002CF6D170BDB9
:100BF00010B50C4640F0800000F006F8552000F0DB
:100C000003F8207010BD000001B582B04FF47A7077
:100C100000900548012301AA02A9006804F01CF80D
:100C20009DF804000EBD0000F001002010B50C4638
:100C3000FFF7EAFF2046BDE81040FFF7E5BF0000E0
:100C400010B506490120064C087002E001200CF0A6
:100C50000DFF20780028F9D010BD000018050020F5
:100C6000BE04002010B50C4C6088401C80B260802F
:100C7000B0F57A7F01D300206080A078C00701D151
:100C800008F084FBA078800705D108F059FCBDE886
:100C9000104008F0B3BB10BD18050020B6EE002AC6
:100CA00092ED020AB0EE421AD2ED030A00EE401AAB
:100CB000D0ED001AD0ED013A00EEE01A21EE213A13
:100CC00092ED011AD2ED001A61EE002A41EEE02AFF
:100CD00061EE200A41EE800A02EEA33A90ED020A8C
:100CE000F0EE002A00EE803A23EE220A81ED000A9F
:100CF000D2ED010AD2ED021A92ED001A92ED030A2A
:100D000020EEA13AD0ED003A90ED014A01EE003A12
:100D100023EE233AF0EE423A40EEE03A40EE403A1B
:100D200021EE800A01EE600A03EE843AD0ED020A59
:100D300000EE203A23EE220A81ED010AD2ED010AEB
:100D4000D2ED031A92ED020A92ED001A20EEA13ABA
:100D500060EE211AD0ED003A00EEE02A01EE403AB2
:100D600041EE201A90ED011A00EE402A23EE233ABC
:100D700090ED020A01EE813A02EE003A23EE220AD9
:100D800081ED020A7047FEE7024900200968C86346
:100D900070470000540F0020024A136898621068E0
:100DA000C1637047540F0020014801F014BF0000D8
:100DB000500D0020014801F00EBF0000780D00200A
:100DC00010B58AB000200124CDE9060408940090F3
:100DD0000190029003900590049069460D4801F03F
:100DE000E3FD0C4802F079F902210A4801F062FDA6
:100DF0000E200990CDE904406946074801F0D4FD72
:100E0000054802F06AF91021034801F053FD0AB0C9
:100E100010BD0000500D0020780D0020002070470C
:100E20000020704710B500220449054809F0F2FA85
:100E30000449034809F0E1FA002010BD7C26002097
:100E40009C1200207C1E002010B504460146054877
:100E500009F0D3FA204608F061F9024809F0A6FA31
:100E6000002010BD9C120020002070470A4609494E
:100E700010B5D1F8BC12D1F8141209B1012010BD7F
:100E80000146044809F0C6FABDE81040014809F0DF
:100E90003BBB00009C12002010B502004FF6FF7013
:100EA0000BD0064C491E08D312F8013B4340DBB27D
:100EB00034F8133083EA1020F4E710BD640201080F
:100EC00030B50C46050011D0022C0FD9A11EFFF73A
:100ED000E3FF2919C2B211F8023C9A4206D111F877
:100EE000011CB1EB102F01D1012030BD002030BD1D
:100EF0002DE9F04F04462DED048B89B000200090C1
:100F0000019000F011FCEB4E02AF0DF1140886EDDC
:100F1000050A4FF07C5BDFF8A093DFF8A0A300F098
:100F200003FCD6ED050AE64930EE600A10EE100A21
:100F3000884212DD9FEDE30A84ED090A9FEDE20A83
:100F400084ED0A0A84ED0B0A9FEDE00A84ED0C0A99
:100F50009FEDDF0A84ED060A87E19FEDDE0A00F0CF
:100F6000A7FB9FEDDD0A002584ED0C0A84ED090A3C
:100F700084ED0A0A84ED0B0AF8E0FFF7F9FC9220F1
:100F8000FFF742FE062269461220FFF71FFEFFF719
:100F9000E7FC9DF801009DF80010000200B2084334
:100FA00000EE100AD6ED030AB8EEC00A20EE200AC1
:100FB00084ED000A9DF803009DF80210000200B2C3
:100FC000084300EE900A96ED031A20EE000AF8EEB0
:100FD000E00A60EE810AC4ED010A9DF805009DF863
:100FE0000410000200B2084301EE900A00EEA00ACD
:100FF000F8EEE11A21EE811A84ED021A01EE010ADF
:101000000BF0DBFBB0EE408A94ED0C0A30EE080AE0
:1010100084ED0C0AFFF7BCFC082269460020FFF7AC
:10102000D5FDFFF7ADFC9DF800000F2840D19DF8DD
:1010300003009DF80210000200B2084300EE100AFF
:10104000F8EEC00A96ED040A60EE800AC4ED030AC9
:1010500094ED091A71EE200AC4ED090A9DF8050005
:101060009DF80410000200B2084300EE900AF8EE6A
:10107000E00A60EE800AC4ED040A94ED0A1A71EEEB
:10108000200AC4ED0A0A9DF807009DF80610000228
:1010900000B2084300EE900AF8EEE00A20EE800A63
:1010A00084ED050AD4ED0B0A30EE800A84ED0B0ABC
:1010B000002D7CD0B4EEC98AF1EE10FA01DDB0EE5D
:1010C000489AB4EEE88AF1EE10FA01D2F0EE488ABE
:1010D0000020424604EB800191ED030A07EB8001FA
:1010E000D1ED000AB4EEE00AF1EE10FA01DD81ED77
:1010F000000A02EB8001D1ED000AB4EEE00AF1EE45
:1011000010FA01D281ED000A401CC0B20328E1D3DD
:1011100039EE680A0020414686ED060A4A4607EB8A
:101120008003D3ED000A01EB800393ED001A02EB7C
:101130008003401C70EEC10AC0B20328C3ED000A50
:10114000EDD310EE100A584514DC11685046814268
:1011500010DC516881420DDCD9F80810514509DCDA
:101160009FED5E0A00F0A4FA6D1CADB2F0888542D6
:10117000FFF403AFF288D4ED0C0A00EE102A002031
:10118000B8EE400A80EE801A84ED0C1A00EE102AA8
:1011900004EB8001401CB8EE400AD1ED090AC0B250
:1011A000032880EE801A81ED091AEFD300E069E090
:1011B000FFF7DEFBA220FFF727FD0222694622206F
:1011C000FFF704FDFFF7CCFB9DF800009DF8011030
:1011D000C00040EA5110B0F5806F01DBA0F500605F
:1011E00000EE100AB4EE001AF8EEC00AB3EE070AD9
:1011F00000EE810A84ED060AB088401CB080B06918
:1012000058453FF78CAE94ED0C0ADFED350A30EE11
:10121000600AB0EEC00A10EE100A5845F1DCD9F8A9
:101220000020514648468A42EBDC42688A42E8DCAC
:10123000D9F808005045E4DC94ED090A2948B0EEDD
:10124000C00A10EE101A8142DBDC94ED0A0AB0EEFF
:10125000C00A10EE101A8142D3DC94ED0B0AB0EEF6
:10126000C00A10EE101A8142CBDC94ED0C0ADFEDBF
:101270001E0A80EE801A84ED081A09B0BDEC048BBA
:10128000BDE8F08FB0EE489AF0EE488A0020414663
:1012900004EB800292ED030A07EB800282ED000A64
:1012A00001EB8002401CC0B282ED000A0328EFD39C
:1012B0002EE70000A8010020FC9000209A99193E1A
:1012C00000002041AC38223BB016CE393F161B41FE
:1012D000000020420AD7A33B000000006F12033A2F
:1012E000CDCC1C410AD7233CC3F51C4130B587B097
:1012F0000546002000910290CDE903021C468DF8BE
:10130000140002E001200CF0B1FB284601F04DFC76
:101310000028F7D0012322466946284601F0DCFA6E
:1013200080B1022322466946284601F0D5FA48B129
:10133000042322466946284601F0CEFA10B1012066
:1013400007B030BD0020FBE770B5467802250322C8
:10135000104B01242EB1067800206EB10870187071
:1013600070BD0D481C70807A022811D003280DD062
:101370000128F5D10D7070BD08481D70C079C0F30B
:10138000011028B1012801D00228F4D10A7070BDE3
:101390000C7070BDBC04002008A9002074A70020B8
:1013A00010B5D0E900348268A34201D1521C04E098
:1013B000521E8260002A01DC0022826043608A4261
:1013C00003DB491E8160012010BD002010BD00001C
:1013D0002DE9F0410AF070FC114C124D124E134FE2
:1013E00002E001200CF042FB207829780840317897
:1013F000084039780842F4D04FF4FA600CF036FB1C
:101400000B4C04E007F0D8FD01200CF02FFB2078F6
:101410000028F7D0074901208870BDE8F08100005E
:10142000B0040020B4040020C604002018050020E9
:1014300056060020BC04002070B50D460446142159
:101440001D48FFF7ADFF607014211C48FFF7A8FF8F
:101450002070142105F19400FFF7A2FFA070142161
:1014600005F1AC00FFF79CFFE070142105F1C4000A
:10147000FFF796FF2071142105F13800FFF790FF68
:101480006071142105F17C00FFF78AFFA07161787B
:101490002278E37801EB4201A278520202EB832228
:1014A0001144227901EBC221627901EB023101EB97
:1014B0004030208170BD000020A9002068A70020D6
:1014C00010B508490848FFF7B7FF08490648FFF775
:1014D0003BFF054800F088FA07F048FEBDE81040E1
:1014E0000AF0F6BB28A80020009B0020BD040020C5
:1014F00070B50C462DED028B05469FED168A90EDDA
:10150000020AF0EE480A00F013FB134EDFED138AD7
:10151000B0EEC00A86ED040A95ED020AF0EE680A04
:1015200000F006FBB0EEC00A86ED050AD6ED040A0F
:10153000F4EEC00AF1EE10FA02D884ED018A01E05F
:10154000C4ED018A94ED010A85ED070ABDEC028B1A
:1015500070BD0000513A0BC0C0040020C023763F8C
:101560001CB5FF228DF800208DF801208DF8042095
:101570008DF802208DF805208DF803208DF80620C7
:10158000FB228DF807206B460822FFF7AFFE1CBD3B
:10159000014801F055BE00007C110020014801F017
:1015A0004FBE0000DC110020014801F049BE0000E0
:1015B0004C0E0020014801F043BE0000AC0E00209C
:1015C000014801F03DBE00001C110020014801F05F
:1015D00037BE00003C120020014801F031BE00007F
:1015E000BC10002001681823CAB2103AB2FBF3F213
:1015F000054B6FF30901032A9B5CC36500D9091DE4
:1016000081650846704700008400010810B5014656
:1016100000208B698A6A4FF0C07453B1B3F5005F44
:1016200015D072B1012A0CD0022A0AD0032A09D19E
:1016300004E01AB1012A06D0022A03D1C96AC901FD
:1016400000D5012010BDC96AA142FAD010BD002A00
:10165000F7D0012AF2D0022AF3D0032AF3D010BD2A
:1016600030B50468256825F480252560046863602A
:101670008368402B036803D099600068C26030BD66
:101680009A600068C16030BD074808B540680090A6
:10169000014606480269914202D2C168491CC160F4
:1016A0000099016108BD0000001000E01006002054
:1016B0000A4841680A4AD2ED000A4268521AF8EE16
:1016C000601A01EE102AB8EE411A60EE211AB4EE4B
:1016D000E11AF1EE10FAF0D370470000001000E0BC
:1016E0001006002000B50E492DED028B81B049682F
:1016F00000910168009A511A00EE101A0949F8EE9B
:10170000400A91ED000A0260B8EE400A80EE808A3D
:10171000FFF7BAFF01B0B0EE480ABDEC028B00BD86
:10172000001000E01006002010B500F043F80C484F
:101730009FED0C1A818890ED000A00EE901AC08887
:10174000B8EE400AF8EE600A00EE810A00EE900A58
:101750009FED051AF8EE600A00EE810A10BD000048
:10176000400600206F12833ABD3786350D490A685E
:1017700042F080720A600C4900224A600B6843F014
:1017800001030B6009494FF47A734843B0FBF3F34C
:101790000749C1E90003054BB0FBF3F0C1E90202C0
:1017A00070470000FCED00E0001000E040420F0038
:1017B000100600202DE9F843224840680090FFF70A
:1017C00063FF214C00270098E1684FF0FF323D464F
:1017D000E1FB0205C4E90E05D4F800800646424646
:1017E0003B462946FEF71AFE0246A2FB083CC4E926
:1017F000060101FB08C002FB0701F01A65EB0105B9
:10180000C4E9080504F130080646C8F80020D4F8F9
:10181000049000234A462946FEF700FE81B2A8F84C
:10182000041001FB09F1701A65EB0705C4E90A050C
:1018300029460023A268FEF7F1FDA8F80600BDE8DE
:10184000F8830000001000E01006002070471CB56F
:10185000FF228DF800208DF801208DF804208DF8EE
:1018600002208DF805208DF803208DF80620FD223A
:101870008DF807206B460822FFF738FD1CBD7CB5AC
:10188000160A8DF800608DF801201A0ADDE9065469
:101890008DF802202A0A8DF804208DF80550220ABE
:1018A0008DF806208DF803308DF807406B4608222E
:1018B000FFF71CFD7CBD012001F048BE082001F0AF
:1018C00045BE102001F042BE202001F03FBEB6EE22
:1018D000002A92ED020AB0EE421AD2ED030A00EE9F
:1018E000401AD0ED001AD0ED013A00EEE01A21EED8
:1018F000213A92ED011AD2ED001A61EE002A41EE72
:10190000A02A61EE200A41EEC00A02EEA33A90ED51
:10191000020AF0EE002A00EE803A23EE220A81ED60
:10192000000AD2ED010AD2ED021A92ED001A92EDF0
:10193000030A20EEA13AD0ED003A90ED014A01EE03
:10194000403A23EE233AF0EE423A40EEE03A40EEDF
:10195000403A21EE800A01EE200A03EE843AD0EDEF
:10196000020A00EE203A23EE220A81ED010AD2EDAE
:10197000010AD2ED031A92ED020A92ED001A20EE4E
:10198000A13A60EE211AD0ED003A00EEE02A01EE15
:10199000003A41EE601A90ED011A00EE402A23EE63
:1019A000233A90ED020A01EE813A02EE003A23EE6C
:1019B000220A81ED020A70471CB5FF228DF8002033
:1019C0008DF801208DF804208DF802208DF8052077
:1019D0008DF803208DF80620FC228DF807206B4639
:1019E0000822FFF783FC1CBDF0B42B4D002305F14A
:1019F0001007697819B900893B607B60EB60264E5F
:101A000038681836314634684A68844202D17968A9
:101A10008A4236D00121697044F62061844211D097
:101A2000E868642290FBF2F702FB1702F2B1282A61
:101A300022D0401CE860632802D1641CEB60346053
:101A4000F0BC704778688242FAD0E868282490FB9E
:101A5000F4F704FB17044CB1142C0DD0401CE860C3
:101A60002728EDD1521CEB607260E9E7401CE8606A
:101A7000F0BC0120FFF790B9401CE860F0BCFFF714
:101A800083B9E868401CE860F028D9DB6B70EB6034
:101A900033607360D4E700005406002072B6FEE79E
:101AA00030EEC01AB5EEC00A1E48F1EE10FA16DD8F
:101AB000F5EEC00AF1EE10FA11D2DFED1B1A31EE8D
:101AC000C00A30EE200AF1EE410A80ED040AB4EEBD
:101AD000E00A80ED051AF1EE10FA1BD31DE0B5EE19
:101AE000C00AF1EE10FA18D2F5EEC00AF1EE10FAC3
:101AF00013DDDFED0E1A31EEC00A30EE200A80ED64
:101B0000040AF1EE400A80ED051AF4EEC10AF1EE86
:101B100010FA02D280ED060A01E080ED061A90ED7F
:101B2000060A7047880600200000B4430000B4C3D2
:101B300030EEC01AB5EEC00A1E48F1EE10FA16DDFE
:101B4000F5EEC00AF1EE10FA11D2DFED1B1A31EEFC
:101B5000C00A30EE200AF1EE410A80ED010AB4EE2F
:101B6000E00A80ED021AF1EE10FA1BD31DE0B5EE8B
:101B7000C00AF1EE10FA18D2F5EEC00AF1EE10FA32
:101B800013DDDFED0E1A31EEC00A30EE200A80EDD3
:101B9000010AF1EE400A80ED021AF4EEC10AF1EEFC
:101BA00010FA02D280ED030A01E080ED031A90EDF5
:101BB000030A704788060020DB0FC940DB0FC9C04D
:101BC000028802810A8852BA02804A8852BA428048
:101BD0008A8852BA828089798171C168B1F57A7F29
:101BE00001DB002100E0491CC16070470149086029
:101BF00070470000A40600202DE9F04115462DEDA8
:101C0000028B82B000780C46002640F2FF1878B1B3
:101C100001280DD0524F9FED538A7868012827D0B4
:101C2000002851484FF00A011FD0FFF799FC34E01B
:101C30000A214D48FFF70BFE01200BF017FF0C2186
:101C40004A48FFF704FE01200BF010FF0023009626
:101C50001A464446414644480196FFF710FE0023C9
:101C600000961A462146019672E0FFF7A5FE14E0A1
:101C700095ED0A0AF2EE020A05F088FFB0EE402A5E
:101C8000B0EE480A0A22F0EE401AB0EE401AF0EE2A
:101C9000400A1146344805F089FF01200BF0E6FEAA
:101CA000B86C01280AD0002830484FF00C0102D04F
:101CB000FFF756FC19E0FFF77FFE16E095ED0B0AE3
:101CC000F2EE020AB1EE400A05F060FFB0EE402AE3
:101CD000B0EE480A0A22F0EE401AB0EE401AF0EEDA
:101CE000400A0C21214805F061FF01200BF0BEFEE7
:101CF00094ED070ADFED1E0A05F048FFBDEEC00AAD
:101D00000096019610EE100A0022464603B24146A4
:101D10001548FFF7B4FD9FED178A94ED060AF0EE23
:101D2000480A05F033FFBDEEC00AF0EE480A10EE97
:101D3000100A94ED050A05B205F028FFBDEEC00AB1
:101D400000231A4610EE100A314600B2CDE9000514
:101D50000648FFF794FD02B0BDEC028BBDE8F081B0
:101D600028A8002000000000500D0020780D002061
:101D700000401C46000080462DE9FF5FDFF848A2C6
:101D800006462DED048B1C460027DDE913589AF812
:101D90000000DFF838B220B1012805D002280CD0AD
:101DA00018E0A780E78015E0B6F90E00012105F0E4
:101DB000B7FBA080B6F90C0008E0D946BBF90C00CF
:101DC000012105F0ADFBA080B9F90A00012105F061
:101DD000A7FBE080B6F90600052105F0A1FB2080F5
:101DE000B6F90400052105F09BFB608098F800001F
:101DF000B8B1012815D09AF8000090B174494FF09D
:101E000001099FED748B9FED759B01280FD002286F
:101E10007ED1087800287CD0BBF81100C00510D412
:101E200017E02F7094ED020A84ED070A11E008789C
:101E3000E0B1B08AC00504D4B6F9020010F5257FE0
:101E400007D1287828B929462046FFF751FB85F8A5
:101E50000090059806F071FC129A06982146BDEC98
:101E6000048B04B0BDE8F05F00F0C4B82F7098F8A0
:101E70000000022833D003284AD1B4F906000DF03F
:101E80009EFC53EC182B0DF0C5FC41EC180B206A9E
:101E90000EF028F853EC182B0DF03AFF0DF02EFA47
:101EA0002062B4F904000DF08AFC53EC192B0DF0FC
:101EB000B1FC41EC180B606A0EF014F853EC182BCF
:101EC0000DF04EFA0DF01AFA6062159A0599304637
:101ED000BDEC048B04B0BDE8F05F06F03BBCB4F988
:101EE00002000DF06CFC9FED3F1B53EC112B0DF02D
:101EF00091FC41EC180B206A0DF0F4FF53EC182B09
:101F00000DF006FF0DF0FAF92062B4F9000001E0CF
:101F100056E01FE00DF053FC9FED341B53EC112BEA
:101F20000DF078FC41EC180B606A0DF0DBFF53EC10
:101F3000182B0DF015FA0DF0E1F96062059806F026
:101F4000FCFB12993046BDEC048B04B0BDE8F05F99
:101F500007F004B82F7098F80000032830D1B4F9C6
:101F600006000DF02CFC53EC182B0DF053FC41EC4B
:101F7000180B206A0DF0B6FF53EC182B0DF0C8FEBD
:101F80000DF0BCF92062B4F904000DF018FC53EC1C
:101F9000192B0DF03FFC41EC180B606A0DF0A2FF0D
:101FA00053EC182B0DF0DCF90DF0A8F960621599CF
:101FB0000598BDEC048B04B0BDE8F05F09F0B6BE37
:101FC000BDEC048BBDE8FF9FBC04002074A700207B
:101FD000F8A80020FCA9F1D24D62603F2D431CEB14
:101FE000E2365A3F613255302AA9433F2D431CEB5C
:101FF000E2363A3F70B5064600250C461570244877
:1020000006F045FB2248AE3006F041FB214806F0C1
:102010003EFB1F48AE3806F03AFB1F4806F037FB80
:102020001D48AE3006F033FB1C4806F030FB1B4861
:10203000AE3006F02CFB1A4806F029FB1848AE30EB
:1020400006F025FB94ED030A164884ED080AD4ED4A
:10205000050AC4ED090A07F0D1FC124894ED090AFB
:10206000283807F0CBFC11499FED0F0A81ED060AD5
:1020700081ED070A81ED080A84ED0A0A84ED0B0A56
:1020800096ED010A86ED040A0D704D7070BD0000DA
:10209000209F0020C49D00207CA00020D8A100200B
:1020A00034A30020B8A4002000000000C0040020D9
:1020B00070B504462DED028B0D4618789FED378ADA
:1020C000069EE8B301285ED03548007810B385ED50
:1020D0000A8A85ED0B8A84ED058A84ED068A84EDF3
:1020E000078A1078002812D0D5ED070A95ED020A6C
:1020F0002C4806F001F82B4895ED040AD0ED0D0AA6
:10210000AE3005F0F9FF85ED0A0A85ED0B8ABDECCE
:10211000028B70BD3146284600F010FA3146284641
:1021200000F048FBB4F90000D4ED030A00EE100AF9
:102130001D48B8EEC00A05F0DFFF84ED050A00E097
:1021400021E094ED030AB4F90200F1EE400A00EE3A
:10215000100A1548B8EEC00AAE3005F0CDFF84ED88
:10216000060AD4ED040A94ED010A104805F0C4FFF4
:102170000E4894ED020AD0ED0D0AAE3005F0BCFF1A
:1021800084ED070AC3E785ED0B8A81ED0A8A84EDA9
:10219000058A84ED068A84ED078AB8E7000000000E
:1021A000F8A800207CA00020D8A1002034A30020A3
:1021B0002DE9F04101232DED068B022204219FED34
:1021C000C38AB1EE042AF0EE484AB0EE484AF0EE77
:1021D000483AB0EE483AF0EE482ADFEDBD1AB0EECC
:1021E000481AF1EE040AB2EE040ABA4806F069FA97
:1021F000B848002201231146F0EE484AB0EE484AA2
:10220000F0EE483AB0EE483AF0EE482AB0EE482AEE
:10221000F1EE081AB0EE481AF1EE040AB2EE020A24
:10222000AE3006F04EFA012302220421F0EE484AB5
:10223000B0EE484AF0EE483AB0EE483AF0EE482A9E
:10224000B0EE482AF3EE0E1AB0EE481AF1EE040A88
:10225000B2EE040AA04806F034FA9E480022012398
:102260001146F0EE484AB0EE484AF0EE483AB0EE79
:10227000483AF0EE482AB0EE482AF7EE001AB0EEDF
:10228000481AF0EE080AB2EE020AAE3806F019FA61
:10229000002302221946F0EE484AB0EE484AF0EE1A
:1022A000483AB0EE483AF0EE482AB0EE482AF7EE47
:1022B000001AB0EE481AF1EE040AB2EE040A87489A
:1022C00006F0FFF98548002302221946F0EE484A3D
:1022D000B0EE484AF0EE483AB0EE483AF0EE482AFE
:1022E000B0EE482AF7EE001AB0EE481AF1EE040AF2
:1022F000B2EE020AAE3006F0E4F900231A460A21D3
:10230000F0EE484AB0EE484AF0EE483AB0EE483AAD
:10231000F0EE482AB0EE482A9FED719AB0EE481AC6
:10232000F0EE491ADFED6F8AF0EE680ADFED6E9A83
:102330006E48B0EE690A06F0C4F96C4800231A46EC
:102340000A21F0EE484AB0EE484AF0EE483AB0EEC4
:10235000483AF0EE482AB0EE482AF0EE491AB0EEBC
:10236000481AF0EE680AB0EE690AAE3006F0A9F934
:1023700000231A460221F0EE484AB0EE484AF0EE39
:10238000483AB0EE483AF7EE002AB0EE482ADFEDC0
:10239000580AB0EE481AF0EE601A9FED560A5648F9
:1023A00006F08FF900231A460221F0EE484AB0EEFB
:1023B000484AF0EE483AB0EE483AF0EE482AB0EE1D
:1023C000482AF1EE041AB0EE481AF0EE680A9FEDC2
:1023D0004B0A4948AE3006F074F99FED499AF0EE89
:1023E000490A9FED480A484807F011FB4648F0EEBD
:1023F000490AB0EE680A283807F009FBDFED438A86
:1024000001220221B0EE680A414806F0A9FAB0EEB6
:10241000680A012203213F4806F0A2FA3E48002143
:102420003E4A41714FF4E171D1623749384D28314C
:102430003B4E81ED008A81ED028A0121683D817168
:10244000384F9FED398AB0EE009ADFED388AA5F15A
:102450002004DFED379A9FED37AADFF8DC8022E019
:1024600096ED1F0AB0EE691A85ED080A96ED1D0A71
:1024700085ED090AB7F8B800D4ED021A00EE100A8B
:102480002148F8EE400A283080EE880AF0EE4A0A29
:1024900020EE090A20EE280A09F018FD84ED040A4E
:1024A00001200BF0E3FA98F800000028D8D095ED51
:1024B000080A154807F0A2FABDEC068BBBEE0E0A1F
:1024C000BDE8F0411048283807F098BA0000000035
:1024D00000004842209F0020C49D00207CA00020D6
:1024E0006666864100007A4400007A46D8A1002042
:1024F0000000C8420080ED4434A300200070144660
:102500000AD7A33B00002F44B8A4002048E17A3F3B
:10251000949B0020C09C0020C0040020D09A002082
:10252000EC91002028A8002000F8FF45DB0F49406F
:102530003333333FDB0FC940BE0400202DE9F041A7
:102540000D462DED088B04469FED5F8A90ED090A3C
:102550005E4807F03BF95E4FDFF8708138789FEDF9
:102560005DBA60B1E87850B1D5F8150000EE100AF8
:10257000D5F80D0060EE0B0A00EE100A05E098EDAC
:10258000050A60EE0B0A98ED040A514852493C30A6
:1025900020EE0B0A90ED001A61EE200A90ED031A6E
:1025A00041EE000AC7ED070A94ED050A60EE0BBA8A
:1025B00094ED060AF0EEC00A10EE900A884203DDA0
:1025C0000BF03EFFB0EE408A414E4C3696ED020ACB
:1025D00020EE080A10EE100A0DF084FC41EC190BF5
:1025E0001BEE900A0DF07EFC41EC100B09F05CFF35
:1025F000B0EE408AF0EE608A70680DF073FC53EC28
:10260000182B0DF007F941EC1A0B1BEE900A0DF098
:1026100069FC41EC100B0AF02FF8B0EE408AF0EEA6
:10262000608A30680DF05EFC53EC182B0DF0F2F868
:1026300053EC1A2B0CF094FE53EC192B0CF090FE7B
:102640000CF05CFE3862387888B1E87878B194EDA7
:10265000090A224860EE0B0A94ED050A20EE0B0AE7
:1026600005F04AFDD5F80D0000EE100A0DE098EDDA
:10267000030A4546194860EE0B0A94ED050A20EE60
:102680000B0A05F039FD95ED040A144860EE0B0ABB
:1026900094ED060AAE3005F02FFD97ED070AD7ED51
:1026A000080A0E4870EE200A90ED0D0AAE30406B1D
:1026B00070EE800A00EE100A30EE800A84ED0B0AFC
:1026C000BDEC088BBDE8F0810000000090A4002064
:1026D000C004002034FA8E3CC1B8B23D209F0020D7
:1026E000074A416A914202DDB3EE0E0A04E0054A50
:1026F000914203D9BBEE0E0A80ED090A7047000033
:102700000000F0410000F0C11FB52048FEF7EAFFCD
:102710001E481F493038034680ED0D0AA0F1200203
:102720001C4809F065FA1E491B4B1C4AA1F11F0009
:102730008DE80F00154B1B49303BA3F120021A48CE
:10274000FFF71AFB114919483039FEF7C7F80F484F
:102750003038FFF7C5FF124A0C491F3A5039144868
:1027600006F014FF09491148303900900B4B0C4A10
:10277000A1F12000FFF79CFC044A04B0303ABDE808
:102780001040A2F120010548FFF736BA5C9B0020FB
:1027900028A80020EC910020A8920020BD04002071
:1027A000E404002074A9002008A9002088920020D9
:1027B000D09A00202DE9F04104462DED048B0D4602
:1027C00090ED080A374807F001F8374E354F9FED76
:1027D000379A307860B1E87850B1D5F8190000EE3A
:1027E000100AD5F8110060EE098A00EE100A05E023
:1027F00097ED050A60EE098A97ED040A20EE098A32
:10280000B0EE480A0BF01CFE2748F0EE400A2C30D0
:1028100090ED000A90ED011A20EE280A01EE080A58
:1028200090ED021A01EE200A86ED060A307888B192
:10283000E87878B194ED080A1D4860EE090A94ED35
:10284000030A20EE090A05F057FCD5F8110000EE46
:10285000100A0CE097ED030A154860EE090A94EDA2
:10286000030A20EE090A05F047FC97ED040A104818
:1028700060EE090A94ED040AAE3005F03DFC0C4808
:10288000D6ED060A90ED0D0AAE30406B70EE200AD0
:1028900000EE100A30EE800A84ED0A0ABDEC048BCB
:1028A000BDE8F081B8A40020C004002034FA8E3CBA
:1028B000C49D002090F82020012A07D0022A05D0CC
:1028C000416A41F4802141620120704700684269F9
:1028D0000A43426100207047F0B590F82050046828
:1028E000A468012D05D0022D03D0416A41F4802156
:1028F00057E014F0406F01D1E5004FD5C4F30164F7
:102900000125A5401D608B684FF4C0759BB1CE6852
:1029100033434E6843EAC603066805EB0417F351D8
:102920004FF4C273076803EB04130E69FE50097D70
:10293000012905D009E00E88CB6843EA4653EBE74E
:102940000168CE5846F48076CE501179D379567905
:1029500041EA036193791B0443EA062319434FF4C8
:10296000C676036806EB041699511178D37841EACC
:102970000361937852781B0443EA022211434FF417
:10298000C473026803EB0413D150006805EB041113
:10299000425842F0010242500020F0BD416A41F429
:1029A000001141620120F0BD10B590F82020012AED
:1029B00007D0022A05D0416A41F4802141620120FA
:1029C00010BD3B48D0F8002242F00102C0F80022BE
:1029D000D0F8002222F47C52C0F80022D0F8002265
:1029E0004B6A42EA0322C0F800220A7D02F01F036C
:1029F00001229A40D0F81C329343C0F81C32CB69B4
:102A0000B3B9D0F80C329343C0F80C328C894B68C0
:102A100064F31F434C6900EBC404C4F840320C89D2
:102A20000B6864F31F434C6900EBC404C4F84432E0
:102A3000CB69012B16D1D0F80C321343C0F80C32FD
:102A40000C884B6864F31F434C6900EBC404C4F862
:102A500040320C89CB6864F31F434C6900EBC4041B
:102A6000C4F844328B69002BD0F804320ED01343E3
:102A7000C0F804320B69002BD0F8143208D013438D
:102A8000C0F81432096A012904D008E09343EFE743
:102A90009343F5E7D0F81C121143C0F81C12D0F88C
:102AA000001221F00101C0F80012002010BD00004A
:102AB00000640040704770B590F82040012C05D0AC
:102AC000022C03D0416A41F4802128E0046809B354
:102AD0002469A40720D04FF4D874056804EB0114CE
:102AE0002D5915F00405956005682D591AD0ED088B
:102AF000556005682C5904F00204D4604FF4DA7470
:102B0000056804EB01142E5906F00F06082E0CD3AD
:102B100008250DE0E468DCE7416A41F400114162F8
:102B2000012070BD6D0D1560E3E72D5905F00F050F
:102B3000156105682D59C5F30725956105682C5960
:102B4000240C54614FF4DC72046802EB0112A458A7
:102B50001C700468A458240A5C700468A458240CEF
:102B60009C700468A258120EDA704FF4DE7204688A
:102B700002EB0112A4581C710468A458240A5C7169
:102B80000468A458240C9C710468A258120EDA71CF
:102B9000006829B1016941F020010161002070BD88
:102BA000C16841F02001C160F8E70246002092F8B8
:102BB0002010012901D002290CD111688A68520124
:102BC00000D501208A68120100D5401C8968C9001F
:102BD00000D5401C70472DE9F05F054600680024D1
:102BE0004669D0F804908768D0F80CB0D0F810A0EF
:102BF000D0F81880F10748D0F90714D0012181607E
:102C0000B80703D5284600F094FA0CE0780702D5FF
:102C10004FF4006407E0380702D54FF4805402E017
:102C2000284600F085FAF80516D529684FF480701B
:102C30008860B80503D5284600F07DFA0CE07805D9
:102C400002D544F4005407E0380502D544F480442A
:102C500002E0284600F06EFAF80316D529684FF412
:102C600080308860B80303D5284600F066FA0CE08F
:102C7000780302D544F4004407E0380302D544F455
:102C8000803402E0284600F057FA300707D55FEAA3
:102C9000CB6004D52968102044F40074C860700724
:102CA0004FF0080707D55FEA0B7004D52868C760A6
:102CB000284600F097F9B00706D52868C068800755
:102CC00002D0284600F090F9700607D55FEACA6086
:102CD00004D52968102044F480640861B00607D543
:102CE0005FEA0A7004D528680761284600F0C8F931
:102CF000F00606D528680069800702D0284600F053
:102D0000C1F9B00308D55FEAC96005D5296810206C
:102D10004860284600F0E0F9F00307D55FEA097043
:102D200004D528684760284600F008FA300446D5E4
:102D30005FEA497040D5F00504D55FEAC87001D05C
:102D400044F00104B00504D55FEA887001D544F071
:102D50000204700504D55FEA487001D544F004040C
:102D6000300529D518F0700F26D008F070004028E3
:102D700015D006DC102809D020280AD0302816D11A
:102D80000AE050280ED0602811D10EE044F008046B
:102D90000DE044F010040AE044F0200407E044F0A1
:102DA000400404E044F0800401E044F480742868A6
:102DB000816921F070018161296804204860002C3C
:102DC00005D0686A204368622846FFF773FEBDE8B5
:102DD000F09F70B5040003D094F8200010B104E017
:102DE000012070BD204600F081F82068016841F0A4
:102DF0000101016000F0A4FC0546052604E000F096
:102E00009FFC401B0A2811D820684068C007F6D0F4
:102E10002068016821F00201016000F091FC054684
:102E20000BE000F08DFC401B0A2806D9606A40F4D4
:102E30000030606284F82060D2E720684068800734
:102E4000EFD4207E0128206801683DD021F0800168
:102E50000160607E01282068016838D021F04001BF
:102E60000160A07E01282068016833D021F0200194
:102E70000160E07E0128206801682ED041F0100139
:102E80000160207F01282068016829D021F0080115
:102E90000160607F01282068016824D021F00401CE
:102EA0000160D4E902010843D4E904121143084344
:102EB0006168491E08432168C861002060620120E2
:102EC00084F82000002070BD41F08001C0E741F08F
:102ED0004001C5E741F02001CAE721F01001CFE72A
:102EE00041F00801D4E741F00401D9E7F0B587B01B
:102EF000044614216846FDF7A9FB3549354ADFF839
:102F0000CCE00868D4F800C0324B0324022509261F
:102F100010320027401CF44521D10860012807D158
:102F2000106840F000701060106800F000700590AC
:102F3000186840F00800186018688DE8B00000F0CC
:102F40000800CDE9046069460394234800F00AFBB9
:102F500000220521142000F09FFD142031E0DFF84D
:102F60007CE0F4452FD1D2F800C04CF0806CC2F860
:102F700000C0D2F800C001280CF0806CCDF814C05D
:102F8000086007D1106840F000701060106800F011
:102F900000700590186840F00200186018686946D3
:102FA00000F00200059060208DE8A100CDE9034605
:102FB0000B4800F0D7FA00220521412000F06CFDFB
:102FC000412000F05BFD07B0F0BD00000064004050
:102FD0001C00002030380240000C02400068004015
:102FE000000402407047000010B5214B214A002127
:102FF000FFF761FD0028FDD11E4800680B282ED088
:10300000A0F5807005380AD0A0F58070013825D170
:103010001848BDE810401649F030FEF7D1BD1648FB
:103020000021DFED160A017011490A78C2F340024F
:103030004270B1F8012052BA0281B1F8032052BAAD
:1030400042814A798281C98849BA09B200EE101AD0
:10305000B8EEC00A80EE201A80ED011A10BD0548B6
:103060000A22BDE810400249383005F0C1BF000017
:1030700074060020F0A70020F8A8002000007A4481
:103080007047000010B5124B124A0121FFF713FDE3
:103090000028FDD10F4800680D2809D0A0F5007068
:1030A00007380DD0012812D10A480949BC300AE07E
:1030B00008480A22BDE810400549603005F098BF75
:1030C00004480349A430BDE81040FEF779BD10BDA7
:1030D0007C0600200CA80020704770B5044690F8CC
:1030E0002000012804D0606A40F40020606217E0EC
:1030F000022084F820002068016821F001010160AD
:1031000000F01EFB05460DE000F01AFB401B0A28EC
:1031100008D9606A40F400306062052084F820001D
:10312000012070BD20684068C007EDD1606270BDAD
:10313000704770477047704770477047704710B5C9
:10314000040002D0607910B106E0012010BD00201B
:103150002071204600F004F801206071002010BDAD
:1031600008B500680649884208D10648016841F45C
:1031700080510160006800F48050009008BD00009C
:1031800000300240303802402DE9F0410446876D9E
:1031900000F0D6FA054694F835000026022806D03D
:1031A0008020606584F834600120BDE8F0812068EB
:1031B000016821F0160101602068416921F0800159
:1031C0004161206C08B9A06C20B12068016821F031
:1031D000080101602068016821F0010101600CE034
:1031E00000F0AEFA401B052807D9202060650320B7
:1031F00084F8350084F83460D7E720680068C00799
:10320000EED194F85C103F208840B860012084F82B
:10321000350084F834600020C7E790F835100229A3
:1032200003D08021416501207047052180F83510C9
:103230000068016821F00101016000207047000072
:103240002DE9F84304464FF00009CDF8009063489B
:103250004FF41651A56D0068B0FBF1F72E6894F895
:103260005C20082101FA02F030420FD02068026889
:1032700052070BD5026822F00402026094F85C0049
:103280008140A960606D40F00100606594F85C10B9
:103290004FF0010808FA01F0304208D0216849696E
:1032A000090604D5A860606D40F00200606594F8DE
:1032B0005C1004208840304208D0216809688907E2
:1032C00004D5A860606D40F00400606594F85C105F
:1032D00010208840304218D021680968090714D5A9
:1032E000A86020680168490304D50068000308D578
:1032F000A16C07E00168C90503D4016821F0080149
:103300000160216C09B12046884794F85C102020A8
:103310008840304231D021680968C9062DD5A8609F
:1033200094F8350005282068016806D0490347D580
:10333000006800031DD4616C1CE021F016010160DF
:103340002068416921F080014161206C08B9A06CBE
:1033500020B12068016821F00801016094F85C1038
:103360003F208840A86084F8358084F83490216D2F
:103370001FE0E16B09B120468847606D00282BD023
:10338000606DC00714D0052084F8350020680168FE
:1033900021F0010101600098401C0090B84203D860
:1033A00020680068C007F6D184F8358084F834902E
:1033B000E16C002910D001B02046BDE8F043084779
:1033C0000168C905D5D4016821F01001016084F8B5
:1033D000358084F83490CCE7BDE8F883980000206D
:1033E0002DE9F041044600F0ABF905465CB102203E
:1033F00084F83500002684F834602068016821F0E4
:10340000010101600DE00120BDE8F08100F098F9B4
:10341000401B052805D920206065032084F835006D
:10342000F2E720680068C007F0D121680A682048E8
:103430000240D4E901031843D4E903352B43184370
:1034400063691843A3691843E3691843236A18435F
:103450001043626A042A03D1D4E90B231A431043B0
:10346000086020684069656A20F0070128460D431E
:10347000012704280CD1A06A0543E06A40B1204628
:10348000FEF7C4F820B14020606584F83570BAE7D3
:10349000206845612046FEF7A5F894F85C203F219E
:1034A00091408160666584F835700020ACE70000CB
:1034B0003F8010F02DE9F0410446866D90F834000D
:1034C000002501280DD0012084F8340094F83570CF
:1034D0000020012F07D084F8340002252846BDE8DB
:1034E000F0810220FBE7022784F8357060652046F2
:1034F000FEF7B6F894F85C103F208840B060206872
:10350000016841F016010160206C20B1206801685B
:1035100041F0080101602068016841F0010101608B
:10352000DCE7000070B5044600F00AF90546601CAF
:1035300002D004480078044400F002F9401BA04285
:10354000FAD370BD8C00002070470000044910B50C
:103550000A68024202D00860FFF7F6FF10BD0000C3
:10356000143C01402DE9F84FDFF89C910022A9F1AD
:10357000040B03274FF00F0C09F1040AABF1040E02
:1035800001250B6895402B40AB426ED10C7904F0BD
:103590000304012C01D0022C15D18668540007FACF
:1035A00004F826EA0806D1F80C8008FA04F848EA7C
:1035B0000608C0F808804468AC430D79C5F30015CF
:1035C0009540254345600C79E443A40708D0C568BD
:1035D000540007FA04F6B5438E68A6402E43C66031
:1035E0000C7904F00304022C11D1D40800EB8406FA
:1035F000356A5407E40E0CFA04F825EA0805D1F8F8
:10360000108008FA04F848EA0508C6F82080056822
:10361000540007FA04F6B5430E7906F00306A640F7
:103620002E4306604C6814F4403F66D0374C256842
:1036300045F480452560246822F0030504F48044A5
:103640000094334C05EB0408D8F808589407260F6B
:103650000CFA06F4A5432F4CA04201D1002424E02B
:103660002D4CA04202D101241FE046E02B4CA04289
:1036700001D1022419E02A4CA04201D1032414E014
:10368000284CA04201D104240FE0274CA04201D1D4
:1036900005240AE0254CA04201D1062405E0244C73
:1036A000A04201D1072400E00824B4402C43C8F80C
:1036B0000848D9F800404D464E689C43F60200D5B4
:1036C0001C432C60DAF8004055464E689C43B60215
:1036D00000D51C432C60DBF800405D464E689C43DF
:1036E000B60300D51C432C60DEF8004075464E68DA
:1036F0009C43F60300D51C432C60521C102AFFF497
:103700003FAFBDE8F88F0000083C0140443802405C
:103710000030014000000240000402400008024066
:10372000000C024000100240001402400018024049
:10373000001C02400AB1816170470904FBE70000E8
:1037400001488068704700008C00002070B50400BC
:1037500025D094F83D00002520B984F83C5020463F
:1037600000F0B8F8242084F83D002068016821F0BA
:10377000010101602068016841F400410160206896
:10378000016821F40041016000F08CFF4D4B61683D
:10379000994201D84C4900E04C49884201D20120AD
:1037A00070BD4B492268B0FBF1F1566826F03F0628
:1037B0000E43566062689A4206D94FF4967251439E
:1037C0004FF47A72B1FBF2F12268491C166A26F0B6
:1037D0003F06314311626168994210D84900401E8A
:1037E000B0FBF1F2521CC2F30B02042A01D20420F6
:1037F00022E0B0FBF1F0401CC0F30B001CE0A2681B
:10380000F2B301EBC10303EB0116431EB3FBF6F366
:103810005B1C43F480431B0549D092B301EBC1020A
:1038200002EB0111401EB0FBF1F0401CC0F30B0095
:1038300040F4804040F400402168CA694CF6FF73B0
:103840009A431043C861D4E9071001432068026815
:1038500022F0C00211430160D4E903010143206852
:10386000826848F2FF339A4311438160D4E905101E
:1038700001432068C26822F0FF021143C16001E0E9
:103880000EE016E02068016841F001010160256446
:10389000202084F83D00256384F83E50002070BD50
:1038A00001EB4106431EB3FBF6F35B1CB3E70120BB
:1038B000C2E701EB4101401EB0FBF1F0401CC0F338
:1038C0000B00B7E7A086010080841E0000093D00C0
:1038D00040420F00F0B587B0044614216846FCF75B
:1038E000B5FE1D492068884233D11C480025016877
:1038F00041F004010160016801F0040105910168D3
:1039000041F0010101600068122600F001000590FD
:103910004FF40070CDE90006032704240295CDE999
:10392000037469460E48FFF71DFEA001CDE90006AD
:103930000295CDE9037469460A48FFF713FE07486C
:103940001030016841F400010160006800F40000DB
:10395000059007B0F0BD0000005C00403038024028
:1039600000080240000002400248816802781144C9
:10397000816070478C0000200B4810B5016841F44D
:1039800000710160016841F480610160016841F4E7
:1039900080710160032000F09FF80F2000F006F80E
:1039A00000F050F8002010BD003C024030B5054644
:1039B000204887B00024016841F0010101600068DF
:1039C00006A900F001000590684600F045FE039846
:1039D000B0B100F067FE400017494FF08042B0FBE5
:1039E000F1F11648491E026040F2E732C0E90324B3
:1039F000C0E90114846101F06DFA040003D015E000
:103A000000F050FEE8E70D4801F008FB04000DD17E
:103A10001C2000F033F8102D07D2002229461C206C
:103A200000F03AF80648056000E0012407B020469F
:103A300030BD00004038024040420F007C2E002084
:103A4000900000200C4882B0016841F48041016080
:103A5000006800F4804000900748001F016841F0B2
:103A6000805101600068002200F0805000900F211A
:103A7000901E02B000F010B844380240002809DB64
:103A800000F01F02012191404009800000F1E02078
:103A9000C0F8001170470000F0B40E4B1B68C3F370
:103AA0000223C3F10704042C00D904241D1D072D93
:103AB00001D2002300E0DB1E012606FA04F56D1E8C
:103AC0000D409D409E40761E164045EA0601F0BC22
:103AD00008F05FBA0CED00E0064A00F0070110683C
:103AE0004FF6FF03184040EA0120034908431060E5
:103AF000704700000CED00E00000FA057047006818
:103B0000416200207047F0B50368586A39B19C6A79
:103B10004FF4827500EB144400204E1E0AE040EA88
:103B2000024098620FE005EB8007DF59401C04EB70
:103B30001744C0B2B042F6D344EA02404FF4807258
:103B400002EB810158500020F0BDD0F8E00406F0EF
:103B500074BF01EBC10200EB8202D0F8E004126AEC
:103B600006F0C5BE01EBC10200EB8202D0F8E00412
:103B7000D2F8602206F017BFD0F8E00406F05FBF6D
:103B80000A0601F00F0101EBC10100EB810101D533
:103B9000143101E001F51571006807F043BE70B5FE
:103BA00004460B0601F00F0000EBC00104EB81019D
:103BB0004FF001024FF0000502D54A75143103E0C1
:103BC00081F8555201F51571087094F89404012894
:103BD00008D084F89424206807F042FB84F89454B9
:103BE000002070BD022070BD70B5044601F00F00CA
:103BF0002279904201D9012070BD0B0601F00F011E
:103C000001EBC10104EB81014FF001024FF000050F
:103C100002D54A75143103E081F8555201F515714A
:103C20008D70087094F89404012808D084F89424C6
:103C3000206807F083FC84F89454002070BD0220B3
:103C400070BD01F00F0101EBC10100EB8100D0F864
:103C5000680270472DE9F04104460F0601F00F009D
:103C600000EBC00104EB81014FF001064FF00005AD
:103C700002D54E75143103E081F8555201F51571E6
:103C8000C2F30A0208708A600B714A7802B1488355
:103C9000022B00D14D7194F89404012809D084F8C6
:103CA0009464206807F02AFA284684F89454BDE802
:103CB000F0810220FBE710B501F00F0404EBC40112
:103CC00000EB8101C1E998230023C1F8683281F833
:103CD000553281F85442837901F51571012B00D1D9
:103CE000CA618279006807F081FC002010BD70B5C0
:103CF00004460D4601F00F002179884201D90120C8
:103D000070BD29064FF000064FF0010206D500EB0A
:103D1000C00104EB81014A75143107E005EBC501D0
:103D200004EB810181F8556201F515718A70087004
:103D300094F89404012807D084F89424206807F0AC
:103D400029FC280702D007E0022070BDA17904F207
:103D50009C42206807F0C6FB84F89464002070BD84
:103D600010B501F00F0404EBC40100EB8101C1E9BF
:103D7000082300238B6201234B7501F8144F8379CC
:103D8000012B00D1CA618279006807F02FFC002066
:103D900010BD00002DE9F84F05680446284607F0DD
:103DA000DCFD00287DD1206807F003FE002878D0D4
:103DB000D5F80808C0F30D20C4F8D404206807F033
:103DC000F8FD800704D52068416901F002014161D6
:103DD000206807F0EEFDC10604F29C40009034D547
:103DE0002068816921F0100181612F6A07F00F00BE
:103DF00000EBC00004EB8006C7F3434006F51576E0
:103E0000022802D0062811D01AE047F6F0700742C7
:103E100016D0C7F30A1217462846F16807F0CDFD01
:103E2000F0683844F0607069384408E00822284699
:103E3000009907F0C2FD7069C7F30A110844706168
:103E40002068816941F010018161206807F0B1FDAF
:103E500000034FF0010B7AD50026206807F088FD9B
:103E60008046DFF878A46FE05FEAC87069D0F1B2ED
:103E7000206807F096FD0746C00707D005EB4611FE
:103E8000C1F808BB3146204604F084F8380722D533
:103E900005EB46110820C1F8080B2068D0F84090C7
:103EA00000E018E200EB4610D0F8082BD14505D908
:103EB000110403D54FF40041C0F8081B204600F060
:103EC000F0FAD14507D9A079012804D12068012151
:103ED000009A07F007FBF80604D505EB4611102001
:103EE000C1F8080BB8071DD56869000605D5D5F8D7
:103EF000040840F48061C5F8041806EBC60004EB22
:103F0000800090F8571200F51570012905D10021A5
:103F1000C170F1B2204600F0E7F905EB461102202E
:103F2000C1F8080BB80604D505EB46102021C0F8EF
:103F3000081BB80405D505EB46104FF40051C0F836
:103F4000081B4FEA5808761CB8F1000F8CD1206886
:103F500007F02FFD40036DD5206807F002FD804675
:103F6000002664E05FEAC8705ED0F1B2206807F016
:103F700006FD0746C00723D006F00F010BFA01F03B
:103F8000D5F834188143C5F8341805EB4610C0F84D
:103F900008B9A07901280FD106EBC60004EB800018
:103FA000D0E907211144016236B9606A20B920685E
:103FB0000121009A07F096FAF1B22046FFF7C9FDF9
:103FC000380704D505EB46110820C1F80809F806A2
:103FD00004D505EB46111020C1F80809780604D570
:103FE00005EB46104021C0F80819B80716D5314630
:103FF000284607F087FC06EBC60004EB8000C17D75
:104000001430012905D10021C170F1B2204600F021
:1040100067F905EB46110220C1F80809380603D5F7
:104020003146204604F01CF84FEA5808761CB8F1D7
:10403000000F97D1206807F0BCFC002811DAD5F8F2
:10404000040820F00101C5F8041894F8CC040128F4
:104050002BD0204600F00AFA2068416901F00041A7
:104060004161206807F0A5FC00050BD5D5F80808CC
:10407000C00702D0204600F03DFA2068416901F4F3
:1040800000614161206807F094FCC00467D5D5F851
:10409000040820F00101C5F804181021206807F079
:1040A00031FC00214FF67F3220E0002084F8CC0460
:1040B00001462046FFF722FDCEE705EB4110C0F890
:1040C0000829D0F8003923F40013C0F80039C0F8EB
:1040D000082BD0F8003B23F40013C0F8003BD0F8C5
:1040E000003B43F00063C0F8003B491C2079884244
:1040F000E3D8D5F81C0840F00111C5F81C18E07B86
:10410000002828460DD0D0F8840840F00B01C5F8EF
:104110008418D5F8440840F00B012846C5F8441827
:104120000DE0D0F8140842F22B010843C5F814083A
:10413000D5F8100840F00B012846C5F81018D0F843
:10414000000820F4FE61C5F80018A1792068009AE3
:1041500007F0C8F92068416901F480514161206885
:1041600007F027FC800415D5206807F007F82068C1
:1041700007F0E6FBE07100F08FFA0146E279206873
:1041800007F07AFC204600F05BF92068416901F4F1
:1041900000514161206807F00CFC000707D520465C
:1041A00000F068F92068416901F008014161206868
:1041B00007F0FFFB000615D5A86920F08001A96172
:1041C00001260CE006EBC60004EB800090F85702D5
:1041D000012803D1F1B22046FFF7D2FC761C2079EA
:1041E000B042EFD8206807F0E4FBC0021FD50126DB
:1041F0005F4614E005EB4610D0F8001906EBC60048
:1042000004EB8000027E012A08D1002906DAC77576
:10421000F0B240F080012046FFF7B2FC761C207916
:10422000B042E7D82068416901F4801141612068FB
:1042300007F0BFFB800231D501205B4626E005EB8D
:104240004011D1F8001B00EBC00204EB820292F88F
:104250005862012E19D1002917DA94F8D464C1F3F9
:10426000004106F001068E420FD182F85732A9694B
:1042700041F08002AA616969090606D4D5F80408EC
:1042800040F40070C5F8040803E0401C2179814225
:10429000D5D82068416901F400114161206807F018
:1042A00088FB400007D52046FFF74FFC2068416996
:1042B00001F080414161206807F07BFB40070AD58F
:1042C00020684568680702D52046FFF755FC20683E
:1042D000416829434160BDE8F88F00000A30544F1F
:1042E000D0F8E00406F0FDBBD0F8E00406F00DBC09
:1042F000F8B5040005D094F895042668002510B19F
:1043000006E00120F8BD84F89454204600F056F8E9
:10431000032084F89504B6F1A04F00D1A571206860
:1043200007F0DAF8207C8DF8000094E80F0006F022
:1043300033FF0226B0BB0021206807F05DFB88BB7D
:10434000002101270CE001EBC10004EB8000477560
:104350000175C1850576C5610562491CC9B2456212
:1043600020798842EFD8002111E001EBC10004EB75
:10437000800080F8555280F8541280F85852C0F8E6
:104380005C52C0F86052491CC9B2C0F8645220792E
:104390008842EAD8207C8DF8000094E80F0006F0EF
:1043A000E3FF10B184F89564ABE7657484F8957405
:1043B000206806F0CBFF0020F8BD000010B586B0E5
:1043C000044614216846FCF741F92068B0F1A04F7B
:1043D0002FD119480021026842F0010202600068F2
:1043E00000F0010005904FF4C05000900220CDE98C
:1043F0000101032003900A20049069460F48FFF74B
:10440000B1F80D48001D016841F0800101600A48C3
:104410001430016841F4804101600068002200F41A
:104420008040059005214320FFF736FB4320FFF72E
:1044300025FB06B010BD00003038024000000240ED
:1044400070B50446C079012570B1022801D0FDF78E
:1044500025FB2946D4F8E00406F0C6FBD4F8E004B6
:10446000BDE8704006F07ABB0025F2E7D0F8E00422
:1044700006F0A3BBD0F8E00406F0A9BB10B50446D3
:1044800090F8940401280AD0012084F894046174FF
:10449000206807F0DFFA002084F8940410BD0220A1
:1044A00010BDD0F8E02400F29C41104606F0A8BBF5
:1044B00010B50446006894F89414012909D001212C
:1044C00084F89414C168490609D5617B012902D09A
:1044D00005E0022010BD816B41F4803181632068CA
:1044E00007F0EEF9206806F023FF002084F894041A
:1044F00010BD000010B50446D0F8E00406F0C2FB81
:104500002068D0F8001E41F00101C0F8001EE07ADA
:10451000002804D00248016841F00601016010BD86
:1045200010ED00E02DE9F0470D46040065D0DFF8FE
:104530001491D9F80000EFB200F00700A84207D2AA
:1045400089F80070D9F8000000F00700A84254D1A3
:1045500020683D4E810712D5400703D5306840F4EE
:10456000E05030602078000703D5306840F46040A8
:1045700030603068A16820F0F00008433060207897
:10458000C0072DD0304960680839012812D00228B0
:1045900013D0032811D00968890700292DDA316862
:1045A00021F0030101433160FFF7CAF8804641F270
:1045B000883A0EE009688903EFE709688901ECE7AA
:1045C000FFF7BEF8A0EB0801514502D90320BDE872
:1045D000F0873068616800F00C00B0EB810FEFD11C
:1045E000D9F80010484601F00701A94207D9077021
:1045F000006800F00700A84201D00120E7E720781A
:10460000400705D53068E16820F4E0500843306089
:104610002078000706D53068216920F4604040EA20
:10462000C100306000F05EF83168084AC1F3031140
:10463000515CC8400649086006480068FFF7B6F9B3
:104640000020C4E7003C0240083802408C0001080A
:1046500098000020900000200F2202600C4A13688E
:1046600003F003034360136803F0F00383601368EF
:1046700003F4E053C36012684FF4E05303EAD2023C
:1046800002610448006800F00700086070470000FD
:1046900008380240003C02400148006870470000B2
:1046A000980000200448054900680968044AC1F3DD
:1046B0008221515CC84070479800002008380240B1
:1046C0009C0001080448054900680968044AC1F3D0
:1046D0004231515CC84070479800002008380240C1
:1046E0009C000108154810B5006810F00C01144832
:1046F00013D0144B04290FD008290ED10F4C241FBE
:10470000216801F03F022168490207D52068C0F303
:104710008810A0FB030106E0184610BD2168C1F314
:104720008811A1FB00010023FBF778FE2168C1F38B
:104730000141491C4900B0FBF1F010BD08380240AE
:104740000024F400001BB7002DE9F84F040075D0D9
:104750002078DFF838A3C007AAF1040548D00AF191
:1047600004000168C1F38101012908D00068C0F389
:10477000810002280AD1DAF80000400206D5286834
:10478000800335D560680028E1D031E06068B0F57D
:10479000803F10D0B0F5A02F286810D020F48030D2
:1047A0002860286820F4802028606068A0B1FEF7A7
:1047B000C7FF06460CE0286840F48030F4E740F478
:1047C00080202860F7E7FEF7BBFF801B642871D8C4
:1047D00028688003F7D50BE0FEF7B2FF064604E039
:1047E000FEF7AEFF801B6428F1D828688003F7D459
:1047F0002078DFF89C9280074FF0000B3DD5A3484E
:10480000001D016811F00C0F08D00068C0F3810092
:1048100002280AD1DAF80000400206D4286880078E
:1048200015D5E068012809D111E0E068B8B1012090
:10483000C9F80000FEF784FF064605E022E1FEF716
:104840007FFF801B0228C2D828688007F7D5286818
:10485000216920F0F80040EAC10028600DE0C9F8A5
:1048600000B0FEF76DFF064604E0FEF769FF801B0F
:1048700002281FD828688007F7D42078000722D59F
:10488000824F84486169703771B101210160FEF780
:1048900057FF064604E0FEF753FF801B022809D8A5
:1048A00038688007F7D50EE0C0F800B0FEF748FF83
:1048B000064605E082E0FEF743FF801B02287DD814
:1048C00038688007F7D42078400765D56F484FF0E7
:1048D00000083C300068C0000BD46C483C300168D4
:1048E00041F08051016000684FF0010800F08050F5
:1048F0000090694F3868C0050FD4386840F4807064
:104900003860FEF71DFF064604E0FEF719FF801B26
:10491000022853D83868C005F7D55C4FA0686C37BB
:1049200001280FD00528386810D020F00100386029
:10493000386820F004003860A068B0B1FEF700FFCE
:1049400006460EE0386840F00100F4E740F004004D
:104950003860F7E7FEF7F4FE811B41F288308142B0
:1049600063D838688007F5D50DE0FEF7E9FE064606
:1049700006E0FEF7E5FE811B41F28830814254D803
:1049800038688007F5D4B8F1000F05D03F483C30B7
:10499000016821F080510160A069B8B33B49091D4D
:1049A0000968C1F38101022946D00228584606D081
:1049B000C9F86000FEF7C4FE044639E035E04F4612
:1049C000C9F86000FEF7BCFE064604E0FEF7B8FE3C
:1049D000801B022829D828688001F7D4D4E9070170
:1049E0000843A16A2D4A490802EB0141626A41EA83
:1049F0008211084394F82C1040EA0161CAF80010B3
:104A000001203866FEF79CFE044605E03CE0FEF718
:104A100097FE001B022808D828688001F7D533E0EC
:104A2000FEF78EFE001B022802D90320BDE8F88F96
:104A300028688001F4D427E00128F7D0DAF80000D4
:104A4000E26900F4800191421CD1226A00F03F012A
:104A5000914217D147F6C071626A0140B1EB821FE3
:104A600010D1A26A4FF0FF3300F4403103EB520241
:104A7000B1EB024F06D194F82C1000F07060B0EB4F
:104A8000016F01D00120D1E70020CFE704380240B8
:104A900000004742800E4742007000400000FFFFC8
:104AA00070B5040009D0606A002540B125616561D8
:104AB000A56294F8510040B10CE0012070BD60681F
:104AC000B0F5827FF4D0E561F2E784F850502046DB
:104AD00000F044F8022084F851002068016821F0B9
:104AE00040010160A088218900F4827001F4044132
:104AF0000843A18901F400610843217C01F002010F
:104B00000843217D01F001010843218B01F400716C
:104B10000843217F01F03801084394F8201001F088
:104B200080010843218D01F4005108432168086089
:104B3000A069042101EA104094F8241001F010014A
:104B40000843216848602068C16921F40061C1619F
:104B50006565012084F85100002070BD2DE9F04307
:104B600087B0044614216846FBF770FD344920687D
:104B7000884261D133480025016841F480510160C9
:104B8000006800F4805005902E481438016841F008
:104B900002010160016801F002010591016841F024
:104BA000010101600068022600F001000590182054
:104BB00001274FF003084FF005098DE8C10369464E
:104BC0002148FEF7CFFC80208DE8C10369461F48CD
:104BD000FEF7C8FC1F4E1E484FF0C0673060C6E9A4
:104BE00001754FF48068C6E9035875617812B561A4
:104BF000C6E9075030467562FEF7F2FB08B1FCF7D4
:104C00004DFFE664B463134E114860361830E6E891
:104C100002074020A6E82101C00246F81459B561F8
:104C2000C6E907500B4875626030FEF7D9FB08B142
:104C3000FCF734FFA664B46307B0BDE8F08300005E
:104C400000300140443802400004024000000240AD
:104C5000406402404C0E00202DE9FF4F81B01F46FA
:104C60009346044601250E9EFEF76AFD804694F8A1
:104C700051006168012806D0B1F5827F3CD1A1685E
:104C8000C9BB042838D10298002870D0BBF1000FAE
:104C9000FBD0002FF9D094F8500001282CD04FF011
:104CA000010A84F850A094F85100042802D005208D
:104CB00084F851004FF00009C4F85490C4F838B09B
:104CC000E787A78702992163E786A786C4F8409003
:104CD000C4F8449020680168490603D4016841F093
:104CE00040010160E068B0F5006F606808D0E8B38B
:104CF000012F47D07DE0FFE7022005B0BDE8F08F2F
:104D000008B1012F37D1206B21680088C860206B63
:104D1000801C2063E08E401EE0862CE020688168C5
:104D200089070DD5E18E59B1012D09D1216B098873
:104D3000C160206B801C2063E08E401EE086002551
:104D400020688168C9070BD0E18F49B1C068A16BA9
:104D50000880A06B801CA063E08F401EE0870125C7
:104D6000FEF7EEFCA0EB0800B04201E00AE064E0D0
:104D700001D3701C4ED1E08E0028CFD1E08F0028E7
:104D8000CCD13CE0206B216800780873206B401C7C
:104D90002063E08E401EE0862BE020688168890752
:104DA0000DD5E18E59B1012D09D1216B097801731F
:104DB000206B401C2063E08E401EE08600252068AA
:104DC0008168C9070BD0E18F49B1C068A16B087039
:104DD000A06B401CA063E08F401EE0870125FEF71A
:104DE000AFFCA0EB0800B04202D3701C01D011E070
:104DF00086B1E08E0028D0D1E08F0028CDD1424688
:104E00003146204604F028FA50B12020606584F82D
:104E1000509012E084F851A084F8509003206CE781
:104E2000A06818B92068C1688068009084F851A013
:104E300084F85090606D0028F1D001205DE7704744
:104E40007047000070B590F83C20012A32D001254F
:104E500080F83C50022280F83D2002685368946834
:104E600023F070060B6833435360134B02689A4279
:104E700014D0B2F1804F11D0104B9A420ED0104B8B
:104E80009A420BD00F4B9A4208D00F4B9A4205D052
:104E90000E4B9A4202D00E4B9A4204D1496824F03C
:104EA00080031943916080F83D50002180F83C1048
:104EB000084670BD022070BD0000014000040040A3
:104EC00000080040000C0040000401400040014088
:104ED0000018004010B5040003D094F83D0010B154
:104EE00007E0012010BD002084F83C00204600F0BF
:104EF0001FF8022084F83D00211D206804F0A0FD69
:104F0000012084F8460084F83E0084F83F0084F8CD
:104F1000400084F8410084F8420084F8430084F89B
:104F2000440084F8450084F83D00002010BD0000D6
:104F300008B50068174A1849904211D1086840F036
:104F4000020008600868002200F0020000900521BD
:104F50001D20FEF7A1FDBDE808401D20FEF78EBD17
:104F60000E4A904207D1086840F0040008600868C3
:104F700000F004000BE00A49884209D10648001DF0
:104F8000016841F400310160006800F400300090D5
:104F900008BD000000040040403802400008004006
:104FA0000044014090F83D10012901D001207047D4
:104FB000022180F83D1000681149884214D0B0F1F8
:104FC000804F11D00F4988420ED00F4988420BD034
:104FD0000E49884208D00E49884205D00D498842C2
:104FE00002D00D49884204D1816801F007010629E9
:104FF00003D0016841F0010101600020704700000A
:10500000000001400004004000080040000C004087
:1050100000040140004001400018004090F83D109D
:10502000012901D001207047022180F83D1001685C
:10503000CA6842F00102CA6000681149884214D06F
:10504000B0F1804F11D00F4988420ED00E498842EE
:105050000BD00E49884208D00D49884205D00D4931
:10506000884202D00C49884204D1816801F00701CE
:10507000062903D0016841F001010160002070475A
:10508000000001400004004000080040000C004007
:1050900000040140004001400018004070B5044683
:1050A00090F83C000025012817D0012684F83C60C8
:1050B000022084F83D002068826822F0770222F402
:1050C0007F4282600868502838D00DDC20284FD0FD
:1050D00005DC90B3102811D14AE0022070BD3028C1
:1050E00046D040280AD13BE060282FD070280DD050
:1050F000B0F5805F03D0B0F5005F12D0012584F8D1
:105100003D60002084F83C00284670BDCB68D1E9A2
:105110000121206804F009FD2068816841F07701D1
:1051200009E0CB68D1E90121206804F0FEFC206889
:10513000816841F480418160E1E719E0CA6849680B
:10514000206804F0DCFD5021206806E0CA68496848
:10515000206804F0E5FD6021206804F0F0FCCEE753
:10516000CA684968206804F0CAFD40212068F4E755
:10517000226801461046F0E770472DE9F0410446E9
:105180000068C66805694FF00007A90713D5B10785
:1051900011D5F91E01610120207720688069800700
:1051A000204602D0FFF7E8FF04E000F0C1F82046F7
:1051B00000F053F92777680716D5700714D52168D2
:1051C0006FF004000861022020772068806910F4E5
:1051D000407F204602D0FFF7CFFF04E000F0A8F8A0
:1051E000204600F03AF92777280715D5300713D560
:1051F00021686FF008000861042020772068C069EA
:105200008007204602D0FFF7B7FF04E000F090F8D7
:10521000204600F022F92777E80616D5F00614D5C7
:1052200021686FF010000861082020772068C069AD
:1052300010F4407F204602D0FFF79EFF04E000F00C
:1052400077F8204600F009F92777E80708D0F0073B
:1052500006D021686FF001000861204600F066F971
:10526000280608D5300606D521686FF08000086151
:105270002046FFF7E4FD680608D5700606D52168CC
:105280006FF040000861204600F057F9A8060AD5E3
:10529000B00608D521686FF0200008612046BDE8FF
:1052A000F041FFF7CDBDBDE8F081000010B586B03C
:1052B000044614216846FBF7C9F92068174C0023FF
:1052C00017490222A0420FD1086840F00800086088
:1052D0000868694600F00800059050038DE80D004D
:1052E000CDE903320F4814E00F4B984213D1086800
:1052F00040F0200008600868694600F02000059032
:105300004020CDE900020120CDE9020203200490F3
:105310000648FEF727F906B010BD0000000800405F
:1053200030380240000C02400044014000140240AA
:10533000704770B5044690F83C0000260D460128E1
:105340000FD0012084F83C006AB1042A1DD0082A3D
:105350002FD00C2A3FD00126002084F83C00304694
:1053600070BD022070BD206804F0F2FB20688169E6
:1053700041F0080181612068816921F004018161A7
:10538000206881692A69114311E0206804F010FC4B
:105390002068816941F4006181612068816921F49C
:1053A00080618161206881692A6941EA0221816105
:1053B000D2E7206804F032FC2068C16941F008019E
:1053C000C1612068C16921F00401C1612068C1691F
:1053D0002A69114311E0206804F054FC2068C16977
:1053E00041F40061C1612068C16921F48061C1613B
:1053F0002068C1692A6941EA0221C161ACE710B5A0
:10540000040003D094F83D0010B107E0012010BD66
:10541000002084F83C00204600F01EF8022084F8AA
:105420003D00211D206804F00BFB012084F846009C
:1054300084F83E0084F83F0084F8400084F841007E
:1054400084F8420084F8430084F8440084F845005E
:1054500084F83D00002010BD7047704710B5044629
:1054600049B104290AD008290BD094F84100012839
:105470000AD0012010BD94F83E00F8E794F83F00F0
:10548000F5E794F84000F2E70220B1B3042938D0E0
:10549000082939D084F841000122206804F038FB43
:1054A0001B4920681B4A884201D0904203D1436CBB
:1054B00043F4004343642068884213D0B0F1804F26
:1054C00010D0154988420DD0144988420AD0144999
:1054D000884207D0904205D01249884202D0124932
:1054E000884204D1816801F00701062903D00168D0
:1054F00041F001010160002010BDFFE784F83E008B
:10550000CAE784F83F00C7E784F84000C4E700001A
:105510000000014000040140000400400008004079
:10552000000C004000400140001800400068B0F14D
:10553000804F01D1FEF718BA704770477047704727
:10554000F8B5016804460868CA684B6910F00F0F87
:105550004FF0000559D003F0010602F4907737436D
:1055600065D0C10705D0D10503D5616C41F00101BB
:105570006164410705D5D90703D0616C41F0020190
:105580006164810705D5D90703D0616C41F004013E
:105590006164010707D502F02001314303D0616C3B
:1055A00041F008016164616C00293AD0800604D59D
:1055B000900602D5204604F04CFC20684069616CDE
:1055C000C0F38010090700D460B3204604F00CFC3F
:1055D00020684069400621D52068143050E8001F3B
:1055E00021F0400140E80012002AF5D1E06BA8B19B
:1055F00072490165E06BFDF710FE002811D0E06BE9
:10560000016D01B0BDE8F040084783060FD5930651
:105610000DD52046BDE8F84004F01BBC2046FFF73E
:105620008EFFF8BD2046FFF78AFF6564F8BD266B44
:105630002023012E7ED1C6067CD5D6067AD50868F1
:105640004868009048694FF0020640064DD5E26B6D
:10565000106840684FF480770004000C3AD0A18DA8
:10566000814237D9E085D069B8422DD020680C300E
:1056700050E8001F21F4807140E80012002AF5D1A3
:105680002068143050E8001F21F0010140E80012AA
:10569000002AF5D12068143050E8001F21F04001A5
:1056A00040E80012002AF5D184F8423025632068D2
:1056B0000C3050E8001F21F0100140E80012002AD1
:1056C000F5D1E06BFDF760FD6663A08DE18D401ABA
:1056D00081B206E0A18D8142A8D1D069B842A5D19E
:1056E00066632046FFF72AFFF8BDA08DE18D401AC2
:1056F00081B2E08D0028F7D00029F5D020680C3069
:1057000050E8002F22F4907240E80027002FF5D1D6
:105710002068143050E8002F22F0010240E80027F2
:10572000002FF5D184F84230256320680C3050E812
:10573000002F00E006E022F0100240E80023002BDA
:10574000F3D1CDE705062BD5150629D594F84100F0
:105750002128C9D1A068B0F5805F01D12069B0B11E
:10576000206A411C2162216800784860E08C401E5C
:105770000004000CE084B7D12068C16821F08001EA
:10578000C1602068C16841F04001C160F8BD206A75
:105790000088C0F308004860206A801C2062E5E7AA
:1057A0004006F3D55006F1D5CA68204622F04002E3
:1057B000CA6084F8413000F0ABF9F8BD459D00089F
:1057C00070B5040004D094F84100002510B106E043
:1057D000012070BD84F84050204600F023F82420BA
:1057E00084F841002068C16821F40051C16020465E
:1057F00004F090FB2068016921F490410161206868
:10580000416921F02A0141612068C16841F40051D9
:10581000C1606564202084F8410084F8420065631B
:10582000002070BD2DE9F04F87B004461421684672
:10583000FAF70CFF8848DFF81C821438D4F800C04F
:10584000854A022703210723002506154FF0400B48
:105850004FF0006AC44564D1D2F800C04CF0100C7F
:10586000C2F800C0126802F010020592026842F00D
:1058700002020260026802F002020592026842F02F
:10588000010202600068884600F001000590802057
:10589000CDE900070DF1080C99468CE82003694614
:1058A0006E48FDF75FFE7010CDE900070DF1080CA2
:1058B00069468CE820036A48FDF754FE6A4F694840
:1058C000D046C7E90356B14607F1180C86154FF4C8
:1058D000803A7D618CE860047D6287E80109384682
:1058E000FDF77EFD08B1FCF7D9F8A763BC635E4FF6
:1058F0005C48603730383860C7E90185C7E903592B
:1059000007F118017D6181E8600438467D62FDF78A
:1059100067FD08B1FCF7C2F8E763BC6307B0BDE8F8
:10592000F08FDFF848814FF44039C4453BD14A4AF3
:10593000121FD2F800C04CF4802CC2F800C01268CC
:1059400002F480220592026842F0040202600068BC
:10595000029500F004000590CDE903134FF4406078
:10596000CDE9000769464248FDF7FCFD3E4F41483E
:10597000C0373860C7E901A5C7E9035680157D61C6
:10598000C7E90650C7E908953846FDF729FD08B173
:10599000FCF784F8E763002205212720BC63FEF7AB
:1059A0007BF8272052E0344B9C45B7D1136843F075
:1059B00020031360126802F020020592026842F090
:1059C000400202600068029500F0400005904FF42C
:1059D0008440CDE900070820CDE903106946274837
:1059E000FDF7C0FD1F48264F90384FF02068386003
:1059F000C7E90185C7E903567D614FF40030BD61F9
:105A0000C7E9075038467D62FDF7EAFC08B1FCF7AC
:105A100045F8E763BC631A4F124860371838C7E986
:105A200003567D61BD61C7E907597D6287E80109B9
:105A30003846FDF7D5FC08B1FCF730F8A763002223
:105A400005214720BC63FEF727F84720FEF716F82C
:105A500064E70000001001404438024000040240A6
:105A600000000240B8640240BC1000200048004022
:105A70000008024028600240001401400018024063
:105A8000DC1100207047000037B5044690F8410053
:105A9000202801D002203EBD019901B3FAB1216254
:105AA000A284E28400206064212384F84130A56B45
:105AB000144BEB63A56B144B2B64A56B134BEB647E
:105AC000A36B186520681346A56B021D2846FDF7D9
:105AD000F1FC30B110206064202084F841000120E6
